{
  "_format": "hh-sol-artifact-1",
  "contractName": "PokerRoomContractFactory",
  "sourceName": "contracts/PokerRoomContractFactory.sol",
  "abi": [
    {
      "inputs": [
        {
          "internalType": "uint256",
          "name": "_room_id",
          "type": "uint256"
        },
        {
          "internalType": "uint256",
          "name": "_intialBet",
          "type": "uint256"
        }
      ],
      "name": "createPokerRoom",
      "outputs": [
        {
          "internalType": "address",
          "name": "",
          "type": "address"
        }
      ],
      "stateMutability": "nonpayable",
      "type": "function"
    },
    {
      "inputs": [
        {
          "internalType": "uint256",
          "name": "_room_id",
          "type": "uint256"
        }
      ],
      "name": "getContractAddressByRoomId",
      "outputs": [
        {
          "internalType": "address",
          "name": "",
          "type": "address"
        }
      ],
      "stateMutability": "view",
      "type": "function"
    }
  ],
  "bytecode": "0x608060405234801561001057600080fd5b5061711a806100206000396000f3fe60806040523480156200001157600080fd5b50600436106200003a5760003560e01c806330c03c34146200003f5780633d26b38c1462000075575b600080fd5b6200005d600480360381019062000057919062000372565b620000ab565b6040516200006c9190620004a5565b60405180910390f35b6200009360048036038101906200008d919062000346565b6200027f565b604051620000a29190620004a5565b60405180910390f35b60006001600084815260200190815260200160002060009054906101000a900460ff161562000111576040517f08c379a0000000000000000000000000000000000000000000000000000000008152600401620001089062000511565b60405180910390fd5b60003383604051620001239062000321565b62000130929190620004c2565b604051809103906000f0801580156200014d573d6000803e3d6000fd5b509050600060405180606001604052808373ffffffffffffffffffffffffffffffffffffffff1681526020013373ffffffffffffffffffffffffffffffffffffffff1681526020014281525090508060008087815260200190815260200160002060008201518160000160006101000a81548173ffffffffffffffffffffffffffffffffffffffff021916908373ffffffffffffffffffffffffffffffffffffffff16021790555060208201518160010160006101000a81548173ffffffffffffffffffffffffffffffffffffffff021916908373ffffffffffffffffffffffffffffffffffffffff16021790555060408201518160020155905050600180600087815260200190815260200160002060006101000a81548160ff021916908315150217905550819250505092915050565b60006001600083815260200190815260200160002060009054906101000a900460ff16620002e4576040517f08c379a0000000000000000000000000000000000000000000000000000000008152600401620002db90620004ef565b60405180910390fd5b60008083815260200190815260200160002060000160009054906101000a900473ffffffffffffffffffffffffffffffffffffffff169050919050565b616b48806200059d83390190565b600081359050620003408162000582565b92915050565b6000602082840312156200035957600080fd5b600062000369848285016200032f565b91505092915050565b600080604083850312156200038657600080fd5b600062000396858286016200032f565b9250506020620003a9858286016200032f565b9150509250929050565b620003be8162000544565b82525050565b6000620003d360308362000533565b91507f7b22737461747573436f6465223a203130312c20226d657373616765223a202260008301527f726f6f6d20696420756e757365642e22000000000000000000000000000000006020830152604082019050919050565b60006200043b603b8362000533565b91507f7b22737461747573436f6465223a203130312c20226d657373616765223a202260008301527f726f6f6d20696420616c6c72656164792061636375697265642e2200000000006020830152604082019050919050565b6200049f8162000578565b82525050565b6000602082019050620004bc6000830184620003b3565b92915050565b6000604082019050620004d96000830185620003b3565b620004e8602083018462000494565b9392505050565b600060208201905081810360008301526200050a81620003c4565b9050919050565b600060208201905081810360008301526200052c816200042c565b9050919050565b600082825260208201905092915050565b6000620005518262000558565b9050919050565b600073ffffffffffffffffffffffffffffffffffffffff82169050919050565b6000819050919050565b6200058d8162000578565b81146200059957600080fd5b5056fe60a060405230600260006101000a81548173ffffffffffffffffffffffffffffffffffffffff021916908373ffffffffffffffffffffffffffffffffffffffff1602179055506000600360006101000a81548173ffffffffffffffffffffffffffffffffffffffff021916908373ffffffffffffffffffffffffffffffffffffffff160217905550604051806102c00160405280600360ff168152602001600560ff168152602001600760ff168152602001600960ff168152602001600b60ff168152602001600f60ff168152602001601160ff168152602001601360ff168152602001601560ff168152602001601760ff168152602001601b60ff168152602001601d60ff168152602001601f60ff168152602001602160ff168152602001602360ff168152602001602560ff168152602001602760ff168152602001602960ff168152602001602b60ff168152602001602d60ff168152602001602f60ff168152602001603360ff1681525060089060166200017f92919062000567565b506000600960016101000a81548160ff02191690831515021790555060405180602001604052806000815250600a9080519060200190620001c2929190620005be565b506628307a23136e7a600b556000600f60006101000a81548160ff021916908360048111156200021b577f4e487b7100000000000000000000000000000000000000000000000000000000600052602160045260246000fd5b0217905550736238772544f029ecabfded4300f13a3c4fe84e1d601160006101000a81548173ffffffffffffffffffffffffffffffffffffffff021916908373ffffffffffffffffffffffffffffffffffffffff1602179055507f94555f83f1addda23fdaa7c74f27ce2b764ed5cc430c66f5ff1bcf39d583da3660001b60125573a0ad79d995ddeeb18a14eaef56a549a04e3aa1bd601460006101000a81548173ffffffffffffffffffffffffffffffffffffffff021916908373ffffffffffffffffffffffffffffffffffffffff160217905550348015620002fe57600080fd5b5060405162006b4838038062006b4883398181016040528101906200032491906200069c565b601460009054906101000a900473ffffffffffffffffffffffffffffffffffffffff168073ffffffffffffffffffffffffffffffffffffffff1660808173ffffffffffffffffffffffffffffffffffffffff1660601b815250508073ffffffffffffffffffffffffffffffffffffffff1663addf027c3060016040518363ffffffff1660e01b8152600401620003bc9291906200078d565b600060405180830381600087803b158015620003d757600080fd5b505af1158015620003ec573d6000803e3d6000fd5b5050505050600073ffffffffffffffffffffffffffffffffffffffff168273ffffffffffffffffffffffffffffffffffffffff16141562000464576040517f08c379a00000000000000000000000000000000000000000000000000000000081526004016200045b90620007ba565b60405180910390fd5b81600160006101000a81548173ffffffffffffffffffffffffffffffffffffffff021916908373ffffffffffffffffffffffffffffffffffffffff1602179055506000600960006101000a81548160ff021916908360ff1602179055506000600481905550806005819055506000600d819055506000600c60006101000a81548160ff0219169083151502179055506000600c60026101000a81548160ff0219169083151502179055506000600c60046101000a81548160ff0219169083151502179055506000600c60036101000a81548160ff0219169083151502179055506000600c60016101000a81548160ff0219169083151502179055505050620008d0565b828054828255906000526020600020908101928215620005ab579160200282015b82811115620005aa578251829060ff1690559160200191906001019062000588565b5b509050620005ba91906200064f565b5090565b828054620005cc9062000837565b90600052602060002090601f016020900481019282620005f057600085556200063c565b82601f106200060b57805160ff19168380011785556200063c565b828001600101855582156200063c579182015b828111156200063b5782518255916020019190600101906200061e565b5b5090506200064b91906200064f565b5090565b5b808211156200066a57600081600090555060010162000650565b5090565b6000815190506200067f816200089c565b92915050565b6000815190506200069681620008b6565b92915050565b60008060408385031215620006b057600080fd5b6000620006c0858286016200066e565b9250506020620006d38582860162000685565b9150509250929050565b620006e881620007ed565b82525050565b620006f98162000801565b82525050565b60006200070e604383620007dc565b91507f7b22737461747573436f6465223a203430302c20226d657373616765223a202260008301527f746865207365727665722061646472657373206e6f742073706563696669656460208301527f21227d00000000000000000000000000000000000000000000000000000000006040830152606082019050919050565b6000604082019050620007a46000830185620006dd565b620007b36020830184620006ee565b9392505050565b60006020820190508181036000830152620007d581620006ff565b9050919050565b600082825260208201905092915050565b6000620007fa826200080d565b9050919050565b60008115159050919050565b600073ffffffffffffffffffffffffffffffffffffffff82169050919050565b6000819050919050565b600060028204905060018216806200085057607f821691505b602082108114156200086757620008666200086d565b5b50919050565b7f4e487b7100000000000000000000000000000000000000000000000000000000600052602260045260246000fd5b620008a781620007ed565b8114620008b357600080fd5b50565b620008c1816200082d565b8114620008cd57600080fd5b50565b60805160601c6162446200090460003960008181610fcb015281816111ae0152818161136c01526133f901526162446000f3fe6080604052600436106102085760003560e01c806380374dc811610118578063bf90fb4e116100a0578063e3c71a191161006f578063e3c71a1914610846578063e445dd3314610883578063e684f46a146108ac578063e908cd92146108c3578063fd922a42146108ec57610339565b8063bf90fb4e1461079c578063bfa169f1146107c7578063d504cb65146107f2578063d7c9eee31461081d57610339565b8063972ab703116100e7578063972ab703146106c9578063a36ff4d8146106f2578063ae8b03c11461071d578063b0a3beaf1461075a578063b746c9a71461077157610339565b806380374dc81461061c578063846667a51461065957806385864a701461068257806395019d0a1461069e57610339565b80633706dd4e1161019b5780634154b8e21161016a5780634154b8e21461053357806348c2aed21461055e5780636f120c101461058957806371bab666146105c65780637c529711146105f157610339565b80633706dd4e1461049b5780633ccfd60b146104c65780633fa4f245146104dd578063401186101461050857610339565b806323fb1092116101d757806323fb1092146103dd57806328d34dc2146104085780632ebfc40314610445578063339cf7011461047057610339565b806307b9fc571461033e57806309dc0c7d1461036957806312a2e07b146103945780631e98fd1c1461039e57610339565b3661033957600160009054906101000a900473ffffffffffffffffffffffffffffffffffffffff1673ffffffffffffffffffffffffffffffffffffffff166108fc349081150290604051600060405180830381858888f19350505050158015610275573d6000803e3d6000fd5b50601360009054906101000a900473ffffffffffffffffffffffffffffffffffffffff1673ffffffffffffffffffffffffffffffffffffffff16601160009054906101000a900473ffffffffffffffffffffffffffffffffffffffff1673ffffffffffffffffffffffffffffffffffffffff163373ffffffffffffffffffffffffffffffffffffffff167fa3dc06222653d598b35b7d2d9de4470ac123684fe62525518cd7547e6cf4721b600860405161032f9190615753565b60405180910390a4005b600080fd5b34801561034a57600080fd5b50610353610917565b604051610360919061553e565b60405180910390f35b34801561037557600080fd5b5061037e61091d565b60405161038b919061542d565b60405180910390f35b61039c610943565b005b3480156103aa57600080fd5b506103c560048036038101906103c091906145e7565b610c67565b6040516103d4939291906154e5565b60405180910390f35b3480156103e957600080fd5b506103f2610d56565b6040516103ff919061576e565b60405180910390f35b34801561041457600080fd5b5061042f600480360381019061042a91906143d0565b610de4565b60405161043c9190615523565b60405180910390f35b34801561045157600080fd5b5061045a6110f0565b6040516104679190615523565b60405180910390f35b34801561047c57600080fd5b50610485611103565b6040516104929190615523565b60405180910390f35b3480156104a757600080fd5b506104b0611116565b6040516104bd9190615ad2565b60405180910390f35b3480156104d257600080fd5b506104db61111c565b005b3480156104e957600080fd5b506104f261127f565b6040516104ff9190615ad2565b60405180910390f35b34801561051457600080fd5b5061051d611285565b60405161052a9190615523565b60405180910390f35b34801561053f57600080fd5b50610548611298565b6040516105559190615523565b60405180910390f35b34801561056a57600080fd5b506105736112ab565b6040516105809190615523565b60405180910390f35b34801561059557600080fd5b506105b060048036038101906105ab91906145e7565b6112be565b6040516105bd919061576e565b60405180910390f35b3480156105d257600080fd5b506105db61136a565b6040516105e89190615559565b60405180910390f35b3480156105fd57600080fd5b5061060661138e565b6040516106139190615574565b60405180910390f35b34801561062857600080fd5b50610643600480360381019061063e9190614593565b6113a1565b604051610650919061576e565b60405180910390f35b34801561066557600080fd5b50610680600480360381019061067b91906143f9565b6116f2565b005b61069c600480360381019061069791906145e7565b6119ef565b005b3480156106aa57600080fd5b506106b3611db0565b6040516106c09190615ad2565b60405180910390f35b3480156106d557600080fd5b506106f060048036038101906106eb91906143f9565b611db6565b005b3480156106fe57600080fd5b50610707611ef6565b604051610714919061542d565b60405180910390f35b34801561072957600080fd5b50610744600480360381019061073f91906145e7565b611f1c565b604051610751919061576e565b60405180910390f35b34801561076657600080fd5b5061076f611fc8565b005b34801561077d57600080fd5b506107866123bf565b6040516107939190615523565b60405180910390f35b3480156107a857600080fd5b506107b16123d2565b6040516107be919061542d565b60405180910390f35b3480156107d357600080fd5b506107dc6123f8565b6040516107e9919061542d565b60405180910390f35b3480156107fe57600080fd5b5061080761241e565b6040516108149190615ad2565b60405180910390f35b34801561082957600080fd5b50610844600480360381019061083f9190614552565b612424565b005b34801561085257600080fd5b5061086d60048036038101906108689190614463565b612621565b60405161087a9190615ab0565b60405180910390f35b34801561088f57600080fd5b506108aa60048036038101906108a59190614422565b612e2f565b005b3480156108b857600080fd5b506108c1612fb6565b005b3480156108cf57600080fd5b506108ea60048036038101906108e591906144fa565b6133f7565b005b3480156108f857600080fd5b5061090161359d565b60405161090e919061542d565b60405180910390f35b60125481565b601460009054906101000a900473ffffffffffffffffffffffffffffffffffffffff1681565b600360009054906101000a900473ffffffffffffffffffffffffffffffffffffffff1673ffffffffffffffffffffffffffffffffffffffff163373ffffffffffffffffffffffffffffffffffffffff16146109d3576040517f08c379a00000000000000000000000000000000000000000000000000000000081526004016109ca906159d0565b60405180910390fd5b60006004811115610a0d577f4e487b7100000000000000000000000000000000000000000000000000000000600052602160045260246000fd5b600f60009054906101000a900460ff166004811115610a55577f4e487b7100000000000000000000000000000000000000000000000000000000600052602160045260246000fd5b1415610a96576040517f08c379a0000000000000000000000000000000000000000000000000000000008152600401610a8d906158d0565b60405180910390fd5b600480811115610acf577f4e487b7100000000000000000000000000000000000000000000000000000000600052602160045260246000fd5b600f60009054906101000a900460ff166004811115610b17577f4e487b7100000000000000000000000000000000000000000000000000000000600052602160045260246000fd5b1415610b58576040517f08c379a0000000000000000000000000000000000000000000000000000000008152600401610b4f90615890565b60405180910390fd5b600554341015610b9d576040517f08c379a0000000000000000000000000000000000000000000000000000000008152600401610b94906158f0565b60405180910390fd5b3460046000828254610baf9190615c91565b92505081905550610bbe6135c3565b610bc6613b55565b600d54600260009054906101000a900473ffffffffffffffffffffffffffffffffffffffff1673ffffffffffffffffffffffffffffffffffffffff16427f0d77de82aeab919dcc2da0fa3cdaf0523c907be45f78e71b2fbfbd6048bcb88d600233600454600360009054906101000a900473ffffffffffffffffffffffffffffffffffffffff16604051610c5d9493929190615609565b60405180910390a4565b60108181548110610c7757600080fd5b90600052602060002090600302016000915090508060000160009054906101000a900473ffffffffffffffffffffffffffffffffffffffff1690806001018054610cc090615f42565b80601f0160208091040260200160405190810160405280929190818152602001828054610cec90615f42565b8015610d395780601f10610d0e57610100808354040283529160200191610d39565b820191906000526020600020905b815481529060010190602001808311610d1c57829003601f168201915b5050505050908060020160009054906101000a900460ff16905083565b600e8054610d6390615f42565b80601f0160208091040260200160405190810160405280929190818152602001828054610d8f90615f42565b8015610ddc5780601f10610db157610100808354040283529160200191610ddc565b820191906000526020600020905b815481529060010190602001808311610dbf57829003601f168201915b505050505081565b6000600160009054906101000a900473ffffffffffffffffffffffffffffffffffffffff1673ffffffffffffffffffffffffffffffffffffffff163373ffffffffffffffffffffffffffffffffffffffff1614610e76576040517f08c379a0000000000000000000000000000000000000000000000000000000008152600401610e6d90615830565b60405180910390fd5b600c60019054906101000a900460ff1615610ec6576040517f08c379a0000000000000000000000000000000000000000000000000000000008152600401610ebd906157f0565b60405180910390fd5b60006004811115610f00577f4e487b7100000000000000000000000000000000000000000000000000000000600052602160045260246000fd5b600f60009054906101000a900460ff166004811115610f48577f4e487b7100000000000000000000000000000000000000000000000000000000600052602160045260246000fd5b14610f88576040517f08c379a0000000000000000000000000000000000000000000000000000000008152600401610f7f90615810565b60405180910390fd5b81601360006101000a81548173ffffffffffffffffffffffffffffffffffffffff021916908373ffffffffffffffffffffffffffffffffffffffff1602179055507f000000000000000000000000000000000000000000000000000000000000000073ffffffffffffffffffffffffffffffffffffffff16636e6be03f601160009054906101000a900473ffffffffffffffffffffffffffffffffffffffff1660125430601360009054906101000a900473ffffffffffffffffffffffffffffffffffffffff163063e908cd9260e01b6040518763ffffffff1660e01b815260040161107996959493929190615471565b602060405180830381600087803b15801561109357600080fd5b505af11580156110a7573d6000803e3d6000fd5b505050506040513d601f19601f820116820180604052508101906110cb91906144d1565b506001600c60016101000a81548160ff02191690831515021790555060019050919050565b600960019054906101000a900460ff1681565b600c60039054906101000a900460ff1681565b60045481565b600160009054906101000a900473ffffffffffffffffffffffffffffffffffffffff1673ffffffffffffffffffffffffffffffffffffffff163373ffffffffffffffffffffffffffffffffffffffff16146111ac576040517f08c379a00000000000000000000000000000000000000000000000000000000081526004016111a390615830565b60405180910390fd5b7f000000000000000000000000000000000000000000000000000000000000000073ffffffffffffffffffffffffffffffffffffffff16631d414cbd601160009054906101000a900473ffffffffffffffffffffffffffffffffffffffff16601360009054906101000a900473ffffffffffffffffffffffffffffffffffffffff166040518363ffffffff1660e01b815260040161124b929190615448565b600060405180830381600087803b15801561126557600080fd5b505af1158015611279573d6000803e3d6000fd5b50505050565b60005481565b600c60019054906101000a900460ff1681565b600c60049054906101000a900460ff1681565b600c60009054906101000a900460ff1681565b600781815481106112ce57600080fd5b9060005260206000200160009150905080546112e990615f42565b80601f016020809104026020016040519081016040528092919081815260200182805461131590615f42565b80156113625780601f1061133757610100808354040283529160200191611362565b820191906000526020600020905b81548152906001019060200180831161134557829003601f168201915b505050505081565b7f000000000000000000000000000000000000000000000000000000000000000081565b600f60009054906101000a900460ff1681565b6060600160009054906101000a900473ffffffffffffffffffffffffffffffffffffffff1673ffffffffffffffffffffffffffffffffffffffff163373ffffffffffffffffffffffffffffffffffffffff1614611433576040517f08c379a000000000000000000000000000000000000000000000000000000000815260040161142a90615830565b60405180910390fd5b60005b600681101561168e578273ffffffffffffffffffffffffffffffffffffffff1660108281548110611490577f4e487b7100000000000000000000000000000000000000000000000000000000600052603260045260246000fd5b906000526020600020906003020160000160009054906101000a900473ffffffffffffffffffffffffffffffffffffffff1673ffffffffffffffffffffffffffffffffffffffff16141561167b57600d54600260009054906101000a900473ffffffffffffffffffffffffffffffffffffffff1673ffffffffffffffffffffffffffffffffffffffff16427f6ea5374b0088556f804d142e3ce73751aaffdea551cec3533cbde664877653dd6001878960405161154f9392919061558f565b60405180910390a46009600081819054906101000a900460ff168092919061157690615f18565b91906101000a81548160ff021916908360ff160217905550506115976135c3565b8273ffffffffffffffffffffffffffffffffffffffff16600360009054906101000a900473ffffffffffffffffffffffffffffffffffffffff1673ffffffffffffffffffffffffffffffffffffffff1614156115f6576115f5613b55565b5b600160108281548110611632577f4e487b7100000000000000000000000000000000000000000000000000000000600052603260045260246000fd5b906000526020600020906003020160020160006101000a81548160ff0219169083151502179055506040518060600160405280602b81526020016161e4602b91399150506116ec565b808061168690615f74565b915050611436565b5060006116d0576040517f08c379a00000000000000000000000000000000000000000000000000000000081526004016116c790615910565b60405180910390fd5b60405180608001604052806048815260200161619c6048913990505b92915050565b600160009054906101000a900473ffffffffffffffffffffffffffffffffffffffff1673ffffffffffffffffffffffffffffffffffffffff163373ffffffffffffffffffffffffffffffffffffffff1614611782576040517f08c379a000000000000000000000000000000000000000000000000000000000815260040161177990615830565b60405180910390fd5b600c60049054906101000a900460ff166117d1576040517f08c379a00000000000000000000000000000000000000000000000000000000081526004016117c8906159f0565b60405180910390fd5b60048081111561180a577f4e487b7100000000000000000000000000000000000000000000000000000000600052602160045260246000fd5b600f60009054906101000a900460ff166004811115611852577f4e487b7100000000000000000000000000000000000000000000000000000000600052602160045260246000fd5b14611892576040517f08c379a000000000000000000000000000000000000000000000000000000000815260040161188990615870565b60405180910390fd5b601060006118a09190613f1c565b6000600960006101000a81548160ff021916908360ff1602179055506000600b819055506000600f60006101000a81548160ff02191690836004811115611910577f4e487b7100000000000000000000000000000000000000000000000000000000600052602160045260246000fd5b021790555060008173ffffffffffffffffffffffffffffffffffffffff1660045460405161193d90615418565b60006040518083038185875af1925050503d806000811461197a576040519150601f19603f3d011682016040523d82523d6000602084013e61197f565b606091505b50509050806119c3576040517f08c379a00000000000000000000000000000000000000000000000000000000081526004016119ba906157b0565b60405180910390fd5b60006004819055506000600581905550600d60008154809291906119e690615f74565b91905055505050565b600360009054906101000a900473ffffffffffffffffffffffffffffffffffffffff1673ffffffffffffffffffffffffffffffffffffffff163373ffffffffffffffffffffffffffffffffffffffff1614611a7f576040517f08c379a0000000000000000000000000000000000000000000000000000000008152600401611a76906159d0565b60405180910390fd5b60006004811115611ab9577f4e487b7100000000000000000000000000000000000000000000000000000000600052602160045260246000fd5b600f60009054906101000a900460ff166004811115611b01577f4e487b7100000000000000000000000000000000000000000000000000000000600052602160045260246000fd5b1415611b42576040517f08c379a0000000000000000000000000000000000000000000000000000000008152600401611b39906158d0565b60405180910390fd5b600480811115611b7b577f4e487b7100000000000000000000000000000000000000000000000000000000600052602160045260246000fd5b600f60009054906101000a900460ff166004811115611bc3577f4e487b7100000000000000000000000000000000000000000000000000000000600052602160045260246000fd5b1415611c04576040517f08c379a0000000000000000000000000000000000000000000000000000000008152600401611bfb90615890565b60405180910390fd5b6005548111611c48576040517f08c379a0000000000000000000000000000000000000000000000000000000008152600401611c3f906158b0565b60405180910390fd5b6005546002611c579190615d18565b811115611c99576040517f08c379a0000000000000000000000000000000000000000000000000000000008152600401611c9090615950565b60405180910390fd5b80341015611cdc576040517f08c379a0000000000000000000000000000000000000000000000000000000008152600401611cd3906158f0565b60405180910390fd5b3460046000828254611cee9190615c91565b9250508190555080600581905550611d046135c3565b611d0c613b55565b600d54600260009054906101000a900473ffffffffffffffffffffffffffffffffffffffff1673ffffffffffffffffffffffffffffffffffffffff16427f578d068f1f6076045aa1d8ccedde9e9c5e3e8dfc3a394cf2544e8e629bcf821c60023386600454600360009054906101000a900473ffffffffffffffffffffffffffffffffffffffff16604051611da595949392919061564e565b60405180910390a450565b600b5481565b600160009054906101000a900473ffffffffffffffffffffffffffffffffffffffff1673ffffffffffffffffffffffffffffffffffffffff163373ffffffffffffffffffffffffffffffffffffffff1614611e46576040517f08c379a0000000000000000000000000000000000000000000000000000000008152600401611e3d90615830565b60405180910390fd5b60008173ffffffffffffffffffffffffffffffffffffffff1647604051611e6c90615418565b60006040518083038185875af1925050503d8060008114611ea9576040519150601f19603f3d011682016040523d82523d6000602084013e611eae565b606091505b5050905080611ef2576040517f08c379a0000000000000000000000000000000000000000000000000000000008152600401611ee9906159b0565b60405180910390fd5b5050565b601160009054906101000a900473ffffffffffffffffffffffffffffffffffffffff1681565b60068181548110611f2c57600080fd5b906000526020600020016000915090508054611f4790615f42565b80601f0160208091040260200160405190810160405280929190818152602001828054611f7390615f42565b8015611fc05780601f10611f9557610100808354040283529160200191611fc0565b820191906000526020600020905b815481529060010190602001808311611fa357829003601f168201915b505050505081565b600160009054906101000a900473ffffffffffffffffffffffffffffffffffffffff1673ffffffffffffffffffffffffffffffffffffffff163373ffffffffffffffffffffffffffffffffffffffff1614612058576040517f08c379a000000000000000000000000000000000000000000000000000000000815260040161204f90615830565b60405180910390fd5b60006004811115612092577f4e487b7100000000000000000000000000000000000000000000000000000000600052602160045260246000fd5b600f60009054906101000a900460ff1660048111156120da577f4e487b7100000000000000000000000000000000000000000000000000000000600052602160045260246000fd5b1461211a576040517f08c379a000000000000000000000000000000000000000000000000000000000815260040161211190615810565b60405180910390fd5b600c60039054906101000a900460ff16612169576040517f08c379a000000000000000000000000000000000000000000000000000000000815260040161216090615970565b60405180910390fd5b600c60009054906101000a900460ff166121b8576040517f08c379a00000000000000000000000000000000000000000000000000000000081526004016121af90615a50565b60405180910390fd5b60006016600b546121c99190615fe7565b9050600060088281548110612207577f4e487b7100000000000000000000000000000000000000000000000000000000600052603260045260246000fd5b906000526020600020015490506000600160336103e8600b5461222a9190615fe7565b6305f5e100600b5461223c9190615fe7565b6122469190615ce7565b6122509190615fe7565b61225a9190615c91565b905060005b601181101561232657600060348383866122799190615d18565b6122839190615c91565b61228d9190615fe7565b90506007600682815481106122cb577f4e487b7100000000000000000000000000000000000000000000000000000000600052603260045260246000fd5b906000526020600020019080600181540180825580915050600190039060005260206000200160009091909190915090805461230690615f42565b612311929190613f40565b5050808061231e90615f74565b91505061225f565b50600d54600260009054906101000a900473ffffffffffffffffffffffffffffffffffffffff1673ffffffffffffffffffffffffffffffffffffffff16427f5728d5dbdf49f376445f6797d12cdb3a0cf81a5e9b0847d1846082ca38d1cf15600460076040516123979291906156a1565b60405180910390a46001600c60026101000a81548160ff021916908315150217905550505050565b600c60029054906101000a900460ff1681565b601360009054906101000a900473ffffffffffffffffffffffffffffffffffffffff1681565b600360009054906101000a900473ffffffffffffffffffffffffffffffffffffffff1681565b60055481565b600160009054906101000a900473ffffffffffffffffffffffffffffffffffffffff1673ffffffffffffffffffffffffffffffffffffffff163373ffffffffffffffffffffffffffffffffffffffff16146124b4576040517f08c379a00000000000000000000000000000000000000000000000000000000081526004016124ab90615830565b60405180910390fd5b6004808111156124ed577f4e487b7100000000000000000000000000000000000000000000000000000000600052602160045260246000fd5b600f60009054906101000a900460ff166004811115612535577f4e487b7100000000000000000000000000000000000000000000000000000000600052602160045260246000fd5b14612575576040517f08c379a000000000000000000000000000000000000000000000000000000000815260040161256c90615930565b60405180910390fd5b80600e908051906020019061258b929190613fcd565b50600d54600260009054906101000a900473ffffffffffffffffffffffffffffffffffffffff1673ffffffffffffffffffffffffffffffffffffffff16427f7c189d2121d58db3ee1827852fb130b61c25fbd6396ca69ded0c18c561d1400b6005856040516125fb9291906156d1565b60405180910390a46001600c60046101000a81548160ff02191690831515021790555050565b612629614053565b600160009054906101000a900473ffffffffffffffffffffffffffffffffffffffff1673ffffffffffffffffffffffffffffffffffffffff163373ffffffffffffffffffffffffffffffffffffffff16146126b9576040517f08c379a00000000000000000000000000000000000000000000000000000000081526004016126b090615830565b60405180910390fd5b600060048111156126f3577f4e487b7100000000000000000000000000000000000000000000000000000000600052602160045260246000fd5b600f60009054906101000a900460ff16600481111561273b577f4e487b7100000000000000000000000000000000000000000000000000000000600052602160045260246000fd5b1461277b576040517f08c379a000000000000000000000000000000000000000000000000000000000815260040161277290615810565b60405180910390fd5b600c60029054906101000a900460ff166127ca576040517f08c379a00000000000000000000000000000000000000000000000000000000081526004016127c190615850565b60405180910390fd5b60068383905014612810576040517f08c379a000000000000000000000000000000000000000000000000000000000815260040161280790615a90565b60405180910390fd5b6000806001905060005b6006811015612c6157600073ffffffffffffffffffffffffffffffffffffffff16868683818110612874577f4e487b7100000000000000000000000000000000000000000000000000000000600052603260045260246000fd5b90506020028101906128869190615b44565b600001602081019061289891906143d0565b73ffffffffffffffffffffffffffffffffffffffff1614156128ef576040517f08c379a00000000000000000000000000000000000000000000000000000000081526004016128e690615790565b60405180910390fd5b60106040518060600160405280888885818110612935577f4e487b7100000000000000000000000000000000000000000000000000000000600052603260045260246000fd5b90506020028101906129479190615b44565b600001602081019061295991906143d0565b73ffffffffffffffffffffffffffffffffffffffff1681526020018888858181106129ad577f4e487b7100000000000000000000000000000000000000000000000000000000600052603260045260246000fd5b90506020028101906129bf9190615b44565b80602001906129ce9190615aed565b8080601f016020809104026020016040519081016040528093929190818152602001838380828437600081840152601f19601f820116905080830192505050505050508152602001888885818110612a4f577f4e487b7100000000000000000000000000000000000000000000000000000000600052603260045260246000fd5b9050602002810190612a619190615b44565b6040016020810190612a7391906144a8565b1515815250908060018154018082558091505060019003906000526020600020906003020160009091909190915060008201518160000160006101000a81548173ffffffffffffffffffffffffffffffffffffffff021916908373ffffffffffffffffffffffffffffffffffffffff1602179055506020820151816001019080519060200190612b04929190613fcd565b5060408201518160020160006101000a81548160ff0219169083151502179055505050858582818110612b60577f4e487b7100000000000000000000000000000000000000000000000000000000600052603260045260246000fd5b9050602002810190612b729190615b44565b6040016020810190612b8491906144a8565b612c4e578280612b9390615fbd565b9350508115612c4d5760108181548110612bd6577f4e487b7100000000000000000000000000000000000000000000000000000000600052603260045260246000fd5b906000526020600020906003020160000160009054906101000a900473ffffffffffffffffffffffffffffffffffffffff16600360006101000a81548173ffffffffffffffffffffffffffffffffffffffff021916908373ffffffffffffffffffffffffffffffffffffffff160217905550600091505b5b8080612c5990615f74565b91505061281a565b5081600960006101000a81548160ff021916908360ff1602179055506001600f60006101000a81548160ff02191690836004811115612cc9577f4e487b7100000000000000000000000000000000000000000000000000000000600052602160045260246000fd5b02179055506010600081548110612d09577f4e487b7100000000000000000000000000000000000000000000000000000000600052603260045260246000fd5b90600052602060002090600302016040518060600160405290816000820160009054906101000a900473ffffffffffffffffffffffffffffffffffffffff1673ffffffffffffffffffffffffffffffffffffffff1673ffffffffffffffffffffffffffffffffffffffff168152602001600182018054612d8890615f42565b80601f0160208091040260200160405190810160405280929190818152602001828054612db490615f42565b8015612e015780601f10612dd657610100808354040283529160200191612e01565b820191906000526020600020905b815481529060010190602001808311612de457829003601f168201915b505050505081526020016002820160009054906101000a900460ff1615151515815250509250505092915050565b600160009054906101000a900473ffffffffffffffffffffffffffffffffffffffff1673ffffffffffffffffffffffffffffffffffffffff163373ffffffffffffffffffffffffffffffffffffffff1614612ebf576040517f08c379a0000000000000000000000000000000000000000000000000000000008152600401612eb690615830565b60405180910390fd5b60006004811115612ef9577f4e487b7100000000000000000000000000000000000000000000000000000000600052602160045260246000fd5b600f60009054906101000a900460ff166004811115612f41577f4e487b7100000000000000000000000000000000000000000000000000000000600052602160045260246000fd5b14612f81576040517f08c379a0000000000000000000000000000000000000000000000000000000008152600401612f7890615990565b60405180910390fd5b8060069080519060200190612f9792919061408c565b506001600c60036101000a81548160ff02191690831515021790555050565b600360009054906101000a900473ffffffffffffffffffffffffffffffffffffffff1673ffffffffffffffffffffffffffffffffffffffff163373ffffffffffffffffffffffffffffffffffffffff1614613046576040517f08c379a000000000000000000000000000000000000000000000000000000000815260040161303d906159d0565b60405180910390fd5b60006004811115613080577f4e487b7100000000000000000000000000000000000000000000000000000000600052602160045260246000fd5b600f60009054906101000a900460ff1660048111156130c8577f4e487b7100000000000000000000000000000000000000000000000000000000600052602160045260246000fd5b1415613109576040517f08c379a0000000000000000000000000000000000000000000000000000000008152600401613100906158d0565b60405180910390fd5b600480811115613142577f4e487b7100000000000000000000000000000000000000000000000000000000600052602160045260246000fd5b600f60009054906101000a900460ff16600481111561318a577f4e487b7100000000000000000000000000000000000000000000000000000000600052602160045260246000fd5b14156131cb576040517f08c379a00000000000000000000000000000000000000000000000000000000081526004016131c290615890565b60405180910390fd5b60005b60068110156133b2573373ffffffffffffffffffffffffffffffffffffffff1660108281548110613228577f4e487b7100000000000000000000000000000000000000000000000000000000600052603260045260246000fd5b906000526020600020906003020160000160009054906101000a900473ffffffffffffffffffffffffffffffffffffffff1673ffffffffffffffffffffffffffffffffffffffff16141561339f57600d54600260009054906101000a900473ffffffffffffffffffffffffffffffffffffffff1673ffffffffffffffffffffffffffffffffffffffff16427f6ea5374b0088556f804d142e3ce73751aaffdea551cec3533cbde664877653dd6001336040516132e59291906155cd565b60405180910390a46009600081819054906101000a900460ff168092919061330c90615f18565b91906101000a81548160ff021916908360ff1602179055505061332d6135c3565b613335613b55565b600160108281548110613371577f4e487b7100000000000000000000000000000000000000000000000000000000600052603260045260246000fd5b906000526020600020906003020160020160006101000a81548160ff021916908315150217905550506133f5565b80806133aa90615f74565b9150506131ce565b5060006133f4576040517f08c379a00000000000000000000000000000000000000000000000000000000081526004016133eb90615a10565b60405180910390fd5b5b565b7f000000000000000000000000000000000000000000000000000000000000000073ffffffffffffffffffffffffffffffffffffffff163373ffffffffffffffffffffffffffffffffffffffff1614613485576040517f08c379a000000000000000000000000000000000000000000000000000000000815260040161347c906157d0565b60405180910390fd5b600c60019054906101000a900460ff166134d4576040517f08c379a00000000000000000000000000000000000000000000000000000000081526004016134cb90615a30565b60405180910390fd5b81818101906134e391906145e7565b600b819055506001600c60006101000a81548160ff0219169083151502179055506000600c60016101000a81548160ff021916908315150217905550600d54600260009054906101000a900473ffffffffffffffffffffffffffffffffffffffff1673ffffffffffffffffffffffffffffffffffffffff16427ff5a7022e11fc12ac82d152e06534b7588a4985f701470d0d63808586d45197ba6007600b5460405161359092919061572a565b60405180910390a4505050565b600160009054906101000a900473ffffffffffffffffffffffffffffffffffffffff1681565b6001600960009054906101000a900460ff1660ff161415613681576004600f60006101000a81548160ff0219169083600481111561362a577f4e487b7100000000000000000000000000000000000000000000000000000000600052602160045260246000fd5b0217905550600d54427f3061055938df57c2e32beb77438bbac9595a4cd967c3f0889b7de7bcae0983eb6006600f60009054906101000a900460ff16604051613674929190615701565b60405180910390a3613b53565b6000600590505b60008160ff16106137d05760108160ff16815481106136d0577f4e487b7100000000000000000000000000000000000000000000000000000000600052603260045260246000fd5b906000526020600020906003020160020160009054906101000a900460ff166137bd57600360009054906101000a900473ffffffffffffffffffffffffffffffffffffffff1673ffffffffffffffffffffffffffffffffffffffff1660108260ff1681548110613769577f4e487b7100000000000000000000000000000000000000000000000000000000600052603260045260246000fd5b906000526020600020906003020160000160009054906101000a900473ffffffffffffffffffffffffffffffffffffffff1673ffffffffffffffffffffffffffffffffffffffff16146137bc5750613b53565b5b80806137c890615f18565b915050613688565b506001600481111561380b577f4e487b7100000000000000000000000000000000000000000000000000000000600052602160045260246000fd5b600f60009054906101000a900460ff166004811115613853577f4e487b7100000000000000000000000000000000000000000000000000000000600052602160045260246000fd5b14156138fc576002600f60006101000a81548160ff021916908360048111156138a5577f4e487b7100000000000000000000000000000000000000000000000000000000600052602160045260246000fd5b0217905550600d54427f3061055938df57c2e32beb77438bbac9595a4cd967c3f0889b7de7bcae0983eb6006600f60009054906101000a900460ff166040516138ef929190615701565b60405180910390a3613b53565b60026004811115613936577f4e487b7100000000000000000000000000000000000000000000000000000000600052602160045260246000fd5b600f60009054906101000a900460ff16600481111561397e577f4e487b7100000000000000000000000000000000000000000000000000000000600052602160045260246000fd5b1415613a27576003600f60006101000a81548160ff021916908360048111156139d0577f4e487b7100000000000000000000000000000000000000000000000000000000600052602160045260246000fd5b0217905550600d54427f3061055938df57c2e32beb77438bbac9595a4cd967c3f0889b7de7bcae0983eb6006600f60009054906101000a900460ff16604051613a1a929190615701565b60405180910390a3613b53565b60036004811115613a61577f4e487b7100000000000000000000000000000000000000000000000000000000600052602160045260246000fd5b600f60009054906101000a900460ff166004811115613aa9577f4e487b7100000000000000000000000000000000000000000000000000000000600052602160045260246000fd5b1415613b52576004600f60006101000a81548160ff02191690836004811115613afb577f4e487b7100000000000000000000000000000000000000000000000000000000600052602160045260246000fd5b0217905550600d54427f3061055938df57c2e32beb77438bbac9595a4cd967c3f0889b7de7bcae0983eb6006600f60009054906101000a900460ff16604051613b45929190615701565b60405180910390a3613b53565b5b565b600073ffffffffffffffffffffffffffffffffffffffff16600360009054906101000a900473ffffffffffffffffffffffffffffffffffffffff1673ffffffffffffffffffffffffffffffffffffffff161415613be7576040517f08c379a0000000000000000000000000000000000000000000000000000000008152600401613bde90615a70565b60405180910390fd5b6000600360009054906101000a900473ffffffffffffffffffffffffffffffffffffffff1690506000806000905060005b6006811015613d435760108181548110613c5b577f4e487b7100000000000000000000000000000000000000000000000000000000600052603260045260246000fd5b906000526020600020906003020160020160009054906101000a900460ff16613c8d578180613c8990615f74565b9250505b8373ffffffffffffffffffffffffffffffffffffffff1660108281548110613cde577f4e487b7100000000000000000000000000000000000000000000000000000000600052603260045260246000fd5b906000526020600020906003020160000160009054906101000a900473ffffffffffffffffffffffffffffffffffffffff1673ffffffffffffffffffffffffffffffffffffffff161415613d30578092505b8080613d3b90615f74565b915050613c18565b506000600360009054906101000a900473ffffffffffffffffffffffffffffffffffffffff1690505b600360009054906101000a900473ffffffffffffffffffffffffffffffffffffffff1673ffffffffffffffffffffffffffffffffffffffff168173ffffffffffffffffffffffffffffffffffffffff161415613ed55760106006600185613dd39190615c91565b613ddd9190615fe7565b81548110613e14577f4e487b7100000000000000000000000000000000000000000000000000000000600052603260045260246000fd5b906000526020600020906003020160020160009054906101000a900460ff16613ec25760106006600185613e489190615c91565b613e529190615fe7565b81548110613e89577f4e487b7100000000000000000000000000000000000000000000000000000000600052603260045260246000fd5b906000526020600020906003020160000160009054906101000a900473ffffffffffffffffffffffffffffffffffffffff169050613ed5565b8280613ecd90615f74565b935050613d6c565b80600360006101000a81548173ffffffffffffffffffffffffffffffffffffffff021916908373ffffffffffffffffffffffffffffffffffffffff16021790555050505050565b5080546000825560030290600052602060002090810190613f3d91906140ec565b50565b828054613f4c90615f42565b90600052602060002090601f016020900481019282613f6e5760008555613fbc565b82601f10613f7f5780548555613fbc565b82800160010185558215613fbc57600052602060002091601f016020900482015b82811115613fbb578254825591600101919060010190613fa0565b5b509050613fc9919061414e565b5090565b828054613fd990615f42565b90600052602060002090601f016020900481019282613ffb5760008555614042565b82601f1061401457805160ff1916838001178555614042565b82800160010185558215614042579182015b82811115614041578251825591602001919060010190614026565b5b50905061404f919061414e565b5090565b6040518060600160405280600073ffffffffffffffffffffffffffffffffffffffff168152602001606081526020016000151581525090565b8280548282559060005260206000209081019282156140db579160200282015b828111156140da5782518290805190602001906140ca929190613fcd565b50916020019190600101906140ac565b5b5090506140e8919061416b565b5090565b5b8082111561414a57600080820160006101000a81549073ffffffffffffffffffffffffffffffffffffffff021916905560018201600061412d919061418f565b6002820160006101000a81549060ff0219169055506003016140ed565b5090565b5b8082111561416757600081600090555060010161414f565b5090565b5b8082111561418b5760008181614182919061418f565b5060010161416c565b5090565b50805461419b90615f42565b6000825580601f106141ad57506141cc565b601f0160209004906000526020600020908101906141cb919061414e565b5b50565b60006141e26141dd84615b99565b615b68565b9050808382526020820190508260005b8581101561422257813585016142088882614391565b8452602084019350602083019250506001810190506141f2565b5050509392505050565b600061423f61423a84615bc5565b615b68565b90508281526020810184848401111561425757600080fd5b614262848285615ed6565b509392505050565b60008135905061427981616128565b92915050565b60008135905061428e8161613f565b92915050565b600082601f8301126142a557600080fd5b81356142b58482602086016141cf565b91505092915050565b60008083601f8401126142d057600080fd5b8235905067ffffffffffffffff8111156142e957600080fd5b60208301915083602082028301111561430157600080fd5b9250929050565b60008135905061431781616156565b92915050565b60008135905061432c8161616d565b92915050565b6000815190506143418161616d565b92915050565b60008083601f84011261435957600080fd5b8235905067ffffffffffffffff81111561437257600080fd5b60208301915083600182028301111561438a57600080fd5b9250929050565b600082601f8301126143a257600080fd5b81356143b284826020860161422c565b91505092915050565b6000813590506143ca81616184565b92915050565b6000602082840312156143e257600080fd5b60006143f08482850161426a565b91505092915050565b60006020828403121561440b57600080fd5b60006144198482850161427f565b91505092915050565b60006020828403121561443457600080fd5b600082013567ffffffffffffffff81111561444e57600080fd5b61445a84828501614294565b91505092915050565b6000806020838503121561447657600080fd5b600083013567ffffffffffffffff81111561449057600080fd5b61449c858286016142be565b92509250509250929050565b6000602082840312156144ba57600080fd5b60006144c884828501614308565b91505092915050565b6000602082840312156144e357600080fd5b60006144f184828501614332565b91505092915050565b60008060006040848603121561450f57600080fd5b600061451d8682870161431d565b935050602084013567ffffffffffffffff81111561453a57600080fd5b61454686828701614347565b92509250509250925092565b60006020828403121561456457600080fd5b600082013567ffffffffffffffff81111561457e57600080fd5b61458a84828501614391565b91505092915050565b600080604083850312156145a657600080fd5b600083013567ffffffffffffffff8111156145c057600080fd5b6145cc85828601614391565b92505060206145dd8582860161426a565b9150509250929050565b6000602082840312156145f957600080fd5b6000614607848285016143bb565b91505092915050565b600061461c83836147eb565b905092915050565b61462d81615d72565b82525050565b61463c81615d72565b82525050565b600061464d82615c1f565b6146578185615c42565b93508360208202850161466985615bf5565b8060005b858110156146a4578484038952816146858582614610565b945061469083615c35565b925060208a0199505060018101905061466d565b50829750879550505050505092915050565b6146bf81615d96565b82525050565b6146ce81615d96565b82525050565b6146dd81615da2565b82525050565b6146ec81615dac565b82525050565b6146fb81615e22565b82525050565b61470a81615e46565b82525050565b61471981615e58565b82525050565b61472881615e6a565b82525050565b61473781615e7c565b82525050565b61474681615e8e565b82525050565b61475581615ea0565b82525050565b61476481615eb2565b82525050565b61477381615ec4565b82525050565b600061478482615c2a565b61478e8185615c6f565b935061479e818560208601615ee5565b6147a781616103565b840191505092915050565b60006147bd82615c2a565b6147c78185615c80565b93506147d7818560208601615ee5565b6147e081616103565b840191505092915050565b600081546147f881615f42565b6148028186615c6f565b9450600182166000811461481d576001811461482f57614862565b60ff1983168652602086019350614862565b61483885615c0a565b60005b8381101561485a5781548189015260018201915060208101905061483b565b808801955050505b50505092915050565b6000614878600f83615c80565b91507f496e76616c6964206164647265737300000000000000000000000000000000006000830152602082019050919050565b60006148b8604883615c80565b91507f7b2273746174757322203a203530302c20226d65737361676522203a2022536f60008301527f6d657468696e672077656e7420766572792077726f6e67203a2073656e64696e60208301527f6746756e6473227d0000000000000000000000000000000000000000000000006040830152606082019050919050565b6000614944601683615c80565b91507f43616c6c6572206e6f74204169726e6f646520525250000000000000000000006000830152602082019050919050565b6000614984601383615c80565b91507f5573657220666f6c64732068696d73656c662e000000000000000000000000006000830152602082019050919050565b60006149c4603e83615c80565b91507f7b22737461747573436f6465223a203430322c20226d657373616765223a202260008301527f546865207265717565737420697320616c6c7265616479206d6164652e2200006020830152604082019050919050565b6000614a2a603b83615c80565b91507f7b22737461747573436f6465223a203430312c20226d657373616765223a202260008301527f67616d65206e6f7420696e2072657374696e672073746174652e2200000000006020830152604082019050919050565b6000614a90602d83615c80565b91507f7b22737461747573436f6465223a203430312c20226d657373616765223a202260008301527f756e617574686f726973656422000000000000000000000000000000000000006020830152604082019050919050565b6000614af6603783615c80565b91507f7b22737461747573436f6465223a203430312c20226d657373616765223a202260008301527f4465636b206e6f742063726561746564207965742e227d0000000000000000006020830152604082019050919050565b6000614b5c603783615c80565b91507f7b22737461747573436f6465223a203430302c20226d657373616765223a202260008301527f47616d6520686173656e7420656e646564207965742e220000000000000000006020830152604082019050919050565b6000614bc2603583615c80565b91507f7b22737461747573436f6465223a203130302c20226d657373616765223a202260008301527f67616d6520616c6c726561647920656e646564227d00000000000000000000006020830152604082019050919050565b6000614c28604f83615c80565b91507f7b22737461747573436f6465223a203430332c20226d657373616765223a202260008301527f75706461746564206265742063616e74206265206c657373207468616e20746860208301527f652070726576696f7573206f6e652200000000000000000000000000000000006040830152606082019050919050565b6000614cb4604a83615c80565b91507f7b22737461747573436f6465223a203930302c20226d657373616765223a202260008301527f67616d6d65206e6f742073746172746564207965743a20696e2052455354494e60208301527f472070686173652e227d000000000000000000000000000000000000000000006040830152606082019050919050565b6000614d40603b83615c80565b91507f7b22737461747573436f6465223a203432322c20226d657373616765223a202260008301527f6d6573736167652056616c756520696e73756666696369656e742200000000006020830152604082019050919050565b6000614da6603783615c80565b91507f7b226572726f72436f646522203a203430342c20226d65737361676522203a2060008301527f226e6f207375636820757365722065786973747322207d0000000000000000006020830152604082019050919050565b6000614e0c603683615c80565b91507f7b22737461747573436f6465223a203130302c20226d657373616765223a202260008301527f67616d6520686173207420656e64656420796574227d000000000000000000006020830152604082019050919050565b6000614e72606f83615c80565b91507f7b22737461747573436f6465223a203430332c20226d657373616765223a202260008301527f74686973206973206120636f6e74726f6c6c656420726573652067616d65206360208301527f616e74207261697365206d6f7265207468616e2074686120646f75626c65206f60408301527f662063757272656e74206265742e2200000000000000000000000000000000006060830152608082019050919050565b6000614f24603f83615c80565b91507f7b22737461747573436f6465223a20393030312c20226d657373616765223a2060008301527f22726f6f74206465636b206e6f74207075626c6973686564207965742e227d006020830152604082019050919050565b6000614f8a600083615c53565b9150600082019050919050565b6000614fa4600083615c64565b9150600082019050919050565b6000614fbe606683615c80565b91507f7b22737461747573436f6465223a203930302c20226d657373616765223a202260008301527f67616d65206e6f7420696e2052455354494e472070686173652c20726571756960208301527f72656420746f20626520696e2072657374696e6720666f72206465636b20757060408301527f6c6f6164227d00000000000000000000000000000000000000000000000000006060830152608082019050919050565b6000615070603a83615c80565b91507f7b2273746174757322203a203530302c20226d65737361676522203a2022466160008301527f74656c4572726f723a206261636b446f6f722066696c6564227d0000000000006020830152604082019050919050565b60006150d6602f83615c80565b91507f7b22737461747573436f6465223a203430312c20226d657373616765223a202260008301527f4e6f7420796f7572207475726e227d00000000000000000000000000000000006020830152604082019050919050565b600061513c604383615c80565b91507f7b22737461747573436f6465223a203930302c20226d657373616765223a202260008301527f50726976617465206b657920686173656e74206265656e20646973636f6c736560208301527f642e2200000000000000000000000000000000000000000000000000000000006040830152606082019050919050565b60006151c8604d83615c80565b91507f7b22737461747573436f6465223a203530302c20226d657373616765223a202260008301527f536f6d657468696e672057656e7420566572792057726f6e67203a20666f6c6460208301527f696e6720627920757365722e22000000000000000000000000000000000000006040830152606082019050919050565b6000615254601283615c80565b91507f72657175657374206e6f7420666f756e642e00000000000000000000000000006000830152602082019050919050565b6000615294603d83615c80565b91507f7b22737461747573436f6465223a203430312c20226d657373616765223a202260008301527f72616e646f6d6e756d626572206e6f742067656e6572617465642e227d0000006020830152604082019050919050565b60006152fa603683615c80565b91507f7b22737461747573436f6465223a203430302c20226d657373616765223a202260008301527f6465616c6572206973206e6f74207365742079657422000000000000000000006020830152604082019050919050565b6000615360603783615c80565b91507f7b22737461747573436f6465223a203432322c20226d657373616765223a202260008301527f696e76616c6964207573657220616464726573732e227d0000000000000000006020830152604082019050919050565b60006060830160008301516153d16000860182614624565b50602083015184820360208601526153e98282614779565b91505060408301516153fe60408601826146b6565b508091505092915050565b61541281615e0b565b82525050565b600061542382614f97565b9150819050919050565b60006020820190506154426000830184614633565b92915050565b600060408201905061545d6000830185614633565b61546a6020830184614633565b9392505050565b600060e0820190506154866000830189614633565b61549360208301886146d4565b6154a06040830187614633565b6154ad6060830186614633565b6154ba6080830185614633565b6154c760a08301846146e3565b81810360c08301526154d881614f7d565b9050979650505050505050565b60006060820190506154fa6000830186614633565b818103602083015261550c81856147b2565b905061551b60408301846146c5565b949350505050565b600060208201905061553860008301846146c5565b92915050565b600060208201905061555360008301846146d4565b92915050565b600060208201905061556e60008301846146f2565b92915050565b60006020820190506155896000830184614701565b92915050565b60006060820190506155a46000830186614710565b6155b16020830185614633565b81810360408301526155c381846147b2565b9050949350505050565b60006060820190506155e26000830185614710565b6155ef6020830184614633565b818103604083015261560081614977565b90509392505050565b600060808201905061561e600083018761471f565b61562b6020830186614633565b6156386040830185615409565b6156456060830184614633565b95945050505050565b600060a082019050615663600083018861471f565b6156706020830187614633565b61567d6040830186615409565b61568a6060830185615409565b6156976080830184614633565b9695505050505050565b60006040820190506156b6600083018561472e565b81810360208301526156c88184614642565b90509392505050565b60006040820190506156e6600083018561473d565b81810360208301526156f881846147b2565b90509392505050565b6000604082019050615716600083018561474c565b6157236020830184614701565b9392505050565b600060408201905061573f600083018561475b565b61574c6020830184615409565b9392505050565b6000602082019050615768600083018461476a565b92915050565b6000602082019050818103600083015261578881846147b2565b905092915050565b600060208201905081810360008301526157a98161486b565b9050919050565b600060208201905081810360008301526157c9816148ab565b9050919050565b600060208201905081810360008301526157e981614937565b9050919050565b60006020820190508181036000830152615809816149b7565b9050919050565b6000602082019050818103600083015261582981614a1d565b9050919050565b6000602082019050818103600083015261584981614a83565b9050919050565b6000602082019050818103600083015261586981614ae9565b9050919050565b6000602082019050818103600083015261588981614b4f565b9050919050565b600060208201905081810360008301526158a981614bb5565b9050919050565b600060208201905081810360008301526158c981614c1b565b9050919050565b600060208201905081810360008301526158e981614ca7565b9050919050565b6000602082019050818103600083015261590981614d33565b9050919050565b6000602082019050818103600083015261592981614d99565b9050919050565b6000602082019050818103600083015261594981614dff565b9050919050565b6000602082019050818103600083015261596981614e65565b9050919050565b6000602082019050818103600083015261598981614f17565b9050919050565b600060208201905081810360008301526159a981614fb1565b9050919050565b600060208201905081810360008301526159c981615063565b9050919050565b600060208201905081810360008301526159e9816150c9565b9050919050565b60006020820190508181036000830152615a098161512f565b9050919050565b60006020820190508181036000830152615a29816151bb565b9050919050565b60006020820190508181036000830152615a4981615247565b9050919050565b60006020820190508181036000830152615a6981615287565b9050919050565b60006020820190508181036000830152615a89816152ed565b9050919050565b60006020820190508181036000830152615aa981615353565b9050919050565b60006020820190508181036000830152615aca81846153b9565b905092915050565b6000602082019050615ae76000830184615409565b92915050565b60008083356001602003843603038112615b0657600080fd5b80840192508235915067ffffffffffffffff821115615b2457600080fd5b602083019250600182023603831315615b3c57600080fd5b509250929050565b600082356001606003833603038112615b5c57600080fd5b80830191505092915050565b6000604051905081810181811067ffffffffffffffff82111715615b8f57615b8e6160d4565b5b8060405250919050565b600067ffffffffffffffff821115615bb457615bb36160d4565b5b602082029050602081019050919050565b600067ffffffffffffffff821115615be057615bdf6160d4565b5b601f19601f8301169050602081019050919050565b60008190508160005260206000209050919050565b60008190508160005260206000209050919050565b600081549050919050565b600081519050919050565b6000600182019050919050565b600082825260208201905092915050565b600082825260208201905092915050565b600081905092915050565b600082825260208201905092915050565b600082825260208201905092915050565b6000615c9c82615e0b565b9150615ca783615e0b565b9250827fffffffffffffffffffffffffffffffffffffffffffffffffffffffffffffffff03821115615cdc57615cdb616018565b5b828201905092915050565b6000615cf282615e0b565b9150615cfd83615e0b565b925082615d0d57615d0c616047565b5b828204905092915050565b6000615d2382615e0b565b9150615d2e83615e0b565b9250817fffffffffffffffffffffffffffffffffffffffffffffffffffffffffffffffff0483118215151615615d6757615d66616018565b5b828202905092915050565b6000615d7d82615deb565b9050919050565b6000615d8f82615deb565b9050919050565b60008115159050919050565b6000819050919050565b60007fffffffff0000000000000000000000000000000000000000000000000000000082169050919050565b6000819050615de682616114565b919050565b600073ffffffffffffffffffffffffffffffffffffffff82169050919050565b6000819050919050565b600060ff82169050919050565b6000615e2d82615e34565b9050919050565b6000615e3f82615deb565b9050919050565b6000615e5182615dd8565b9050919050565b6000615e6382615e15565b9050919050565b6000615e7582615e15565b9050919050565b6000615e8782615e15565b9050919050565b6000615e9982615e15565b9050919050565b6000615eab82615e15565b9050919050565b6000615ebd82615e15565b9050919050565b6000615ecf82615e15565b9050919050565b82818337600083830152505050565b60005b83811015615f03578082015181840152602081019050615ee8565b83811115615f12576000848401525b50505050565b6000615f2382615e15565b91506000821415615f3757615f36616018565b5b600182039050919050565b60006002820490506001821680615f5a57607f821691505b60208210811415615f6e57615f6d6160a5565b5b50919050565b6000615f7f82615e0b565b91507fffffffffffffffffffffffffffffffffffffffffffffffffffffffffffffffff821415615fb257615fb1616018565b5b600182019050919050565b6000615fc882615e15565b915060ff821415615fdc57615fdb616018565b5b600182019050919050565b6000615ff282615e0b565b9150615ffd83615e0b565b92508261600d5761600c616047565b5b828206905092915050565b7f4e487b7100000000000000000000000000000000000000000000000000000000600052601160045260246000fd5b7f4e487b7100000000000000000000000000000000000000000000000000000000600052601260045260246000fd5b7f4e487b7100000000000000000000000000000000000000000000000000000000600052602160045260246000fd5b7f4e487b7100000000000000000000000000000000000000000000000000000000600052602260045260246000fd5b7f4e487b7100000000000000000000000000000000000000000000000000000000600052604160045260246000fd5b6000601f19601f8301169050919050565b6005811061612557616124616076565b5b50565b61613181615d72565b811461613c57600080fd5b50565b61614881615d84565b811461615357600080fd5b50565b61615f81615d96565b811461616a57600080fd5b50565b61617681615da2565b811461618157600080fd5b50565b61618d81615e0b565b811461619857600080fd5b5056fe7b2273746174757322203a203530302c20226d65737361676522203a2022536f6d657468696e672077656e7420766572792077726f6e67203a20666f6c64696e674155736572227d7b2273746174757322203a203230302c20226d65737361676522203a20227573657220666f6c646564227da2646970667358221220ece637eea77865729708dc6ee7fcf5b246c34f983a478b8f7d34ff1800a059de64736f6c63430008000033a2646970667358221220a8c1c4da86bebc447a014485bcaea34331f4e660701ee636e95024363c7e6d2e64736f6c63430008000033",
  "linkReferences": {},
  "deployedLinkReferences": {}
}