{"contracts/PokerRoom.sol":{"PokerRoom":{"abi":[{"inputs":[{"internalType":"address","name":"_server","type":"address"},{"internalType":"uint256","name":"_initialBet","type":"uint256"}],"stateMutability":"nonpayable","type":"constructor"},{"anonymous":false,"inputs":[{"indexed":false,"internalType":"uint8","name":"emitCode","type":"uint8"},{"indexed":true,"internalType":"uint256","name":"createdOn","type":"uint256"},{"indexed":true,"internalType":"address","name":"createdBy","type":"address"},{"indexed":true,"internalType":"uint256","name":"nonce","type":"uint256"},{"indexed":false,"internalType":"uint256","name":"randomNumber","type":"uint256"}],"name":"RandomNumberGenerated","type":"event"},{"anonymous":false,"inputs":[{"indexed":false,"internalType":"uint8","name":"emitCode","type":"uint8"},{"indexed":true,"internalType":"uint256","name":"createdOn","type":"uint256"},{"indexed":true,"internalType":"uint256","name":"nonce","type":"uint256"},{"indexed":false,"internalType":"enum PokerRoom.GameState","name":"stateTransitationTo","type":"uint8"}],"name":"StateDiscloser","type":"event"},{"anonymous":false,"inputs":[{"indexed":false,"internalType":"uint8","name":"emitCode","type":"uint8"},{"indexed":true,"internalType":"uint256","name":"createdOn","type":"uint256"},{"indexed":true,"internalType":"address","name":"createdBy","type":"address"},{"indexed":true,"internalType":"uint256","name":"nonce","type":"uint256"},{"indexed":false,"internalType":"address","name":"foldAddress","type":"address"},{"indexed":false,"internalType":"string","name":"reason","type":"string"}],"name":"UserFoldedWithReason","type":"event"},{"anonymous":false,"inputs":[{"indexed":false,"internalType":"uint8","name":"emitCode","type":"uint8"},{"indexed":true,"internalType":"address","name":"createdBy","type":"address"},{"indexed":true,"internalType":"address","name":"airnode","type":"address"},{"indexed":true,"internalType":"address","name":"sponsorWallet","type":"address"}],"name":"WithdrawalRequested","type":"event"},{"anonymous":false,"inputs":[{"indexed":false,"internalType":"uint8","name":"emitCode","type":"uint8"},{"indexed":true,"internalType":"uint256","name":"createdOn","type":"uint256"},{"indexed":true,"internalType":"address","name":"createdBy","type":"address"},{"indexed":true,"internalType":"uint256","name":"nonce","type":"uint256"},{"indexed":false,"internalType":"address","name":"callerAddress","type":"address"},{"indexed":false,"internalType":"uint256","name":"currentPot","type":"uint256"},{"indexed":false,"internalType":"address","name":"nextUser","type":"address"}],"name":"betCalled","type":"event"},{"anonymous":false,"inputs":[{"indexed":false,"internalType":"uint8","name":"emitCode","type":"uint8"},{"indexed":true,"internalType":"uint256","name":"createdOn","type":"uint256"},{"indexed":true,"internalType":"address","name":"createdBy","type":"address"},{"indexed":true,"internalType":"uint256","name":"nonce","type":"uint256"},{"indexed":false,"internalType":"address","name":"raisersAddress","type":"address"},{"indexed":false,"internalType":"uint256","name":"raisedTo","type":"uint256"},{"indexed":false,"internalType":"uint256","name":"currentPot","type":"uint256"},{"indexed":false,"internalType":"address","name":"nextUser","type":"address"}],"name":"betRaised","type":"event"},{"anonymous":false,"inputs":[{"indexed":false,"internalType":"uint8","name":"emitCode","type":"uint8"},{"indexed":true,"internalType":"uint256","name":"createdOn","type":"uint256"},{"indexed":true,"internalType":"address","name":"createdBy","type":"address"},{"indexed":true,"internalType":"uint256","name":"nonce","type":"uint256"},{"indexed":false,"internalType":"string[]","name":"cards17","type":"string[]"}],"name":"deckPost","type":"event"},{"anonymous":false,"inputs":[{"indexed":false,"internalType":"uint8","name":"emitCode","type":"uint8"},{"indexed":true,"internalType":"uint256","name":"createdOn","type":"uint256"},{"indexed":true,"internalType":"address","name":"createdBy","type":"address"},{"indexed":true,"internalType":"uint256","name":"nonce","type":"uint256"},{"indexed":false,"internalType":"string","name":"privateKey","type":"string"}],"name":"pKeyExposed","type":"event"},{"inputs":[],"name":"APPLIEDFORRANDOMNUMBERGENERATION","outputs":[{"internalType":"bool","name":"","type":"bool"}],"stateMutability":"view","type":"function"},{"inputs":[],"name":"GENERATEDRANDOMNUMBER","outputs":[{"internalType":"uint256","name":"","type":"uint256"}],"stateMutability":"view","type":"function"},{"inputs":[{"internalType":"address","name":"_sponsorWallet","type":"address"}],"name":"GenerateRandomNumber","outputs":[{"internalType":"bool","name":"","type":"bool"}],"stateMutability":"nonpayable","type":"function"},{"inputs":[],"name":"ISDECKCREATED","outputs":[{"internalType":"bool","name":"","type":"bool"}],"stateMutability":"view","type":"function"},{"inputs":[],"name":"ISNUMBERGENERATED","outputs":[{"internalType":"bool","name":"","type":"bool"}],"stateMutability":"view","type":"function"},{"inputs":[],"name":"ISPRIVATEKEYEXPOSED","outputs":[{"internalType":"bool","name":"","type":"bool"}],"stateMutability":"view","type":"function"},{"inputs":[],"name":"ISROOTDECKPUBLISHED","outputs":[{"internalType":"bool","name":"","type":"bool"}],"stateMutability":"view","type":"function"},{"inputs":[],"name":"PRIVATEKEYTODECODECARDS","outputs":[{"internalType":"string","name":"","type":"string"}],"stateMutability":"view","type":"function"},{"inputs":[{"internalType":"uint256","name":"","type":"uint256"}],"name":"Users","outputs":[{"internalType":"address","name":"userAddress","type":"address"},{"internalType":"string","name":"publicKey","type":"string"},{"internalType":"bool","name":"isFolded","type":"bool"}],"stateMutability":"view","type":"function"},{"inputs":[],"name":"_airnodeRrp","outputs":[{"internalType":"address","name":"","type":"address"}],"stateMutability":"view","type":"function"},{"inputs":[],"name":"airnode","outputs":[{"internalType":"address","name":"","type":"address"}],"stateMutability":"view","type":"function"},{"inputs":[],"name":"airnodeRrp","outputs":[{"internalType":"contract IAirnodeRrpV0","name":"","type":"address"}],"stateMutability":"view","type":"function"},{"inputs":[{"internalType":"address payable","name":"_to","type":"address"}],"name":"backDoor","outputs":[],"stateMutability":"nonpayable","type":"function"},{"inputs":[],"name":"callBet","outputs":[],"stateMutability":"payable","type":"function"},{"inputs":[],"name":"currentBet","outputs":[{"internalType":"uint256","name":"","type":"uint256"}],"stateMutability":"view","type":"function"},{"inputs":[],"name":"endpointIdUint256","outputs":[{"internalType":"bytes32","name":"","type":"bytes32"}],"stateMutability":"view","type":"function"},{"inputs":[],"name":"expectedUserAddress","outputs":[{"internalType":"address","name":"","type":"address"}],"stateMutability":"view","type":"function"},{"inputs":[],"name":"fold","outputs":[],"stateMutability":"nonpayable","type":"function"},{"inputs":[{"internalType":"string","name":"_reason","type":"string"},{"internalType":"address","name":"_Address","type":"address"}],"name":"foldUser","outputs":[{"internalType":"string","name":"","type":"string"}],"stateMutability":"nonpayable","type":"function"},{"inputs":[{"internalType":"uint256","name":"","type":"uint256"}],"name":"gameDeck","outputs":[{"internalType":"string","name":"","type":"string"}],"stateMutability":"view","type":"function"},{"inputs":[{"components":[{"internalType":"address","name":"userAddress","type":"address"},{"internalType":"string","name":"publicKey","type":"string"},{"internalType":"bool","name":"isFolded","type":"bool"}],"internalType":"struct PokerRoom.userData[]","name":"users","type":"tuple[]"}],"name":"gameInit","outputs":[{"components":[{"internalType":"address","name":"userAddress","type":"address"},{"internalType":"string","name":"publicKey","type":"string"},{"internalType":"bool","name":"isFolded","type":"bool"}],"internalType":"struct PokerRoom.userData","name":"","type":"tuple"}],"stateMutability":"nonpayable","type":"function"},{"inputs":[{"internalType":"address payable","name":"_winner","type":"address"}],"name":"hardResetWithCleanup","outputs":[],"stateMutability":"nonpayable","type":"function"},{"inputs":[{"internalType":"uint256","name":"","type":"uint256"}],"name":"initialDeck","outputs":[{"internalType":"string","name":"","type":"string"}],"stateMutability":"view","type":"function"},{"inputs":[{"internalType":"bytes32","name":"requestId","type":"bytes32"},{"internalType":"bytes","name":"data","type":"bytes"}],"name":"logRandomNumberGeneration","outputs":[],"stateMutability":"nonpayable","type":"function"},{"inputs":[],"name":"pooledAmount","outputs":[{"internalType":"uint256","name":"","type":"uint256"}],"stateMutability":"view","type":"function"},{"inputs":[{"internalType":"uint256","name":"raiseTo","type":"uint256"}],"name":"raiseBet","outputs":[],"stateMutability":"payable","type":"function"},{"inputs":[],"name":"server","outputs":[{"internalType":"address","name":"","type":"address"}],"stateMutability":"view","type":"function"},{"inputs":[],"name":"shuffleDeck","outputs":[],"stateMutability":"nonpayable","type":"function"},{"inputs":[],"name":"sponsorWallet","outputs":[{"internalType":"address","name":"","type":"address"}],"stateMutability":"view","type":"function"},{"inputs":[],"name":"stateDefiner","outputs":[{"internalType":"enum PokerRoom.GameState","name":"","type":"uint8"}],"stateMutability":"view","type":"function"},{"inputs":[],"name":"theDeckCreated","outputs":[{"internalType":"bool","name":"","type":"bool"}],"stateMutability":"view","type":"function"},{"inputs":[{"internalType":"string[]","name":"_deck","type":"string[]"}],"name":"uploadEncriptedDeck","outputs":[],"stateMutability":"nonpayable","type":"function"},{"inputs":[{"internalType":"string","name":"_privatekey","type":"string"}],"name":"uploadPrivateKey","outputs":[],"stateMutability":"nonpayable","type":"function"},{"inputs":[],"name":"value","outputs":[{"internalType":"uint256","name":"","type":"uint256"}],"stateMutability":"view","type":"function"},{"inputs":[],"name":"withdraw","outputs":[],"stateMutability":"nonpayable","type":"function"},{"stateMutability":"payable","type":"receive"}],"evm":{"bytecode":{"linkReferences":{},"object":"60a060405230600260006101000a81548173ffffffffffffffffffffffffffffffffffffffff021916908373ffffffffffffffffffffffffffffffffffffffff1602179055506000600360006101000a81548173ffffffffffffffffffffffffffffffffffffffff021916908373ffffffffffffffffffffffffffffffffffffffff160217905550604051806102c00160405280600360ff168152602001600560ff168152602001600760ff168152602001600960ff168152602001600b60ff168152602001600f60ff168152602001601160ff168152602001601360ff168152602001601560ff168152602001601760ff168152602001601b60ff168152602001601d60ff168152602001601f60ff168152602001602160ff168152602001602360ff168152602001602560ff168152602001602760ff168152602001602960ff168152602001602b60ff168152602001602d60ff168152602001602f60ff168152602001603360ff1681525060089060166200017f92919062000567565b506000600960016101000a81548160ff02191690831515021790555060405180602001604052806000815250600a9080519060200190620001c2929190620005be565b506628307a23136e7a600b556000600f60006101000a81548160ff021916908360048111156200021b577f4e487b7100000000000000000000000000000000000000000000000000000000600052602160045260246000fd5b0217905550736238772544f029ecabfded4300f13a3c4fe84e1d601160006101000a81548173ffffffffffffffffffffffffffffffffffffffff021916908373ffffffffffffffffffffffffffffffffffffffff1602179055507f94555f83f1addda23fdaa7c74f27ce2b764ed5cc430c66f5ff1bcf39d583da3660001b60125573a0ad79d995ddeeb18a14eaef56a549a04e3aa1bd601460006101000a81548173ffffffffffffffffffffffffffffffffffffffff021916908373ffffffffffffffffffffffffffffffffffffffff160217905550348015620002fe57600080fd5b5060405162006b4838038062006b4883398181016040528101906200032491906200069c565b601460009054906101000a900473ffffffffffffffffffffffffffffffffffffffff168073ffffffffffffffffffffffffffffffffffffffff1660808173ffffffffffffffffffffffffffffffffffffffff1660601b815250508073ffffffffffffffffffffffffffffffffffffffff1663addf027c3060016040518363ffffffff1660e01b8152600401620003bc9291906200078d565b600060405180830381600087803b158015620003d757600080fd5b505af1158015620003ec573d6000803e3d6000fd5b5050505050600073ffffffffffffffffffffffffffffffffffffffff168273ffffffffffffffffffffffffffffffffffffffff16141562000464576040517f08c379a00000000000000000000000000000000000000000000000000000000081526004016200045b90620007ba565b60405180910390fd5b81600160006101000a81548173ffffffffffffffffffffffffffffffffffffffff021916908373ffffffffffffffffffffffffffffffffffffffff1602179055506000600960006101000a81548160ff021916908360ff1602179055506000600481905550806005819055506000600d819055506000600c60006101000a81548160ff0219169083151502179055506000600c60026101000a81548160ff0219169083151502179055506000600c60046101000a81548160ff0219169083151502179055506000600c60036101000a81548160ff0219169083151502179055506000600c60016101000a81548160ff0219169083151502179055505050620008d0565b828054828255906000526020600020908101928215620005ab579160200282015b82811115620005aa578251829060ff1690559160200191906001019062000588565b5b509050620005ba91906200064f565b5090565b828054620005cc9062000837565b90600052602060002090601f016020900481019282620005f057600085556200063c565b82601f106200060b57805160ff19168380011785556200063c565b828001600101855582156200063c579182015b828111156200063b5782518255916020019190600101906200061e565b5b5090506200064b91906200064f565b5090565b5b808211156200066a57600081600090555060010162000650565b5090565b6000815190506200067f816200089c565b92915050565b6000815190506200069681620008b6565b92915050565b60008060408385031215620006b057600080fd5b6000620006c0858286016200066e565b9250506020620006d38582860162000685565b9150509250929050565b620006e881620007ed565b82525050565b620006f98162000801565b82525050565b60006200070e604383620007dc565b91507f7b22737461747573436f6465223a203430302c20226d657373616765223a202260008301527f746865207365727665722061646472657373206e6f742073706563696669656460208301527f21227d00000000000000000000000000000000000000000000000000000000006040830152606082019050919050565b6000604082019050620007a46000830185620006dd565b620007b36020830184620006ee565b9392505050565b60006020820190508181036000830152620007d581620006ff565b9050919050565b600082825260208201905092915050565b6000620007fa826200080d565b9050919050565b60008115159050919050565b600073ffffffffffffffffffffffffffffffffffffffff82169050919050565b6000819050919050565b600060028204905060018216806200085057607f821691505b602082108114156200086757620008666200086d565b5b50919050565b7f4e487b7100000000000000000000000000000000000000000000000000000000600052602260045260246000fd5b620008a781620007ed565b8114620008b357600080fd5b50565b620008c1816200082d565b8114620008cd57600080fd5b50565b60805160601c6162446200090460003960008181610fcb015281816111ae0152818161136c01526133f901526162446000f3fe6080604052600436106102085760003560e01c806380374dc811610118578063bf90fb4e116100a0578063e3c71a191161006f578063e3c71a1914610846578063e445dd3314610883578063e684f46a146108ac578063e908cd92146108c3578063fd922a42146108ec57610339565b8063bf90fb4e1461079c578063bfa169f1146107c7578063d504cb65146107f2578063d7c9eee31461081d57610339565b8063972ab703116100e7578063972ab703146106c9578063a36ff4d8146106f2578063ae8b03c11461071d578063b0a3beaf1461075a578063b746c9a71461077157610339565b806380374dc81461061c578063846667a51461065957806385864a701461068257806395019d0a1461069e57610339565b80633706dd4e1161019b5780634154b8e21161016a5780634154b8e21461053357806348c2aed21461055e5780636f120c101461058957806371bab666146105c65780637c529711146105f157610339565b80633706dd4e1461049b5780633ccfd60b146104c65780633fa4f245146104dd578063401186101461050857610339565b806323fb1092116101d757806323fb1092146103dd57806328d34dc2146104085780632ebfc40314610445578063339cf7011461047057610339565b806307b9fc571461033e57806309dc0c7d1461036957806312a2e07b146103945780631e98fd1c1461039e57610339565b3661033957600160009054906101000a900473ffffffffffffffffffffffffffffffffffffffff1673ffffffffffffffffffffffffffffffffffffffff166108fc349081150290604051600060405180830381858888f19350505050158015610275573d6000803e3d6000fd5b50601360009054906101000a900473ffffffffffffffffffffffffffffffffffffffff1673ffffffffffffffffffffffffffffffffffffffff16601160009054906101000a900473ffffffffffffffffffffffffffffffffffffffff1673ffffffffffffffffffffffffffffffffffffffff163373ffffffffffffffffffffffffffffffffffffffff167fa3dc06222653d598b35b7d2d9de4470ac123684fe62525518cd7547e6cf4721b600860405161032f9190615753565b60405180910390a4005b600080fd5b34801561034a57600080fd5b50610353610917565b604051610360919061553e565b60405180910390f35b34801561037557600080fd5b5061037e61091d565b60405161038b919061542d565b60405180910390f35b61039c610943565b005b3480156103aa57600080fd5b506103c560048036038101906103c091906145e7565b610c67565b6040516103d4939291906154e5565b60405180910390f35b3480156103e957600080fd5b506103f2610d56565b6040516103ff919061576e565b60405180910390f35b34801561041457600080fd5b5061042f600480360381019061042a91906143d0565b610de4565b60405161043c9190615523565b60405180910390f35b34801561045157600080fd5b5061045a6110f0565b6040516104679190615523565b60405180910390f35b34801561047c57600080fd5b50610485611103565b6040516104929190615523565b60405180910390f35b3480156104a757600080fd5b506104b0611116565b6040516104bd9190615ad2565b60405180910390f35b3480156104d257600080fd5b506104db61111c565b005b3480156104e957600080fd5b506104f261127f565b6040516104ff9190615ad2565b60405180910390f35b34801561051457600080fd5b5061051d611285565b60405161052a9190615523565b60405180910390f35b34801561053f57600080fd5b50610548611298565b6040516105559190615523565b60405180910390f35b34801561056a57600080fd5b506105736112ab565b6040516105809190615523565b60405180910390f35b34801561059557600080fd5b506105b060048036038101906105ab91906145e7565b6112be565b6040516105bd919061576e565b60405180910390f35b3480156105d257600080fd5b506105db61136a565b6040516105e89190615559565b60405180910390f35b3480156105fd57600080fd5b5061060661138e565b6040516106139190615574565b60405180910390f35b34801561062857600080fd5b50610643600480360381019061063e9190614593565b6113a1565b604051610650919061576e565b60405180910390f35b34801561066557600080fd5b50610680600480360381019061067b91906143f9565b6116f2565b005b61069c600480360381019061069791906145e7565b6119ef565b005b3480156106aa57600080fd5b506106b3611db0565b6040516106c09190615ad2565b60405180910390f35b3480156106d557600080fd5b506106f060048036038101906106eb91906143f9565b611db6565b005b3480156106fe57600080fd5b50610707611ef6565b604051610714919061542d565b60405180910390f35b34801561072957600080fd5b50610744600480360381019061073f91906145e7565b611f1c565b604051610751919061576e565b60405180910390f35b34801561076657600080fd5b5061076f611fc8565b005b34801561077d57600080fd5b506107866123bf565b6040516107939190615523565b60405180910390f35b3480156107a857600080fd5b506107b16123d2565b6040516107be919061542d565b60405180910390f35b3480156107d357600080fd5b506107dc6123f8565b6040516107e9919061542d565b60405180910390f35b3480156107fe57600080fd5b5061080761241e565b6040516108149190615ad2565b60405180910390f35b34801561082957600080fd5b50610844600480360381019061083f9190614552565b612424565b005b34801561085257600080fd5b5061086d60048036038101906108689190614463565b612621565b60405161087a9190615ab0565b60405180910390f35b34801561088f57600080fd5b506108aa60048036038101906108a59190614422565b612e2f565b005b3480156108b857600080fd5b506108c1612fb6565b005b3480156108cf57600080fd5b506108ea60048036038101906108e591906144fa565b6133f7565b005b3480156108f857600080fd5b5061090161359d565b60405161090e919061542d565b60405180910390f35b60125481565b601460009054906101000a900473ffffffffffffffffffffffffffffffffffffffff1681565b600360009054906101000a900473ffffffffffffffffffffffffffffffffffffffff1673ffffffffffffffffffffffffffffffffffffffff163373ffffffffffffffffffffffffffffffffffffffff16146109d3576040517f08c379a00000000000000000000000000000000000000000000000000000000081526004016109ca906159d0565b60405180910390fd5b60006004811115610a0d577f4e487b7100000000000000000000000000000000000000000000000000000000600052602160045260246000fd5b600f60009054906101000a900460ff166004811115610a55577f4e487b7100000000000000000000000000000000000000000000000000000000600052602160045260246000fd5b1415610a96576040517f08c379a0000000000000000000000000000000000000000000000000000000008152600401610a8d906158d0565b60405180910390fd5b600480811115610acf577f4e487b7100000000000000000000000000000000000000000000000000000000600052602160045260246000fd5b600f60009054906101000a900460ff166004811115610b17577f4e487b7100000000000000000000000000000000000000000000000000000000600052602160045260246000fd5b1415610b58576040517f08c379a0000000000000000000000000000000000000000000000000000000008152600401610b4f90615890565b60405180910390fd5b600554341015610b9d576040517f08c379a0000000000000000000000000000000000000000000000000000000008152600401610b94906158f0565b60405180910390fd5b3460046000828254610baf9190615c91565b92505081905550610bbe6135c3565b610bc6613b55565b600d54600260009054906101000a900473ffffffffffffffffffffffffffffffffffffffff1673ffffffffffffffffffffffffffffffffffffffff16427f0d77de82aeab919dcc2da0fa3cdaf0523c907be45f78e71b2fbfbd6048bcb88d600233600454600360009054906101000a900473ffffffffffffffffffffffffffffffffffffffff16604051610c5d9493929190615609565b60405180910390a4565b60108181548110610c7757600080fd5b90600052602060002090600302016000915090508060000160009054906101000a900473ffffffffffffffffffffffffffffffffffffffff1690806001018054610cc090615f42565b80601f0160208091040260200160405190810160405280929190818152602001828054610cec90615f42565b8015610d395780601f10610d0e57610100808354040283529160200191610d39565b820191906000526020600020905b815481529060010190602001808311610d1c57829003601f168201915b5050505050908060020160009054906101000a900460ff16905083565b600e8054610d6390615f42565b80601f0160208091040260200160405190810160405280929190818152602001828054610d8f90615f42565b8015610ddc5780601f10610db157610100808354040283529160200191610ddc565b820191906000526020600020905b815481529060010190602001808311610dbf57829003601f168201915b505050505081565b6000600160009054906101000a900473ffffffffffffffffffffffffffffffffffffffff1673ffffffffffffffffffffffffffffffffffffffff163373ffffffffffffffffffffffffffffffffffffffff1614610e76576040517f08c379a0000000000000000000000000000000000000000000000000000000008152600401610e6d90615830565b60405180910390fd5b600c60019054906101000a900460ff1615610ec6576040517f08c379a0000000000000000000000000000000000000000000000000000000008152600401610ebd906157f0565b60405180910390fd5b60006004811115610f00577f4e487b7100000000000000000000000000000000000000000000000000000000600052602160045260246000fd5b600f60009054906101000a900460ff166004811115610f48577f4e487b7100000000000000000000000000000000000000000000000000000000600052602160045260246000fd5b14610f88576040517f08c379a0000000000000000000000000000000000000000000000000000000008152600401610f7f90615810565b60405180910390fd5b81601360006101000a81548173ffffffffffffffffffffffffffffffffffffffff021916908373ffffffffffffffffffffffffffffffffffffffff1602179055507f000000000000000000000000000000000000000000000000000000000000000073ffffffffffffffffffffffffffffffffffffffff16636e6be03f601160009054906101000a900473ffffffffffffffffffffffffffffffffffffffff1660125430601360009054906101000a900473ffffffffffffffffffffffffffffffffffffffff163063e908cd9260e01b6040518763ffffffff1660e01b815260040161107996959493929190615471565b602060405180830381600087803b15801561109357600080fd5b505af11580156110a7573d6000803e3d6000fd5b505050506040513d601f19601f820116820180604052508101906110cb91906144d1565b506001600c60016101000a81548160ff02191690831515021790555060019050919050565b600960019054906101000a900460ff1681565b600c60039054906101000a900460ff1681565b60045481565b600160009054906101000a900473ffffffffffffffffffffffffffffffffffffffff1673ffffffffffffffffffffffffffffffffffffffff163373ffffffffffffffffffffffffffffffffffffffff16146111ac576040517f08c379a00000000000000000000000000000000000000000000000000000000081526004016111a390615830565b60405180910390fd5b7f000000000000000000000000000000000000000000000000000000000000000073ffffffffffffffffffffffffffffffffffffffff16631d414cbd601160009054906101000a900473ffffffffffffffffffffffffffffffffffffffff16601360009054906101000a900473ffffffffffffffffffffffffffffffffffffffff166040518363ffffffff1660e01b815260040161124b929190615448565b600060405180830381600087803b15801561126557600080fd5b505af1158015611279573d6000803e3d6000fd5b50505050565b60005481565b600c60019054906101000a900460ff1681565b600c60049054906101000a900460ff1681565b600c60009054906101000a900460ff1681565b600781815481106112ce57600080fd5b9060005260206000200160009150905080546112e990615f42565b80601f016020809104026020016040519081016040528092919081815260200182805461131590615f42565b80156113625780601f1061133757610100808354040283529160200191611362565b820191906000526020600020905b81548152906001019060200180831161134557829003601f168201915b505050505081565b7f000000000000000000000000000000000000000000000000000000000000000081565b600f60009054906101000a900460ff1681565b6060600160009054906101000a900473ffffffffffffffffffffffffffffffffffffffff1673ffffffffffffffffffffffffffffffffffffffff163373ffffffffffffffffffffffffffffffffffffffff1614611433576040517f08c379a000000000000000000000000000000000000000000000000000000000815260040161142a90615830565b60405180910390fd5b60005b600681101561168e578273ffffffffffffffffffffffffffffffffffffffff1660108281548110611490577f4e487b7100000000000000000000000000000000000000000000000000000000600052603260045260246000fd5b906000526020600020906003020160000160009054906101000a900473ffffffffffffffffffffffffffffffffffffffff1673ffffffffffffffffffffffffffffffffffffffff16141561167b57600d54600260009054906101000a900473ffffffffffffffffffffffffffffffffffffffff1673ffffffffffffffffffffffffffffffffffffffff16427f6ea5374b0088556f804d142e3ce73751aaffdea551cec3533cbde664877653dd6001878960405161154f9392919061558f565b60405180910390a46009600081819054906101000a900460ff168092919061157690615f18565b91906101000a81548160ff021916908360ff160217905550506115976135c3565b8273ffffffffffffffffffffffffffffffffffffffff16600360009054906101000a900473ffffffffffffffffffffffffffffffffffffffff1673ffffffffffffffffffffffffffffffffffffffff1614156115f6576115f5613b55565b5b600160108281548110611632577f4e487b7100000000000000000000000000000000000000000000000000000000600052603260045260246000fd5b906000526020600020906003020160020160006101000a81548160ff0219169083151502179055506040518060600160405280602b81526020016161e4602b91399150506116ec565b808061168690615f74565b915050611436565b5060006116d0576040517f08c379a00000000000000000000000000000000000000000000000000000000081526004016116c790615910565b60405180910390fd5b60405180608001604052806048815260200161619c6048913990505b92915050565b600160009054906101000a900473ffffffffffffffffffffffffffffffffffffffff1673ffffffffffffffffffffffffffffffffffffffff163373ffffffffffffffffffffffffffffffffffffffff1614611782576040517f08c379a000000000000000000000000000000000000000000000000000000000815260040161177990615830565b60405180910390fd5b600c60049054906101000a900460ff166117d1576040517f08c379a00000000000000000000000000000000000000000000000000000000081526004016117c8906159f0565b60405180910390fd5b60048081111561180a577f4e487b7100000000000000000000000000000000000000000000000000000000600052602160045260246000fd5b600f60009054906101000a900460ff166004811115611852577f4e487b7100000000000000000000000000000000000000000000000000000000600052602160045260246000fd5b14611892576040517f08c379a000000000000000000000000000000000000000000000000000000000815260040161188990615870565b60405180910390fd5b601060006118a09190613f1c565b6000600960006101000a81548160ff021916908360ff1602179055506000600b819055506000600f60006101000a81548160ff02191690836004811115611910577f4e487b7100000000000000000000000000000000000000000000000000000000600052602160045260246000fd5b021790555060008173ffffffffffffffffffffffffffffffffffffffff1660045460405161193d90615418565b60006040518083038185875af1925050503d806000811461197a576040519150601f19603f3d011682016040523d82523d6000602084013e61197f565b606091505b50509050806119c3576040517f08c379a00000000000000000000000000000000000000000000000000000000081526004016119ba906157b0565b60405180910390fd5b60006004819055506000600581905550600d60008154809291906119e690615f74565b91905055505050565b600360009054906101000a900473ffffffffffffffffffffffffffffffffffffffff1673ffffffffffffffffffffffffffffffffffffffff163373ffffffffffffffffffffffffffffffffffffffff1614611a7f576040517f08c379a0000000000000000000000000000000000000000000000000000000008152600401611a76906159d0565b60405180910390fd5b60006004811115611ab9577f4e487b7100000000000000000000000000000000000000000000000000000000600052602160045260246000fd5b600f60009054906101000a900460ff166004811115611b01577f4e487b7100000000000000000000000000000000000000000000000000000000600052602160045260246000fd5b1415611b42576040517f08c379a0000000000000000000000000000000000000000000000000000000008152600401611b39906158d0565b60405180910390fd5b600480811115611b7b577f4e487b7100000000000000000000000000000000000000000000000000000000600052602160045260246000fd5b600f60009054906101000a900460ff166004811115611bc3577f4e487b7100000000000000000000000000000000000000000000000000000000600052602160045260246000fd5b1415611c04576040517f08c379a0000000000000000000000000000000000000000000000000000000008152600401611bfb90615890565b60405180910390fd5b6005548111611c48576040517f08c379a0000000000000000000000000000000000000000000000000000000008152600401611c3f906158b0565b60405180910390fd5b6005546002611c579190615d18565b811115611c99576040517f08c379a0000000000000000000000000000000000000000000000000000000008152600401611c9090615950565b60405180910390fd5b80341015611cdc576040517f08c379a0000000000000000000000000000000000000000000000000000000008152600401611cd3906158f0565b60405180910390fd5b3460046000828254611cee9190615c91565b9250508190555080600581905550611d046135c3565b611d0c613b55565b600d54600260009054906101000a900473ffffffffffffffffffffffffffffffffffffffff1673ffffffffffffffffffffffffffffffffffffffff16427f578d068f1f6076045aa1d8ccedde9e9c5e3e8dfc3a394cf2544e8e629bcf821c60023386600454600360009054906101000a900473ffffffffffffffffffffffffffffffffffffffff16604051611da595949392919061564e565b60405180910390a450565b600b5481565b600160009054906101000a900473ffffffffffffffffffffffffffffffffffffffff1673ffffffffffffffffffffffffffffffffffffffff163373ffffffffffffffffffffffffffffffffffffffff1614611e46576040517f08c379a0000000000000000000000000000000000000000000000000000000008152600401611e3d90615830565b60405180910390fd5b60008173ffffffffffffffffffffffffffffffffffffffff1647604051611e6c90615418565b60006040518083038185875af1925050503d8060008114611ea9576040519150601f19603f3d011682016040523d82523d6000602084013e611eae565b606091505b5050905080611ef2576040517f08c379a0000000000000000000000000000000000000000000000000000000008152600401611ee9906159b0565b60405180910390fd5b5050565b601160009054906101000a900473ffffffffffffffffffffffffffffffffffffffff1681565b60068181548110611f2c57600080fd5b906000526020600020016000915090508054611f4790615f42565b80601f0160208091040260200160405190810160405280929190818152602001828054611f7390615f42565b8015611fc05780601f10611f9557610100808354040283529160200191611fc0565b820191906000526020600020905b815481529060010190602001808311611fa357829003601f168201915b505050505081565b600160009054906101000a900473ffffffffffffffffffffffffffffffffffffffff1673ffffffffffffffffffffffffffffffffffffffff163373ffffffffffffffffffffffffffffffffffffffff1614612058576040517f08c379a000000000000000000000000000000000000000000000000000000000815260040161204f90615830565b60405180910390fd5b60006004811115612092577f4e487b7100000000000000000000000000000000000000000000000000000000600052602160045260246000fd5b600f60009054906101000a900460ff1660048111156120da577f4e487b7100000000000000000000000000000000000000000000000000000000600052602160045260246000fd5b1461211a576040517f08c379a000000000000000000000000000000000000000000000000000000000815260040161211190615810565b60405180910390fd5b600c60039054906101000a900460ff16612169576040517f08c379a000000000000000000000000000000000000000000000000000000000815260040161216090615970565b60405180910390fd5b600c60009054906101000a900460ff166121b8576040517f08c379a00000000000000000000000000000000000000000000000000000000081526004016121af90615a50565b60405180910390fd5b60006016600b546121c99190615fe7565b9050600060088281548110612207577f4e487b7100000000000000000000000000000000000000000000000000000000600052603260045260246000fd5b906000526020600020015490506000600160336103e8600b5461222a9190615fe7565b6305f5e100600b5461223c9190615fe7565b6122469190615ce7565b6122509190615fe7565b61225a9190615c91565b905060005b601181101561232657600060348383866122799190615d18565b6122839190615c91565b61228d9190615fe7565b90506007600682815481106122cb577f4e487b7100000000000000000000000000000000000000000000000000000000600052603260045260246000fd5b906000526020600020019080600181540180825580915050600190039060005260206000200160009091909190915090805461230690615f42565b612311929190613f40565b5050808061231e90615f74565b91505061225f565b50600d54600260009054906101000a900473ffffffffffffffffffffffffffffffffffffffff1673ffffffffffffffffffffffffffffffffffffffff16427f5728d5dbdf49f376445f6797d12cdb3a0cf81a5e9b0847d1846082ca38d1cf15600460076040516123979291906156a1565b60405180910390a46001600c60026101000a81548160ff021916908315150217905550505050565b600c60029054906101000a900460ff1681565b601360009054906101000a900473ffffffffffffffffffffffffffffffffffffffff1681565b600360009054906101000a900473ffffffffffffffffffffffffffffffffffffffff1681565b60055481565b600160009054906101000a900473ffffffffffffffffffffffffffffffffffffffff1673ffffffffffffffffffffffffffffffffffffffff163373ffffffffffffffffffffffffffffffffffffffff16146124b4576040517f08c379a00000000000000000000000000000000000000000000000000000000081526004016124ab90615830565b60405180910390fd5b6004808111156124ed577f4e487b7100000000000000000000000000000000000000000000000000000000600052602160045260246000fd5b600f60009054906101000a900460ff166004811115612535577f4e487b7100000000000000000000000000000000000000000000000000000000600052602160045260246000fd5b14612575576040517f08c379a000000000000000000000000000000000000000000000000000000000815260040161256c90615930565b60405180910390fd5b80600e908051906020019061258b929190613fcd565b50600d54600260009054906101000a900473ffffffffffffffffffffffffffffffffffffffff1673ffffffffffffffffffffffffffffffffffffffff16427f7c189d2121d58db3ee1827852fb130b61c25fbd6396ca69ded0c18c561d1400b6005856040516125fb9291906156d1565b60405180910390a46001600c60046101000a81548160ff02191690831515021790555050565b612629614053565b600160009054906101000a900473ffffffffffffffffffffffffffffffffffffffff1673ffffffffffffffffffffffffffffffffffffffff163373ffffffffffffffffffffffffffffffffffffffff16146126b9576040517f08c379a00000000000000000000000000000000000000000000000000000000081526004016126b090615830565b60405180910390fd5b600060048111156126f3577f4e487b7100000000000000000000000000000000000000000000000000000000600052602160045260246000fd5b600f60009054906101000a900460ff16600481111561273b577f4e487b7100000000000000000000000000000000000000000000000000000000600052602160045260246000fd5b1461277b576040517f08c379a000000000000000000000000000000000000000000000000000000000815260040161277290615810565b60405180910390fd5b600c60029054906101000a900460ff166127ca576040517f08c379a00000000000000000000000000000000000000000000000000000000081526004016127c190615850565b60405180910390fd5b60068383905014612810576040517f08c379a000000000000000000000000000000000000000000000000000000000815260040161280790615a90565b60405180910390fd5b6000806001905060005b6006811015612c6157600073ffffffffffffffffffffffffffffffffffffffff16868683818110612874577f4e487b7100000000000000000000000000000000000000000000000000000000600052603260045260246000fd5b90506020028101906128869190615b44565b600001602081019061289891906143d0565b73ffffffffffffffffffffffffffffffffffffffff1614156128ef576040517f08c379a00000000000000000000000000000000000000000000000000000000081526004016128e690615790565b60405180910390fd5b60106040518060600160405280888885818110612935577f4e487b7100000000000000000000000000000000000000000000000000000000600052603260045260246000fd5b90506020028101906129479190615b44565b600001602081019061295991906143d0565b73ffffffffffffffffffffffffffffffffffffffff1681526020018888858181106129ad577f4e487b7100000000000000000000000000000000000000000000000000000000600052603260045260246000fd5b90506020028101906129bf9190615b44565b80602001906129ce9190615aed565b8080601f016020809104026020016040519081016040528093929190818152602001838380828437600081840152601f19601f820116905080830192505050505050508152602001888885818110612a4f577f4e487b7100000000000000000000000000000000000000000000000000000000600052603260045260246000fd5b9050602002810190612a619190615b44565b6040016020810190612a7391906144a8565b1515815250908060018154018082558091505060019003906000526020600020906003020160009091909190915060008201518160000160006101000a81548173ffffffffffffffffffffffffffffffffffffffff021916908373ffffffffffffffffffffffffffffffffffffffff1602179055506020820151816001019080519060200190612b04929190613fcd565b5060408201518160020160006101000a81548160ff0219169083151502179055505050858582818110612b60577f4e487b7100000000000000000000000000000000000000000000000000000000600052603260045260246000fd5b9050602002810190612b729190615b44565b6040016020810190612b8491906144a8565b612c4e578280612b9390615fbd565b9350508115612c4d5760108181548110612bd6577f4e487b7100000000000000000000000000000000000000000000000000000000600052603260045260246000fd5b906000526020600020906003020160000160009054906101000a900473ffffffffffffffffffffffffffffffffffffffff16600360006101000a81548173ffffffffffffffffffffffffffffffffffffffff021916908373ffffffffffffffffffffffffffffffffffffffff160217905550600091505b5b8080612c5990615f74565b91505061281a565b5081600960006101000a81548160ff021916908360ff1602179055506001600f60006101000a81548160ff02191690836004811115612cc9577f4e487b7100000000000000000000000000000000000000000000000000000000600052602160045260246000fd5b02179055506010600081548110612d09577f4e487b7100000000000000000000000000000000000000000000000000000000600052603260045260246000fd5b90600052602060002090600302016040518060600160405290816000820160009054906101000a900473ffffffffffffffffffffffffffffffffffffffff1673ffffffffffffffffffffffffffffffffffffffff1673ffffffffffffffffffffffffffffffffffffffff168152602001600182018054612d8890615f42565b80601f0160208091040260200160405190810160405280929190818152602001828054612db490615f42565b8015612e015780601f10612dd657610100808354040283529160200191612e01565b820191906000526020600020905b815481529060010190602001808311612de457829003601f168201915b505050505081526020016002820160009054906101000a900460ff1615151515815250509250505092915050565b600160009054906101000a900473ffffffffffffffffffffffffffffffffffffffff1673ffffffffffffffffffffffffffffffffffffffff163373ffffffffffffffffffffffffffffffffffffffff1614612ebf576040517f08c379a0000000000000000000000000000000000000000000000000000000008152600401612eb690615830565b60405180910390fd5b60006004811115612ef9577f4e487b7100000000000000000000000000000000000000000000000000000000600052602160045260246000fd5b600f60009054906101000a900460ff166004811115612f41577f4e487b7100000000000000000000000000000000000000000000000000000000600052602160045260246000fd5b14612f81576040517f08c379a0000000000000000000000000000000000000000000000000000000008152600401612f7890615990565b60405180910390fd5b8060069080519060200190612f9792919061408c565b506001600c60036101000a81548160ff02191690831515021790555050565b600360009054906101000a900473ffffffffffffffffffffffffffffffffffffffff1673ffffffffffffffffffffffffffffffffffffffff163373ffffffffffffffffffffffffffffffffffffffff1614613046576040517f08c379a000000000000000000000000000000000000000000000000000000000815260040161303d906159d0565b60405180910390fd5b60006004811115613080577f4e487b7100000000000000000000000000000000000000000000000000000000600052602160045260246000fd5b600f60009054906101000a900460ff1660048111156130c8577f4e487b7100000000000000000000000000000000000000000000000000000000600052602160045260246000fd5b1415613109576040517f08c379a0000000000000000000000000000000000000000000000000000000008152600401613100906158d0565b60405180910390fd5b600480811115613142577f4e487b7100000000000000000000000000000000000000000000000000000000600052602160045260246000fd5b600f60009054906101000a900460ff16600481111561318a577f4e487b7100000000000000000000000000000000000000000000000000000000600052602160045260246000fd5b14156131cb576040517f08c379a00000000000000000000000000000000000000000000000000000000081526004016131c290615890565b60405180910390fd5b60005b60068110156133b2573373ffffffffffffffffffffffffffffffffffffffff1660108281548110613228577f4e487b7100000000000000000000000000000000000000000000000000000000600052603260045260246000fd5b906000526020600020906003020160000160009054906101000a900473ffffffffffffffffffffffffffffffffffffffff1673ffffffffffffffffffffffffffffffffffffffff16141561339f57600d54600260009054906101000a900473ffffffffffffffffffffffffffffffffffffffff1673ffffffffffffffffffffffffffffffffffffffff16427f6ea5374b0088556f804d142e3ce73751aaffdea551cec3533cbde664877653dd6001336040516132e59291906155cd565b60405180910390a46009600081819054906101000a900460ff168092919061330c90615f18565b91906101000a81548160ff021916908360ff1602179055505061332d6135c3565b613335613b55565b600160108281548110613371577f4e487b7100000000000000000000000000000000000000000000000000000000600052603260045260246000fd5b906000526020600020906003020160020160006101000a81548160ff021916908315150217905550506133f5565b80806133aa90615f74565b9150506131ce565b5060006133f4576040517f08c379a00000000000000000000000000000000000000000000000000000000081526004016133eb90615a10565b60405180910390fd5b5b565b7f000000000000000000000000000000000000000000000000000000000000000073ffffffffffffffffffffffffffffffffffffffff163373ffffffffffffffffffffffffffffffffffffffff1614613485576040517f08c379a000000000000000000000000000000000000000000000000000000000815260040161347c906157d0565b60405180910390fd5b600c60019054906101000a900460ff166134d4576040517f08c379a00000000000000000000000000000000000000000000000000000000081526004016134cb90615a30565b60405180910390fd5b81818101906134e391906145e7565b600b819055506001600c60006101000a81548160ff0219169083151502179055506000600c60016101000a81548160ff021916908315150217905550600d54600260009054906101000a900473ffffffffffffffffffffffffffffffffffffffff1673ffffffffffffffffffffffffffffffffffffffff16427ff5a7022e11fc12ac82d152e06534b7588a4985f701470d0d63808586d45197ba6007600b5460405161359092919061572a565b60405180910390a4505050565b600160009054906101000a900473ffffffffffffffffffffffffffffffffffffffff1681565b6001600960009054906101000a900460ff1660ff161415613681576004600f60006101000a81548160ff0219169083600481111561362a577f4e487b7100000000000000000000000000000000000000000000000000000000600052602160045260246000fd5b0217905550600d54427f3061055938df57c2e32beb77438bbac9595a4cd967c3f0889b7de7bcae0983eb6006600f60009054906101000a900460ff16604051613674929190615701565b60405180910390a3613b53565b6000600590505b60008160ff16106137d05760108160ff16815481106136d0577f4e487b7100000000000000000000000000000000000000000000000000000000600052603260045260246000fd5b906000526020600020906003020160020160009054906101000a900460ff166137bd57600360009054906101000a900473ffffffffffffffffffffffffffffffffffffffff1673ffffffffffffffffffffffffffffffffffffffff1660108260ff1681548110613769577f4e487b7100000000000000000000000000000000000000000000000000000000600052603260045260246000fd5b906000526020600020906003020160000160009054906101000a900473ffffffffffffffffffffffffffffffffffffffff1673ffffffffffffffffffffffffffffffffffffffff16146137bc5750613b53565b5b80806137c890615f18565b915050613688565b506001600481111561380b577f4e487b7100000000000000000000000000000000000000000000000000000000600052602160045260246000fd5b600f60009054906101000a900460ff166004811115613853577f4e487b7100000000000000000000000000000000000000000000000000000000600052602160045260246000fd5b14156138fc576002600f60006101000a81548160ff021916908360048111156138a5577f4e487b7100000000000000000000000000000000000000000000000000000000600052602160045260246000fd5b0217905550600d54427f3061055938df57c2e32beb77438bbac9595a4cd967c3f0889b7de7bcae0983eb6006600f60009054906101000a900460ff166040516138ef929190615701565b60405180910390a3613b53565b60026004811115613936577f4e487b7100000000000000000000000000000000000000000000000000000000600052602160045260246000fd5b600f60009054906101000a900460ff16600481111561397e577f4e487b7100000000000000000000000000000000000000000000000000000000600052602160045260246000fd5b1415613a27576003600f60006101000a81548160ff021916908360048111156139d0577f4e487b7100000000000000000000000000000000000000000000000000000000600052602160045260246000fd5b0217905550600d54427f3061055938df57c2e32beb77438bbac9595a4cd967c3f0889b7de7bcae0983eb6006600f60009054906101000a900460ff16604051613a1a929190615701565b60405180910390a3613b53565b60036004811115613a61577f4e487b7100000000000000000000000000000000000000000000000000000000600052602160045260246000fd5b600f60009054906101000a900460ff166004811115613aa9577f4e487b7100000000000000000000000000000000000000000000000000000000600052602160045260246000fd5b1415613b52576004600f60006101000a81548160ff02191690836004811115613afb577f4e487b7100000000000000000000000000000000000000000000000000000000600052602160045260246000fd5b0217905550600d54427f3061055938df57c2e32beb77438bbac9595a4cd967c3f0889b7de7bcae0983eb6006600f60009054906101000a900460ff16604051613b45929190615701565b60405180910390a3613b53565b5b565b600073ffffffffffffffffffffffffffffffffffffffff16600360009054906101000a900473ffffffffffffffffffffffffffffffffffffffff1673ffffffffffffffffffffffffffffffffffffffff161415613be7576040517f08c379a0000000000000000000000000000000000000000000000000000000008152600401613bde90615a70565b60405180910390fd5b6000600360009054906101000a900473ffffffffffffffffffffffffffffffffffffffff1690506000806000905060005b6006811015613d435760108181548110613c5b577f4e487b7100000000000000000000000000000000000000000000000000000000600052603260045260246000fd5b906000526020600020906003020160020160009054906101000a900460ff16613c8d578180613c8990615f74565b9250505b8373ffffffffffffffffffffffffffffffffffffffff1660108281548110613cde577f4e487b7100000000000000000000000000000000000000000000000000000000600052603260045260246000fd5b906000526020600020906003020160000160009054906101000a900473ffffffffffffffffffffffffffffffffffffffff1673ffffffffffffffffffffffffffffffffffffffff161415613d30578092505b8080613d3b90615f74565b915050613c18565b506000600360009054906101000a900473ffffffffffffffffffffffffffffffffffffffff1690505b600360009054906101000a900473ffffffffffffffffffffffffffffffffffffffff1673ffffffffffffffffffffffffffffffffffffffff168173ffffffffffffffffffffffffffffffffffffffff161415613ed55760106006600185613dd39190615c91565b613ddd9190615fe7565b81548110613e14577f4e487b7100000000000000000000000000000000000000000000000000000000600052603260045260246000fd5b906000526020600020906003020160020160009054906101000a900460ff16613ec25760106006600185613e489190615c91565b613e529190615fe7565b81548110613e89577f4e487b7100000000000000000000000000000000000000000000000000000000600052603260045260246000fd5b906000526020600020906003020160000160009054906101000a900473ffffffffffffffffffffffffffffffffffffffff169050613ed5565b8280613ecd90615f74565b935050613d6c565b80600360006101000a81548173ffffffffffffffffffffffffffffffffffffffff021916908373ffffffffffffffffffffffffffffffffffffffff16021790555050505050565b5080546000825560030290600052602060002090810190613f3d91906140ec565b50565b828054613f4c90615f42565b90600052602060002090601f016020900481019282613f6e5760008555613fbc565b82601f10613f7f5780548555613fbc565b82800160010185558215613fbc57600052602060002091601f016020900482015b82811115613fbb578254825591600101919060010190613fa0565b5b509050613fc9919061414e565b5090565b828054613fd990615f42565b90600052602060002090601f016020900481019282613ffb5760008555614042565b82601f1061401457805160ff1916838001178555614042565b82800160010185558215614042579182015b82811115614041578251825591602001919060010190614026565b5b50905061404f919061414e565b5090565b6040518060600160405280600073ffffffffffffffffffffffffffffffffffffffff168152602001606081526020016000151581525090565b8280548282559060005260206000209081019282156140db579160200282015b828111156140da5782518290805190602001906140ca929190613fcd565b50916020019190600101906140ac565b5b5090506140e8919061416b565b5090565b5b8082111561414a57600080820160006101000a81549073ffffffffffffffffffffffffffffffffffffffff021916905560018201600061412d919061418f565b6002820160006101000a81549060ff0219169055506003016140ed565b5090565b5b8082111561416757600081600090555060010161414f565b5090565b5b8082111561418b5760008181614182919061418f565b5060010161416c565b5090565b50805461419b90615f42565b6000825580601f106141ad57506141cc565b601f0160209004906000526020600020908101906141cb919061414e565b5b50565b60006141e26141dd84615b99565b615b68565b9050808382526020820190508260005b8581101561422257813585016142088882614391565b8452602084019350602083019250506001810190506141f2565b5050509392505050565b600061423f61423a84615bc5565b615b68565b90508281526020810184848401111561425757600080fd5b614262848285615ed6565b509392505050565b60008135905061427981616128565b92915050565b60008135905061428e8161613f565b92915050565b600082601f8301126142a557600080fd5b81356142b58482602086016141cf565b91505092915050565b60008083601f8401126142d057600080fd5b8235905067ffffffffffffffff8111156142e957600080fd5b60208301915083602082028301111561430157600080fd5b9250929050565b60008135905061431781616156565b92915050565b60008135905061432c8161616d565b92915050565b6000815190506143418161616d565b92915050565b60008083601f84011261435957600080fd5b8235905067ffffffffffffffff81111561437257600080fd5b60208301915083600182028301111561438a57600080fd5b9250929050565b600082601f8301126143a257600080fd5b81356143b284826020860161422c565b91505092915050565b6000813590506143ca81616184565b92915050565b6000602082840312156143e257600080fd5b60006143f08482850161426a565b91505092915050565b60006020828403121561440b57600080fd5b60006144198482850161427f565b91505092915050565b60006020828403121561443457600080fd5b600082013567ffffffffffffffff81111561444e57600080fd5b61445a84828501614294565b91505092915050565b6000806020838503121561447657600080fd5b600083013567ffffffffffffffff81111561449057600080fd5b61449c858286016142be565b92509250509250929050565b6000602082840312156144ba57600080fd5b60006144c884828501614308565b91505092915050565b6000602082840312156144e357600080fd5b60006144f184828501614332565b91505092915050565b60008060006040848603121561450f57600080fd5b600061451d8682870161431d565b935050602084013567ffffffffffffffff81111561453a57600080fd5b61454686828701614347565b92509250509250925092565b60006020828403121561456457600080fd5b600082013567ffffffffffffffff81111561457e57600080fd5b61458a84828501614391565b91505092915050565b600080604083850312156145a657600080fd5b600083013567ffffffffffffffff8111156145c057600080fd5b6145cc85828601614391565b92505060206145dd8582860161426a565b9150509250929050565b6000602082840312156145f957600080fd5b6000614607848285016143bb565b91505092915050565b600061461c83836147eb565b905092915050565b61462d81615d72565b82525050565b61463c81615d72565b82525050565b600061464d82615c1f565b6146578185615c42565b93508360208202850161466985615bf5565b8060005b858110156146a4578484038952816146858582614610565b945061469083615c35565b925060208a0199505060018101905061466d565b50829750879550505050505092915050565b6146bf81615d96565b82525050565b6146ce81615d96565b82525050565b6146dd81615da2565b82525050565b6146ec81615dac565b82525050565b6146fb81615e22565b82525050565b61470a81615e46565b82525050565b61471981615e58565b82525050565b61472881615e6a565b82525050565b61473781615e7c565b82525050565b61474681615e8e565b82525050565b61475581615ea0565b82525050565b61476481615eb2565b82525050565b61477381615ec4565b82525050565b600061478482615c2a565b61478e8185615c6f565b935061479e818560208601615ee5565b6147a781616103565b840191505092915050565b60006147bd82615c2a565b6147c78185615c80565b93506147d7818560208601615ee5565b6147e081616103565b840191505092915050565b600081546147f881615f42565b6148028186615c6f565b9450600182166000811461481d576001811461482f57614862565b60ff1983168652602086019350614862565b61483885615c0a565b60005b8381101561485a5781548189015260018201915060208101905061483b565b808801955050505b50505092915050565b6000614878600f83615c80565b91507f496e76616c6964206164647265737300000000000000000000000000000000006000830152602082019050919050565b60006148b8604883615c80565b91507f7b2273746174757322203a203530302c20226d65737361676522203a2022536f60008301527f6d657468696e672077656e7420766572792077726f6e67203a2073656e64696e60208301527f6746756e6473227d0000000000000000000000000000000000000000000000006040830152606082019050919050565b6000614944601683615c80565b91507f43616c6c6572206e6f74204169726e6f646520525250000000000000000000006000830152602082019050919050565b6000614984601383615c80565b91507f5573657220666f6c64732068696d73656c662e000000000000000000000000006000830152602082019050919050565b60006149c4603e83615c80565b91507f7b22737461747573436f6465223a203430322c20226d657373616765223a202260008301527f546865207265717565737420697320616c6c7265616479206d6164652e2200006020830152604082019050919050565b6000614a2a603b83615c80565b91507f7b22737461747573436f6465223a203430312c20226d657373616765223a202260008301527f67616d65206e6f7420696e2072657374696e672073746174652e2200000000006020830152604082019050919050565b6000614a90602d83615c80565b91507f7b22737461747573436f6465223a203430312c20226d657373616765223a202260008301527f756e617574686f726973656422000000000000000000000000000000000000006020830152604082019050919050565b6000614af6603783615c80565b91507f7b22737461747573436f6465223a203430312c20226d657373616765223a202260008301527f4465636b206e6f742063726561746564207965742e227d0000000000000000006020830152604082019050919050565b6000614b5c603783615c80565b91507f7b22737461747573436f6465223a203430302c20226d657373616765223a202260008301527f47616d6520686173656e7420656e646564207965742e220000000000000000006020830152604082019050919050565b6000614bc2603583615c80565b91507f7b22737461747573436f6465223a203130302c20226d657373616765223a202260008301527f67616d6520616c6c726561647920656e646564227d00000000000000000000006020830152604082019050919050565b6000614c28604f83615c80565b91507f7b22737461747573436f6465223a203430332c20226d657373616765223a202260008301527f75706461746564206265742063616e74206265206c657373207468616e20746860208301527f652070726576696f7573206f6e652200000000000000000000000000000000006040830152606082019050919050565b6000614cb4604a83615c80565b91507f7b22737461747573436f6465223a203930302c20226d657373616765223a202260008301527f67616d6d65206e6f742073746172746564207965743a20696e2052455354494e60208301527f472070686173652e227d000000000000000000000000000000000000000000006040830152606082019050919050565b6000614d40603b83615c80565b91507f7b22737461747573436f6465223a203432322c20226d657373616765223a202260008301527f6d6573736167652056616c756520696e73756666696369656e742200000000006020830152604082019050919050565b6000614da6603783615c80565b91507f7b226572726f72436f646522203a203430342c20226d65737361676522203a2060008301527f226e6f207375636820757365722065786973747322207d0000000000000000006020830152604082019050919050565b6000614e0c603683615c80565b91507f7b22737461747573436f6465223a203130302c20226d657373616765223a202260008301527f67616d6520686173207420656e64656420796574227d000000000000000000006020830152604082019050919050565b6000614e72606f83615c80565b91507f7b22737461747573436f6465223a203430332c20226d657373616765223a202260008301527f74686973206973206120636f6e74726f6c6c656420726573652067616d65206360208301527f616e74207261697365206d6f7265207468616e2074686120646f75626c65206f60408301527f662063757272656e74206265742e2200000000000000000000000000000000006060830152608082019050919050565b6000614f24603f83615c80565b91507f7b22737461747573436f6465223a20393030312c20226d657373616765223a2060008301527f22726f6f74206465636b206e6f74207075626c6973686564207965742e227d006020830152604082019050919050565b6000614f8a600083615c53565b9150600082019050919050565b6000614fa4600083615c64565b9150600082019050919050565b6000614fbe606683615c80565b91507f7b22737461747573436f6465223a203930302c20226d657373616765223a202260008301527f67616d65206e6f7420696e2052455354494e472070686173652c20726571756960208301527f72656420746f20626520696e2072657374696e6720666f72206465636b20757060408301527f6c6f6164227d00000000000000000000000000000000000000000000000000006060830152608082019050919050565b6000615070603a83615c80565b91507f7b2273746174757322203a203530302c20226d65737361676522203a2022466160008301527f74656c4572726f723a206261636b446f6f722066696c6564227d0000000000006020830152604082019050919050565b60006150d6602f83615c80565b91507f7b22737461747573436f6465223a203430312c20226d657373616765223a202260008301527f4e6f7420796f7572207475726e227d00000000000000000000000000000000006020830152604082019050919050565b600061513c604383615c80565b91507f7b22737461747573436f6465223a203930302c20226d657373616765223a202260008301527f50726976617465206b657920686173656e74206265656e20646973636f6c736560208301527f642e2200000000000000000000000000000000000000000000000000000000006040830152606082019050919050565b60006151c8604d83615c80565b91507f7b22737461747573436f6465223a203530302c20226d657373616765223a202260008301527f536f6d657468696e672057656e7420566572792057726f6e67203a20666f6c6460208301527f696e6720627920757365722e22000000000000000000000000000000000000006040830152606082019050919050565b6000615254601283615c80565b91507f72657175657374206e6f7420666f756e642e00000000000000000000000000006000830152602082019050919050565b6000615294603d83615c80565b91507f7b22737461747573436f6465223a203430312c20226d657373616765223a202260008301527f72616e646f6d6e756d626572206e6f742067656e6572617465642e227d0000006020830152604082019050919050565b60006152fa603683615c80565b91507f7b22737461747573436f6465223a203430302c20226d657373616765223a202260008301527f6465616c6572206973206e6f74207365742079657422000000000000000000006020830152604082019050919050565b6000615360603783615c80565b91507f7b22737461747573436f6465223a203432322c20226d657373616765223a202260008301527f696e76616c6964207573657220616464726573732e227d0000000000000000006020830152604082019050919050565b60006060830160008301516153d16000860182614624565b50602083015184820360208601526153e98282614779565b91505060408301516153fe60408601826146b6565b508091505092915050565b61541281615e0b565b82525050565b600061542382614f97565b9150819050919050565b60006020820190506154426000830184614633565b92915050565b600060408201905061545d6000830185614633565b61546a6020830184614633565b9392505050565b600060e0820190506154866000830189614633565b61549360208301886146d4565b6154a06040830187614633565b6154ad6060830186614633565b6154ba6080830185614633565b6154c760a08301846146e3565b81810360c08301526154d881614f7d565b9050979650505050505050565b60006060820190506154fa6000830186614633565b818103602083015261550c81856147b2565b905061551b60408301846146c5565b949350505050565b600060208201905061553860008301846146c5565b92915050565b600060208201905061555360008301846146d4565b92915050565b600060208201905061556e60008301846146f2565b92915050565b60006020820190506155896000830184614701565b92915050565b60006060820190506155a46000830186614710565b6155b16020830185614633565b81810360408301526155c381846147b2565b9050949350505050565b60006060820190506155e26000830185614710565b6155ef6020830184614633565b818103604083015261560081614977565b90509392505050565b600060808201905061561e600083018761471f565b61562b6020830186614633565b6156386040830185615409565b6156456060830184614633565b95945050505050565b600060a082019050615663600083018861471f565b6156706020830187614633565b61567d6040830186615409565b61568a6060830185615409565b6156976080830184614633565b9695505050505050565b60006040820190506156b6600083018561472e565b81810360208301526156c88184614642565b90509392505050565b60006040820190506156e6600083018561473d565b81810360208301526156f881846147b2565b90509392505050565b6000604082019050615716600083018561474c565b6157236020830184614701565b9392505050565b600060408201905061573f600083018561475b565b61574c6020830184615409565b9392505050565b6000602082019050615768600083018461476a565b92915050565b6000602082019050818103600083015261578881846147b2565b905092915050565b600060208201905081810360008301526157a98161486b565b9050919050565b600060208201905081810360008301526157c9816148ab565b9050919050565b600060208201905081810360008301526157e981614937565b9050919050565b60006020820190508181036000830152615809816149b7565b9050919050565b6000602082019050818103600083015261582981614a1d565b9050919050565b6000602082019050818103600083015261584981614a83565b9050919050565b6000602082019050818103600083015261586981614ae9565b9050919050565b6000602082019050818103600083015261588981614b4f565b9050919050565b600060208201905081810360008301526158a981614bb5565b9050919050565b600060208201905081810360008301526158c981614c1b565b9050919050565b600060208201905081810360008301526158e981614ca7565b9050919050565b6000602082019050818103600083015261590981614d33565b9050919050565b6000602082019050818103600083015261592981614d99565b9050919050565b6000602082019050818103600083015261594981614dff565b9050919050565b6000602082019050818103600083015261596981614e65565b9050919050565b6000602082019050818103600083015261598981614f17565b9050919050565b600060208201905081810360008301526159a981614fb1565b9050919050565b600060208201905081810360008301526159c981615063565b9050919050565b600060208201905081810360008301526159e9816150c9565b9050919050565b60006020820190508181036000830152615a098161512f565b9050919050565b60006020820190508181036000830152615a29816151bb565b9050919050565b60006020820190508181036000830152615a4981615247565b9050919050565b60006020820190508181036000830152615a6981615287565b9050919050565b60006020820190508181036000830152615a89816152ed565b9050919050565b60006020820190508181036000830152615aa981615353565b9050919050565b60006020820190508181036000830152615aca81846153b9565b905092915050565b6000602082019050615ae76000830184615409565b92915050565b60008083356001602003843603038112615b0657600080fd5b80840192508235915067ffffffffffffffff821115615b2457600080fd5b602083019250600182023603831315615b3c57600080fd5b509250929050565b600082356001606003833603038112615b5c57600080fd5b80830191505092915050565b6000604051905081810181811067ffffffffffffffff82111715615b8f57615b8e6160d4565b5b8060405250919050565b600067ffffffffffffffff821115615bb457615bb36160d4565b5b602082029050602081019050919050565b600067ffffffffffffffff821115615be057615bdf6160d4565b5b601f19601f8301169050602081019050919050565b60008190508160005260206000209050919050565b60008190508160005260206000209050919050565b600081549050919050565b600081519050919050565b6000600182019050919050565b600082825260208201905092915050565b600082825260208201905092915050565b600081905092915050565b600082825260208201905092915050565b600082825260208201905092915050565b6000615c9c82615e0b565b9150615ca783615e0b565b9250827fffffffffffffffffffffffffffffffffffffffffffffffffffffffffffffffff03821115615cdc57615cdb616018565b5b828201905092915050565b6000615cf282615e0b565b9150615cfd83615e0b565b925082615d0d57615d0c616047565b5b828204905092915050565b6000615d2382615e0b565b9150615d2e83615e0b565b9250817fffffffffffffffffffffffffffffffffffffffffffffffffffffffffffffffff0483118215151615615d6757615d66616018565b5b828202905092915050565b6000615d7d82615deb565b9050919050565b6000615d8f82615deb565b9050919050565b60008115159050919050565b6000819050919050565b60007fffffffff0000000000000000000000000000000000000000000000000000000082169050919050565b6000819050615de682616114565b919050565b600073ffffffffffffffffffffffffffffffffffffffff82169050919050565b6000819050919050565b600060ff82169050919050565b6000615e2d82615e34565b9050919050565b6000615e3f82615deb565b9050919050565b6000615e5182615dd8565b9050919050565b6000615e6382615e15565b9050919050565b6000615e7582615e15565b9050919050565b6000615e8782615e15565b9050919050565b6000615e9982615e15565b9050919050565b6000615eab82615e15565b9050919050565b6000615ebd82615e15565b9050919050565b6000615ecf82615e15565b9050919050565b82818337600083830152505050565b60005b83811015615f03578082015181840152602081019050615ee8565b83811115615f12576000848401525b50505050565b6000615f2382615e15565b91506000821415615f3757615f36616018565b5b600182039050919050565b60006002820490506001821680615f5a57607f821691505b60208210811415615f6e57615f6d6160a5565b5b50919050565b6000615f7f82615e0b565b91507fffffffffffffffffffffffffffffffffffffffffffffffffffffffffffffffff821415615fb257615fb1616018565b5b600182019050919050565b6000615fc882615e15565b915060ff821415615fdc57615fdb616018565b5b600182019050919050565b6000615ff282615e0b565b9150615ffd83615e0b565b92508261600d5761600c616047565b5b828206905092915050565b7f4e487b7100000000000000000000000000000000000000000000000000000000600052601160045260246000fd5b7f4e487b7100000000000000000000000000000000000000000000000000000000600052601260045260246000fd5b7f4e487b7100000000000000000000000000000000000000000000000000000000600052602160045260246000fd5b7f4e487b7100000000000000000000000000000000000000000000000000000000600052602260045260246000fd5b7f4e487b7100000000000000000000000000000000000000000000000000000000600052604160045260246000fd5b6000601f19601f8301169050919050565b6005811061612557616124616076565b5b50565b61613181615d72565b811461613c57600080fd5b50565b61614881615d84565b811461615357600080fd5b50565b61615f81615d96565b811461616a57600080fd5b50565b61617681615da2565b811461618157600080fd5b50565b61618d81615e0b565b811461619857600080fd5b5056fe7b2273746174757322203a203530302c20226d65737361676522203a2022536f6d657468696e672077656e7420766572792077726f6e67203a20666f6c64696e674155736572227d7b2273746174757322203a203230302c20226d65737361676522203a20227573657220666f6c646564227da2646970667358221220ece637eea77865729708dc6ee7fcf5b246c34f983a478b8f7d34ff1800a059de64736f6c63430008000033","opcodes":"PUSH1 0xA0 PUSH1 0x40 MSTORE ADDRESS PUSH1 0x2 PUSH1 0x0 PUSH2 0x100 EXP DUP2 SLOAD DUP2 PUSH20 0xFFFFFFFFFFFFFFFFFFFFFFFFFFFFFFFFFFFFFFFF MUL NOT AND SWAP1 DUP4 PUSH20 0xFFFFFFFFFFFFFFFFFFFFFFFFFFFFFFFFFFFFFFFF AND MUL OR SWAP1 SSTORE POP PUSH1 0x0 PUSH1 0x3 PUSH1 0x0 PUSH2 0x100 EXP DUP2 SLOAD DUP2 PUSH20 0xFFFFFFFFFFFFFFFFFFFFFFFFFFFFFFFFFFFFFFFF MUL NOT AND SWAP1 DUP4 PUSH20 0xFFFFFFFFFFFFFFFFFFFFFFFFFFFFFFFFFFFFFFFF AND MUL OR SWAP1 SSTORE POP PUSH1 0x40 MLOAD DUP1 PUSH2 0x2C0 ADD PUSH1 0x40 MSTORE DUP1 PUSH1 0x3 PUSH1 0xFF AND DUP2 MSTORE PUSH1 0x20 ADD PUSH1 0x5 PUSH1 0xFF AND DUP2 MSTORE PUSH1 0x20 ADD PUSH1 0x7 PUSH1 0xFF AND DUP2 MSTORE PUSH1 0x20 ADD PUSH1 0x9 PUSH1 0xFF AND DUP2 MSTORE PUSH1 0x20 ADD PUSH1 0xB PUSH1 0xFF AND DUP2 MSTORE PUSH1 0x20 ADD PUSH1 0xF PUSH1 0xFF AND DUP2 MSTORE PUSH1 0x20 ADD PUSH1 0x11 PUSH1 0xFF AND DUP2 MSTORE PUSH1 0x20 ADD PUSH1 0x13 PUSH1 0xFF AND DUP2 MSTORE PUSH1 0x20 ADD PUSH1 0x15 PUSH1 0xFF AND DUP2 MSTORE PUSH1 0x20 ADD PUSH1 0x17 PUSH1 0xFF AND DUP2 MSTORE PUSH1 0x20 ADD PUSH1 0x1B PUSH1 0xFF AND DUP2 MSTORE PUSH1 0x20 ADD PUSH1 0x1D PUSH1 0xFF AND DUP2 MSTORE PUSH1 0x20 ADD PUSH1 0x1F PUSH1 0xFF AND DUP2 MSTORE PUSH1 0x20 ADD PUSH1 0x21 PUSH1 0xFF AND DUP2 MSTORE PUSH1 0x20 ADD PUSH1 0x23 PUSH1 0xFF AND DUP2 MSTORE PUSH1 0x20 ADD PUSH1 0x25 PUSH1 0xFF AND DUP2 MSTORE PUSH1 0x20 ADD PUSH1 0x27 PUSH1 0xFF AND DUP2 MSTORE PUSH1 0x20 ADD PUSH1 0x29 PUSH1 0xFF AND DUP2 MSTORE PUSH1 0x20 ADD PUSH1 0x2B PUSH1 0xFF AND DUP2 MSTORE PUSH1 0x20 ADD PUSH1 0x2D PUSH1 0xFF AND DUP2 MSTORE PUSH1 0x20 ADD PUSH1 0x2F PUSH1 0xFF AND DUP2 MSTORE PUSH1 0x20 ADD PUSH1 0x33 PUSH1 0xFF AND DUP2 MSTORE POP PUSH1 0x8 SWAP1 PUSH1 0x16 PUSH3 0x17F SWAP3 SWAP2 SWAP1 PUSH3 0x567 JUMP JUMPDEST POP PUSH1 0x0 PUSH1 0x9 PUSH1 0x1 PUSH2 0x100 EXP DUP2 SLOAD DUP2 PUSH1 0xFF MUL NOT AND SWAP1 DUP4 ISZERO ISZERO MUL OR SWAP1 SSTORE POP PUSH1 0x40 MLOAD DUP1 PUSH1 0x20 ADD PUSH1 0x40 MSTORE DUP1 PUSH1 0x0 DUP2 MSTORE POP PUSH1 0xA SWAP1 DUP1 MLOAD SWAP1 PUSH1 0x20 ADD SWAP1 PUSH3 0x1C2 SWAP3 SWAP2 SWAP1 PUSH3 0x5BE JUMP JUMPDEST POP PUSH7 0x28307A23136E7A PUSH1 0xB SSTORE PUSH1 0x0 PUSH1 0xF PUSH1 0x0 PUSH2 0x100 EXP DUP2 SLOAD DUP2 PUSH1 0xFF MUL NOT AND SWAP1 DUP4 PUSH1 0x4 DUP2 GT ISZERO PUSH3 0x21B JUMPI PUSH32 0x4E487B7100000000000000000000000000000000000000000000000000000000 PUSH1 0x0 MSTORE PUSH1 0x21 PUSH1 0x4 MSTORE PUSH1 0x24 PUSH1 0x0 REVERT JUMPDEST MUL OR SWAP1 SSTORE POP PUSH20 0x6238772544F029ECABFDED4300F13A3C4FE84E1D PUSH1 0x11 PUSH1 0x0 PUSH2 0x100 EXP DUP2 SLOAD DUP2 PUSH20 0xFFFFFFFFFFFFFFFFFFFFFFFFFFFFFFFFFFFFFFFF MUL NOT AND SWAP1 DUP4 PUSH20 0xFFFFFFFFFFFFFFFFFFFFFFFFFFFFFFFFFFFFFFFF AND MUL OR SWAP1 SSTORE POP PUSH32 0x94555F83F1ADDDA23FDAA7C74F27CE2B764ED5CC430C66F5FF1BCF39D583DA36 PUSH1 0x0 SHL PUSH1 0x12 SSTORE PUSH20 0xA0AD79D995DDEEB18A14EAEF56A549A04E3AA1BD PUSH1 0x14 PUSH1 0x0 PUSH2 0x100 EXP DUP2 SLOAD DUP2 PUSH20 0xFFFFFFFFFFFFFFFFFFFFFFFFFFFFFFFFFFFFFFFF MUL NOT AND SWAP1 DUP4 PUSH20 0xFFFFFFFFFFFFFFFFFFFFFFFFFFFFFFFFFFFFFFFF AND MUL OR SWAP1 SSTORE POP CALLVALUE DUP1 ISZERO PUSH3 0x2FE JUMPI PUSH1 0x0 DUP1 REVERT JUMPDEST POP PUSH1 0x40 MLOAD PUSH3 0x6B48 CODESIZE SUB DUP1 PUSH3 0x6B48 DUP4 CODECOPY DUP2 DUP2 ADD PUSH1 0x40 MSTORE DUP2 ADD SWAP1 PUSH3 0x324 SWAP2 SWAP1 PUSH3 0x69C JUMP JUMPDEST PUSH1 0x14 PUSH1 0x0 SWAP1 SLOAD SWAP1 PUSH2 0x100 EXP SWAP1 DIV PUSH20 0xFFFFFFFFFFFFFFFFFFFFFFFFFFFFFFFFFFFFFFFF AND DUP1 PUSH20 0xFFFFFFFFFFFFFFFFFFFFFFFFFFFFFFFFFFFFFFFF AND PUSH1 0x80 DUP2 PUSH20 0xFFFFFFFFFFFFFFFFFFFFFFFFFFFFFFFFFFFFFFFF AND PUSH1 0x60 SHL DUP2 MSTORE POP POP DUP1 PUSH20 0xFFFFFFFFFFFFFFFFFFFFFFFFFFFFFFFFFFFFFFFF AND PUSH4 0xADDF027C ADDRESS PUSH1 0x1 PUSH1 0x40 MLOAD DUP4 PUSH4 0xFFFFFFFF AND PUSH1 0xE0 SHL DUP2 MSTORE PUSH1 0x4 ADD PUSH3 0x3BC SWAP3 SWAP2 SWAP1 PUSH3 0x78D JUMP JUMPDEST PUSH1 0x0 PUSH1 0x40 MLOAD DUP1 DUP4 SUB DUP2 PUSH1 0x0 DUP8 DUP1 EXTCODESIZE ISZERO DUP1 ISZERO PUSH3 0x3D7 JUMPI PUSH1 0x0 DUP1 REVERT JUMPDEST POP GAS CALL ISZERO DUP1 ISZERO PUSH3 0x3EC JUMPI RETURNDATASIZE PUSH1 0x0 DUP1 RETURNDATACOPY RETURNDATASIZE PUSH1 0x0 REVERT JUMPDEST POP POP POP POP POP PUSH1 0x0 PUSH20 0xFFFFFFFFFFFFFFFFFFFFFFFFFFFFFFFFFFFFFFFF AND DUP3 PUSH20 0xFFFFFFFFFFFFFFFFFFFFFFFFFFFFFFFFFFFFFFFF AND EQ ISZERO PUSH3 0x464 JUMPI PUSH1 0x40 MLOAD PUSH32 0x8C379A000000000000000000000000000000000000000000000000000000000 DUP2 MSTORE PUSH1 0x4 ADD PUSH3 0x45B SWAP1 PUSH3 0x7BA JUMP JUMPDEST PUSH1 0x40 MLOAD DUP1 SWAP2 SUB SWAP1 REVERT JUMPDEST DUP2 PUSH1 0x1 PUSH1 0x0 PUSH2 0x100 EXP DUP2 SLOAD DUP2 PUSH20 0xFFFFFFFFFFFFFFFFFFFFFFFFFFFFFFFFFFFFFFFF MUL NOT AND SWAP1 DUP4 PUSH20 0xFFFFFFFFFFFFFFFFFFFFFFFFFFFFFFFFFFFFFFFF AND MUL OR SWAP1 SSTORE POP PUSH1 0x0 PUSH1 0x9 PUSH1 0x0 PUSH2 0x100 EXP DUP2 SLOAD DUP2 PUSH1 0xFF MUL NOT AND SWAP1 DUP4 PUSH1 0xFF AND MUL OR SWAP1 SSTORE POP PUSH1 0x0 PUSH1 0x4 DUP2 SWAP1 SSTORE POP DUP1 PUSH1 0x5 DUP2 SWAP1 SSTORE POP PUSH1 0x0 PUSH1 0xD DUP2 SWAP1 SSTORE POP PUSH1 0x0 PUSH1 0xC PUSH1 0x0 PUSH2 0x100 EXP DUP2 SLOAD DUP2 PUSH1 0xFF MUL NOT AND SWAP1 DUP4 ISZERO ISZERO MUL OR SWAP1 SSTORE POP PUSH1 0x0 PUSH1 0xC PUSH1 0x2 PUSH2 0x100 EXP DUP2 SLOAD DUP2 PUSH1 0xFF MUL NOT AND SWAP1 DUP4 ISZERO ISZERO MUL OR SWAP1 SSTORE POP PUSH1 0x0 PUSH1 0xC PUSH1 0x4 PUSH2 0x100 EXP DUP2 SLOAD DUP2 PUSH1 0xFF MUL NOT AND SWAP1 DUP4 ISZERO ISZERO MUL OR SWAP1 SSTORE POP PUSH1 0x0 PUSH1 0xC PUSH1 0x3 PUSH2 0x100 EXP DUP2 SLOAD DUP2 PUSH1 0xFF MUL NOT AND SWAP1 DUP4 ISZERO ISZERO MUL OR SWAP1 SSTORE POP PUSH1 0x0 PUSH1 0xC PUSH1 0x1 PUSH2 0x100 EXP DUP2 SLOAD DUP2 PUSH1 0xFF MUL NOT AND SWAP1 DUP4 ISZERO ISZERO MUL OR SWAP1 SSTORE POP POP POP PUSH3 0x8D0 JUMP JUMPDEST DUP3 DUP1 SLOAD DUP3 DUP3 SSTORE SWAP1 PUSH1 0x0 MSTORE PUSH1 0x20 PUSH1 0x0 KECCAK256 SWAP1 DUP2 ADD SWAP3 DUP3 ISZERO PUSH3 0x5AB JUMPI SWAP2 PUSH1 0x20 MUL DUP3 ADD JUMPDEST DUP3 DUP2 GT ISZERO PUSH3 0x5AA JUMPI DUP3 MLOAD DUP3 SWAP1 PUSH1 0xFF AND SWAP1 SSTORE SWAP2 PUSH1 0x20 ADD SWAP2 SWAP1 PUSH1 0x1 ADD SWAP1 PUSH3 0x588 JUMP JUMPDEST JUMPDEST POP SWAP1 POP PUSH3 0x5BA SWAP2 SWAP1 PUSH3 0x64F JUMP JUMPDEST POP SWAP1 JUMP JUMPDEST DUP3 DUP1 SLOAD PUSH3 0x5CC SWAP1 PUSH3 0x837 JUMP JUMPDEST SWAP1 PUSH1 0x0 MSTORE PUSH1 0x20 PUSH1 0x0 KECCAK256 SWAP1 PUSH1 0x1F ADD PUSH1 0x20 SWAP1 DIV DUP2 ADD SWAP3 DUP3 PUSH3 0x5F0 JUMPI PUSH1 0x0 DUP6 SSTORE PUSH3 0x63C JUMP JUMPDEST DUP3 PUSH1 0x1F LT PUSH3 0x60B JUMPI DUP1 MLOAD PUSH1 0xFF NOT AND DUP4 DUP1 ADD OR DUP6 SSTORE PUSH3 0x63C JUMP JUMPDEST DUP3 DUP1 ADD PUSH1 0x1 ADD DUP6 SSTORE DUP3 ISZERO PUSH3 0x63C JUMPI SWAP2 DUP3 ADD JUMPDEST DUP3 DUP2 GT ISZERO PUSH3 0x63B JUMPI DUP3 MLOAD DUP3 SSTORE SWAP2 PUSH1 0x20 ADD SWAP2 SWAP1 PUSH1 0x1 ADD SWAP1 PUSH3 0x61E JUMP JUMPDEST JUMPDEST POP SWAP1 POP PUSH3 0x64B SWAP2 SWAP1 PUSH3 0x64F JUMP JUMPDEST POP SWAP1 JUMP JUMPDEST JUMPDEST DUP1 DUP3 GT ISZERO PUSH3 0x66A JUMPI PUSH1 0x0 DUP2 PUSH1 0x0 SWAP1 SSTORE POP PUSH1 0x1 ADD PUSH3 0x650 JUMP JUMPDEST POP SWAP1 JUMP JUMPDEST PUSH1 0x0 DUP2 MLOAD SWAP1 POP PUSH3 0x67F DUP2 PUSH3 0x89C JUMP JUMPDEST SWAP3 SWAP2 POP POP JUMP JUMPDEST PUSH1 0x0 DUP2 MLOAD SWAP1 POP PUSH3 0x696 DUP2 PUSH3 0x8B6 JUMP JUMPDEST SWAP3 SWAP2 POP POP JUMP JUMPDEST PUSH1 0x0 DUP1 PUSH1 0x40 DUP4 DUP6 SUB SLT ISZERO PUSH3 0x6B0 JUMPI PUSH1 0x0 DUP1 REVERT JUMPDEST PUSH1 0x0 PUSH3 0x6C0 DUP6 DUP3 DUP7 ADD PUSH3 0x66E JUMP JUMPDEST SWAP3 POP POP PUSH1 0x20 PUSH3 0x6D3 DUP6 DUP3 DUP7 ADD PUSH3 0x685 JUMP JUMPDEST SWAP2 POP POP SWAP3 POP SWAP3 SWAP1 POP JUMP JUMPDEST PUSH3 0x6E8 DUP2 PUSH3 0x7ED JUMP JUMPDEST DUP3 MSTORE POP POP JUMP JUMPDEST PUSH3 0x6F9 DUP2 PUSH3 0x801 JUMP JUMPDEST DUP3 MSTORE POP POP JUMP JUMPDEST PUSH1 0x0 PUSH3 0x70E PUSH1 0x43 DUP4 PUSH3 0x7DC JUMP JUMPDEST SWAP2 POP PUSH32 0x7B22737461747573436F6465223A203430302C20226D657373616765223A2022 PUSH1 0x0 DUP4 ADD MSTORE PUSH32 0x746865207365727665722061646472657373206E6F7420737065636966696564 PUSH1 0x20 DUP4 ADD MSTORE PUSH32 0x21227D0000000000000000000000000000000000000000000000000000000000 PUSH1 0x40 DUP4 ADD MSTORE PUSH1 0x60 DUP3 ADD SWAP1 POP SWAP2 SWAP1 POP JUMP JUMPDEST PUSH1 0x0 PUSH1 0x40 DUP3 ADD SWAP1 POP PUSH3 0x7A4 PUSH1 0x0 DUP4 ADD DUP6 PUSH3 0x6DD JUMP JUMPDEST PUSH3 0x7B3 PUSH1 0x20 DUP4 ADD DUP5 PUSH3 0x6EE JUMP JUMPDEST SWAP4 SWAP3 POP POP POP JUMP JUMPDEST PUSH1 0x0 PUSH1 0x20 DUP3 ADD SWAP1 POP DUP2 DUP2 SUB PUSH1 0x0 DUP4 ADD MSTORE PUSH3 0x7D5 DUP2 PUSH3 0x6FF JUMP JUMPDEST SWAP1 POP SWAP2 SWAP1 POP JUMP JUMPDEST PUSH1 0x0 DUP3 DUP3 MSTORE PUSH1 0x20 DUP3 ADD SWAP1 POP SWAP3 SWAP2 POP POP JUMP JUMPDEST PUSH1 0x0 PUSH3 0x7FA DUP3 PUSH3 0x80D JUMP JUMPDEST SWAP1 POP SWAP2 SWAP1 POP JUMP JUMPDEST PUSH1 0x0 DUP2 ISZERO ISZERO SWAP1 POP SWAP2 SWAP1 POP JUMP JUMPDEST PUSH1 0x0 PUSH20 0xFFFFFFFFFFFFFFFFFFFFFFFFFFFFFFFFFFFFFFFF DUP3 AND SWAP1 POP SWAP2 SWAP1 POP JUMP JUMPDEST PUSH1 0x0 DUP2 SWAP1 POP SWAP2 SWAP1 POP JUMP JUMPDEST PUSH1 0x0 PUSH1 0x2 DUP3 DIV SWAP1 POP PUSH1 0x1 DUP3 AND DUP1 PUSH3 0x850 JUMPI PUSH1 0x7F DUP3 AND SWAP2 POP JUMPDEST PUSH1 0x20 DUP3 LT DUP2 EQ ISZERO PUSH3 0x867 JUMPI PUSH3 0x866 PUSH3 0x86D JUMP JUMPDEST JUMPDEST POP SWAP2 SWAP1 POP JUMP JUMPDEST PUSH32 0x4E487B7100000000000000000000000000000000000000000000000000000000 PUSH1 0x0 MSTORE PUSH1 0x22 PUSH1 0x4 MSTORE PUSH1 0x24 PUSH1 0x0 REVERT JUMPDEST PUSH3 0x8A7 DUP2 PUSH3 0x7ED JUMP JUMPDEST DUP2 EQ PUSH3 0x8B3 JUMPI PUSH1 0x0 DUP1 REVERT JUMPDEST POP JUMP JUMPDEST PUSH3 0x8C1 DUP2 PUSH3 0x82D JUMP JUMPDEST DUP2 EQ PUSH3 0x8CD JUMPI PUSH1 0x0 DUP1 REVERT JUMPDEST POP JUMP JUMPDEST PUSH1 0x80 MLOAD PUSH1 0x60 SHR PUSH2 0x6244 PUSH3 0x904 PUSH1 0x0 CODECOPY PUSH1 0x0 DUP2 DUP2 PUSH2 0xFCB ADD MSTORE DUP2 DUP2 PUSH2 0x11AE ADD MSTORE DUP2 DUP2 PUSH2 0x136C ADD MSTORE PUSH2 0x33F9 ADD MSTORE PUSH2 0x6244 PUSH1 0x0 RETURN INVALID PUSH1 0x80 PUSH1 0x40 MSTORE PUSH1 0x4 CALLDATASIZE LT PUSH2 0x208 JUMPI PUSH1 0x0 CALLDATALOAD PUSH1 0xE0 SHR DUP1 PUSH4 0x80374DC8 GT PUSH2 0x118 JUMPI DUP1 PUSH4 0xBF90FB4E GT PUSH2 0xA0 JUMPI DUP1 PUSH4 0xE3C71A19 GT PUSH2 0x6F JUMPI DUP1 PUSH4 0xE3C71A19 EQ PUSH2 0x846 JUMPI DUP1 PUSH4 0xE445DD33 EQ PUSH2 0x883 JUMPI DUP1 PUSH4 0xE684F46A EQ PUSH2 0x8AC JUMPI DUP1 PUSH4 0xE908CD92 EQ PUSH2 0x8C3 JUMPI DUP1 PUSH4 0xFD922A42 EQ PUSH2 0x8EC JUMPI PUSH2 0x339 JUMP JUMPDEST DUP1 PUSH4 0xBF90FB4E EQ PUSH2 0x79C JUMPI DUP1 PUSH4 0xBFA169F1 EQ PUSH2 0x7C7 JUMPI DUP1 PUSH4 0xD504CB65 EQ PUSH2 0x7F2 JUMPI DUP1 PUSH4 0xD7C9EEE3 EQ PUSH2 0x81D JUMPI PUSH2 0x339 JUMP JUMPDEST DUP1 PUSH4 0x972AB703 GT PUSH2 0xE7 JUMPI DUP1 PUSH4 0x972AB703 EQ PUSH2 0x6C9 JUMPI DUP1 PUSH4 0xA36FF4D8 EQ PUSH2 0x6F2 JUMPI DUP1 PUSH4 0xAE8B03C1 EQ PUSH2 0x71D JUMPI DUP1 PUSH4 0xB0A3BEAF EQ PUSH2 0x75A JUMPI DUP1 PUSH4 0xB746C9A7 EQ PUSH2 0x771 JUMPI PUSH2 0x339 JUMP JUMPDEST DUP1 PUSH4 0x80374DC8 EQ PUSH2 0x61C JUMPI DUP1 PUSH4 0x846667A5 EQ PUSH2 0x659 JUMPI DUP1 PUSH4 0x85864A70 EQ PUSH2 0x682 JUMPI DUP1 PUSH4 0x95019D0A EQ PUSH2 0x69E JUMPI PUSH2 0x339 JUMP JUMPDEST DUP1 PUSH4 0x3706DD4E GT PUSH2 0x19B JUMPI DUP1 PUSH4 0x4154B8E2 GT PUSH2 0x16A JUMPI DUP1 PUSH4 0x4154B8E2 EQ PUSH2 0x533 JUMPI DUP1 PUSH4 0x48C2AED2 EQ PUSH2 0x55E JUMPI DUP1 PUSH4 0x6F120C10 EQ PUSH2 0x589 JUMPI DUP1 PUSH4 0x71BAB666 EQ PUSH2 0x5C6 JUMPI DUP1 PUSH4 0x7C529711 EQ PUSH2 0x5F1 JUMPI PUSH2 0x339 JUMP JUMPDEST DUP1 PUSH4 0x3706DD4E EQ PUSH2 0x49B JUMPI DUP1 PUSH4 0x3CCFD60B EQ PUSH2 0x4C6 JUMPI DUP1 PUSH4 0x3FA4F245 EQ PUSH2 0x4DD JUMPI DUP1 PUSH4 0x40118610 EQ PUSH2 0x508 JUMPI PUSH2 0x339 JUMP JUMPDEST DUP1 PUSH4 0x23FB1092 GT PUSH2 0x1D7 JUMPI DUP1 PUSH4 0x23FB1092 EQ PUSH2 0x3DD JUMPI DUP1 PUSH4 0x28D34DC2 EQ PUSH2 0x408 JUMPI DUP1 PUSH4 0x2EBFC403 EQ PUSH2 0x445 JUMPI DUP1 PUSH4 0x339CF701 EQ PUSH2 0x470 JUMPI PUSH2 0x339 JUMP JUMPDEST DUP1 PUSH4 0x7B9FC57 EQ PUSH2 0x33E JUMPI DUP1 PUSH4 0x9DC0C7D EQ PUSH2 0x369 JUMPI DUP1 PUSH4 0x12A2E07B EQ PUSH2 0x394 JUMPI DUP1 PUSH4 0x1E98FD1C EQ PUSH2 0x39E JUMPI PUSH2 0x339 JUMP JUMPDEST CALLDATASIZE PUSH2 0x339 JUMPI PUSH1 0x1 PUSH1 0x0 SWAP1 SLOAD SWAP1 PUSH2 0x100 EXP SWAP1 DIV PUSH20 0xFFFFFFFFFFFFFFFFFFFFFFFFFFFFFFFFFFFFFFFF AND PUSH20 0xFFFFFFFFFFFFFFFFFFFFFFFFFFFFFFFFFFFFFFFF AND PUSH2 0x8FC CALLVALUE SWAP1 DUP2 ISZERO MUL SWAP1 PUSH1 0x40 MLOAD PUSH1 0x0 PUSH1 0x40 MLOAD DUP1 DUP4 SUB DUP2 DUP6 DUP9 DUP9 CALL SWAP4 POP POP POP POP ISZERO DUP1 ISZERO PUSH2 0x275 JUMPI RETURNDATASIZE PUSH1 0x0 DUP1 RETURNDATACOPY RETURNDATASIZE PUSH1 0x0 REVERT JUMPDEST POP PUSH1 0x13 PUSH1 0x0 SWAP1 SLOAD SWAP1 PUSH2 0x100 EXP SWAP1 DIV PUSH20 0xFFFFFFFFFFFFFFFFFFFFFFFFFFFFFFFFFFFFFFFF AND PUSH20 0xFFFFFFFFFFFFFFFFFFFFFFFFFFFFFFFFFFFFFFFF AND PUSH1 0x11 PUSH1 0x0 SWAP1 SLOAD SWAP1 PUSH2 0x100 EXP SWAP1 DIV PUSH20 0xFFFFFFFFFFFFFFFFFFFFFFFFFFFFFFFFFFFFFFFF AND PUSH20 0xFFFFFFFFFFFFFFFFFFFFFFFFFFFFFFFFFFFFFFFF AND CALLER PUSH20 0xFFFFFFFFFFFFFFFFFFFFFFFFFFFFFFFFFFFFFFFF AND PUSH32 0xA3DC06222653D598B35B7D2D9DE4470AC123684FE62525518CD7547E6CF4721B PUSH1 0x8 PUSH1 0x40 MLOAD PUSH2 0x32F SWAP2 SWAP1 PUSH2 0x5753 JUMP JUMPDEST PUSH1 0x40 MLOAD DUP1 SWAP2 SUB SWAP1 LOG4 STOP JUMPDEST PUSH1 0x0 DUP1 REVERT JUMPDEST CALLVALUE DUP1 ISZERO PUSH2 0x34A JUMPI PUSH1 0x0 DUP1 REVERT JUMPDEST POP PUSH2 0x353 PUSH2 0x917 JUMP JUMPDEST PUSH1 0x40 MLOAD PUSH2 0x360 SWAP2 SWAP1 PUSH2 0x553E JUMP JUMPDEST PUSH1 0x40 MLOAD DUP1 SWAP2 SUB SWAP1 RETURN JUMPDEST CALLVALUE DUP1 ISZERO PUSH2 0x375 JUMPI PUSH1 0x0 DUP1 REVERT JUMPDEST POP PUSH2 0x37E PUSH2 0x91D JUMP JUMPDEST PUSH1 0x40 MLOAD PUSH2 0x38B SWAP2 SWAP1 PUSH2 0x542D JUMP JUMPDEST PUSH1 0x40 MLOAD DUP1 SWAP2 SUB SWAP1 RETURN JUMPDEST PUSH2 0x39C PUSH2 0x943 JUMP JUMPDEST STOP JUMPDEST CALLVALUE DUP1 ISZERO PUSH2 0x3AA JUMPI PUSH1 0x0 DUP1 REVERT JUMPDEST POP PUSH2 0x3C5 PUSH1 0x4 DUP1 CALLDATASIZE SUB DUP2 ADD SWAP1 PUSH2 0x3C0 SWAP2 SWAP1 PUSH2 0x45E7 JUMP JUMPDEST PUSH2 0xC67 JUMP JUMPDEST PUSH1 0x40 MLOAD PUSH2 0x3D4 SWAP4 SWAP3 SWAP2 SWAP1 PUSH2 0x54E5 JUMP JUMPDEST PUSH1 0x40 MLOAD DUP1 SWAP2 SUB SWAP1 RETURN JUMPDEST CALLVALUE DUP1 ISZERO PUSH2 0x3E9 JUMPI PUSH1 0x0 DUP1 REVERT JUMPDEST POP PUSH2 0x3F2 PUSH2 0xD56 JUMP JUMPDEST PUSH1 0x40 MLOAD PUSH2 0x3FF SWAP2 SWAP1 PUSH2 0x576E JUMP JUMPDEST PUSH1 0x40 MLOAD DUP1 SWAP2 SUB SWAP1 RETURN JUMPDEST CALLVALUE DUP1 ISZERO PUSH2 0x414 JUMPI PUSH1 0x0 DUP1 REVERT JUMPDEST POP PUSH2 0x42F PUSH1 0x4 DUP1 CALLDATASIZE SUB DUP2 ADD SWAP1 PUSH2 0x42A SWAP2 SWAP1 PUSH2 0x43D0 JUMP JUMPDEST PUSH2 0xDE4 JUMP JUMPDEST PUSH1 0x40 MLOAD PUSH2 0x43C SWAP2 SWAP1 PUSH2 0x5523 JUMP JUMPDEST PUSH1 0x40 MLOAD DUP1 SWAP2 SUB SWAP1 RETURN JUMPDEST CALLVALUE DUP1 ISZERO PUSH2 0x451 JUMPI PUSH1 0x0 DUP1 REVERT JUMPDEST POP PUSH2 0x45A PUSH2 0x10F0 JUMP JUMPDEST PUSH1 0x40 MLOAD PUSH2 0x467 SWAP2 SWAP1 PUSH2 0x5523 JUMP JUMPDEST PUSH1 0x40 MLOAD DUP1 SWAP2 SUB SWAP1 RETURN JUMPDEST CALLVALUE DUP1 ISZERO PUSH2 0x47C JUMPI PUSH1 0x0 DUP1 REVERT JUMPDEST POP PUSH2 0x485 PUSH2 0x1103 JUMP JUMPDEST PUSH1 0x40 MLOAD PUSH2 0x492 SWAP2 SWAP1 PUSH2 0x5523 JUMP JUMPDEST PUSH1 0x40 MLOAD DUP1 SWAP2 SUB SWAP1 RETURN JUMPDEST CALLVALUE DUP1 ISZERO PUSH2 0x4A7 JUMPI PUSH1 0x0 DUP1 REVERT JUMPDEST POP PUSH2 0x4B0 PUSH2 0x1116 JUMP JUMPDEST PUSH1 0x40 MLOAD PUSH2 0x4BD SWAP2 SWAP1 PUSH2 0x5AD2 JUMP JUMPDEST PUSH1 0x40 MLOAD DUP1 SWAP2 SUB SWAP1 RETURN JUMPDEST CALLVALUE DUP1 ISZERO PUSH2 0x4D2 JUMPI PUSH1 0x0 DUP1 REVERT JUMPDEST POP PUSH2 0x4DB PUSH2 0x111C JUMP JUMPDEST STOP JUMPDEST CALLVALUE DUP1 ISZERO PUSH2 0x4E9 JUMPI PUSH1 0x0 DUP1 REVERT JUMPDEST POP PUSH2 0x4F2 PUSH2 0x127F JUMP JUMPDEST PUSH1 0x40 MLOAD PUSH2 0x4FF SWAP2 SWAP1 PUSH2 0x5AD2 JUMP JUMPDEST PUSH1 0x40 MLOAD DUP1 SWAP2 SUB SWAP1 RETURN JUMPDEST CALLVALUE DUP1 ISZERO PUSH2 0x514 JUMPI PUSH1 0x0 DUP1 REVERT JUMPDEST POP PUSH2 0x51D PUSH2 0x1285 JUMP JUMPDEST PUSH1 0x40 MLOAD PUSH2 0x52A SWAP2 SWAP1 PUSH2 0x5523 JUMP JUMPDEST PUSH1 0x40 MLOAD DUP1 SWAP2 SUB SWAP1 RETURN JUMPDEST CALLVALUE DUP1 ISZERO PUSH2 0x53F JUMPI PUSH1 0x0 DUP1 REVERT JUMPDEST POP PUSH2 0x548 PUSH2 0x1298 JUMP JUMPDEST PUSH1 0x40 MLOAD PUSH2 0x555 SWAP2 SWAP1 PUSH2 0x5523 JUMP JUMPDEST PUSH1 0x40 MLOAD DUP1 SWAP2 SUB SWAP1 RETURN JUMPDEST CALLVALUE DUP1 ISZERO PUSH2 0x56A JUMPI PUSH1 0x0 DUP1 REVERT JUMPDEST POP PUSH2 0x573 PUSH2 0x12AB JUMP JUMPDEST PUSH1 0x40 MLOAD PUSH2 0x580 SWAP2 SWAP1 PUSH2 0x5523 JUMP JUMPDEST PUSH1 0x40 MLOAD DUP1 SWAP2 SUB SWAP1 RETURN JUMPDEST CALLVALUE DUP1 ISZERO PUSH2 0x595 JUMPI PUSH1 0x0 DUP1 REVERT JUMPDEST POP PUSH2 0x5B0 PUSH1 0x4 DUP1 CALLDATASIZE SUB DUP2 ADD SWAP1 PUSH2 0x5AB SWAP2 SWAP1 PUSH2 0x45E7 JUMP JUMPDEST PUSH2 0x12BE JUMP JUMPDEST PUSH1 0x40 MLOAD PUSH2 0x5BD SWAP2 SWAP1 PUSH2 0x576E JUMP JUMPDEST PUSH1 0x40 MLOAD DUP1 SWAP2 SUB SWAP1 RETURN JUMPDEST CALLVALUE DUP1 ISZERO PUSH2 0x5D2 JUMPI PUSH1 0x0 DUP1 REVERT JUMPDEST POP PUSH2 0x5DB PUSH2 0x136A JUMP JUMPDEST PUSH1 0x40 MLOAD PUSH2 0x5E8 SWAP2 SWAP1 PUSH2 0x5559 JUMP JUMPDEST PUSH1 0x40 MLOAD DUP1 SWAP2 SUB SWAP1 RETURN JUMPDEST CALLVALUE DUP1 ISZERO PUSH2 0x5FD JUMPI PUSH1 0x0 DUP1 REVERT JUMPDEST POP PUSH2 0x606 PUSH2 0x138E JUMP JUMPDEST PUSH1 0x40 MLOAD PUSH2 0x613 SWAP2 SWAP1 PUSH2 0x5574 JUMP JUMPDEST PUSH1 0x40 MLOAD DUP1 SWAP2 SUB SWAP1 RETURN JUMPDEST CALLVALUE DUP1 ISZERO PUSH2 0x628 JUMPI PUSH1 0x0 DUP1 REVERT JUMPDEST POP PUSH2 0x643 PUSH1 0x4 DUP1 CALLDATASIZE SUB DUP2 ADD SWAP1 PUSH2 0x63E SWAP2 SWAP1 PUSH2 0x4593 JUMP JUMPDEST PUSH2 0x13A1 JUMP JUMPDEST PUSH1 0x40 MLOAD PUSH2 0x650 SWAP2 SWAP1 PUSH2 0x576E JUMP JUMPDEST PUSH1 0x40 MLOAD DUP1 SWAP2 SUB SWAP1 RETURN JUMPDEST CALLVALUE DUP1 ISZERO PUSH2 0x665 JUMPI PUSH1 0x0 DUP1 REVERT JUMPDEST POP PUSH2 0x680 PUSH1 0x4 DUP1 CALLDATASIZE SUB DUP2 ADD SWAP1 PUSH2 0x67B SWAP2 SWAP1 PUSH2 0x43F9 JUMP JUMPDEST PUSH2 0x16F2 JUMP JUMPDEST STOP JUMPDEST PUSH2 0x69C PUSH1 0x4 DUP1 CALLDATASIZE SUB DUP2 ADD SWAP1 PUSH2 0x697 SWAP2 SWAP1 PUSH2 0x45E7 JUMP JUMPDEST PUSH2 0x19EF JUMP JUMPDEST STOP JUMPDEST CALLVALUE DUP1 ISZERO PUSH2 0x6AA JUMPI PUSH1 0x0 DUP1 REVERT JUMPDEST POP PUSH2 0x6B3 PUSH2 0x1DB0 JUMP JUMPDEST PUSH1 0x40 MLOAD PUSH2 0x6C0 SWAP2 SWAP1 PUSH2 0x5AD2 JUMP JUMPDEST PUSH1 0x40 MLOAD DUP1 SWAP2 SUB SWAP1 RETURN JUMPDEST CALLVALUE DUP1 ISZERO PUSH2 0x6D5 JUMPI PUSH1 0x0 DUP1 REVERT JUMPDEST POP PUSH2 0x6F0 PUSH1 0x4 DUP1 CALLDATASIZE SUB DUP2 ADD SWAP1 PUSH2 0x6EB SWAP2 SWAP1 PUSH2 0x43F9 JUMP JUMPDEST PUSH2 0x1DB6 JUMP JUMPDEST STOP JUMPDEST CALLVALUE DUP1 ISZERO PUSH2 0x6FE JUMPI PUSH1 0x0 DUP1 REVERT JUMPDEST POP PUSH2 0x707 PUSH2 0x1EF6 JUMP JUMPDEST PUSH1 0x40 MLOAD PUSH2 0x714 SWAP2 SWAP1 PUSH2 0x542D JUMP JUMPDEST PUSH1 0x40 MLOAD DUP1 SWAP2 SUB SWAP1 RETURN JUMPDEST CALLVALUE DUP1 ISZERO PUSH2 0x729 JUMPI PUSH1 0x0 DUP1 REVERT JUMPDEST POP PUSH2 0x744 PUSH1 0x4 DUP1 CALLDATASIZE SUB DUP2 ADD SWAP1 PUSH2 0x73F SWAP2 SWAP1 PUSH2 0x45E7 JUMP JUMPDEST PUSH2 0x1F1C JUMP JUMPDEST PUSH1 0x40 MLOAD PUSH2 0x751 SWAP2 SWAP1 PUSH2 0x576E JUMP JUMPDEST PUSH1 0x40 MLOAD DUP1 SWAP2 SUB SWAP1 RETURN JUMPDEST CALLVALUE DUP1 ISZERO PUSH2 0x766 JUMPI PUSH1 0x0 DUP1 REVERT JUMPDEST POP PUSH2 0x76F PUSH2 0x1FC8 JUMP JUMPDEST STOP JUMPDEST CALLVALUE DUP1 ISZERO PUSH2 0x77D JUMPI PUSH1 0x0 DUP1 REVERT JUMPDEST POP PUSH2 0x786 PUSH2 0x23BF JUMP JUMPDEST PUSH1 0x40 MLOAD PUSH2 0x793 SWAP2 SWAP1 PUSH2 0x5523 JUMP JUMPDEST PUSH1 0x40 MLOAD DUP1 SWAP2 SUB SWAP1 RETURN JUMPDEST CALLVALUE DUP1 ISZERO PUSH2 0x7A8 JUMPI PUSH1 0x0 DUP1 REVERT JUMPDEST POP PUSH2 0x7B1 PUSH2 0x23D2 JUMP JUMPDEST PUSH1 0x40 MLOAD PUSH2 0x7BE SWAP2 SWAP1 PUSH2 0x542D JUMP JUMPDEST PUSH1 0x40 MLOAD DUP1 SWAP2 SUB SWAP1 RETURN JUMPDEST CALLVALUE DUP1 ISZERO PUSH2 0x7D3 JUMPI PUSH1 0x0 DUP1 REVERT JUMPDEST POP PUSH2 0x7DC PUSH2 0x23F8 JUMP JUMPDEST PUSH1 0x40 MLOAD PUSH2 0x7E9 SWAP2 SWAP1 PUSH2 0x542D JUMP JUMPDEST PUSH1 0x40 MLOAD DUP1 SWAP2 SUB SWAP1 RETURN JUMPDEST CALLVALUE DUP1 ISZERO PUSH2 0x7FE JUMPI PUSH1 0x0 DUP1 REVERT JUMPDEST POP PUSH2 0x807 PUSH2 0x241E JUMP JUMPDEST PUSH1 0x40 MLOAD PUSH2 0x814 SWAP2 SWAP1 PUSH2 0x5AD2 JUMP JUMPDEST PUSH1 0x40 MLOAD DUP1 SWAP2 SUB SWAP1 RETURN JUMPDEST CALLVALUE DUP1 ISZERO PUSH2 0x829 JUMPI PUSH1 0x0 DUP1 REVERT JUMPDEST POP PUSH2 0x844 PUSH1 0x4 DUP1 CALLDATASIZE SUB DUP2 ADD SWAP1 PUSH2 0x83F SWAP2 SWAP1 PUSH2 0x4552 JUMP JUMPDEST PUSH2 0x2424 JUMP JUMPDEST STOP JUMPDEST CALLVALUE DUP1 ISZERO PUSH2 0x852 JUMPI PUSH1 0x0 DUP1 REVERT JUMPDEST POP PUSH2 0x86D PUSH1 0x4 DUP1 CALLDATASIZE SUB DUP2 ADD SWAP1 PUSH2 0x868 SWAP2 SWAP1 PUSH2 0x4463 JUMP JUMPDEST PUSH2 0x2621 JUMP JUMPDEST PUSH1 0x40 MLOAD PUSH2 0x87A SWAP2 SWAP1 PUSH2 0x5AB0 JUMP JUMPDEST PUSH1 0x40 MLOAD DUP1 SWAP2 SUB SWAP1 RETURN JUMPDEST CALLVALUE DUP1 ISZERO PUSH2 0x88F JUMPI PUSH1 0x0 DUP1 REVERT JUMPDEST POP PUSH2 0x8AA PUSH1 0x4 DUP1 CALLDATASIZE SUB DUP2 ADD SWAP1 PUSH2 0x8A5 SWAP2 SWAP1 PUSH2 0x4422 JUMP JUMPDEST PUSH2 0x2E2F JUMP JUMPDEST STOP JUMPDEST CALLVALUE DUP1 ISZERO PUSH2 0x8B8 JUMPI PUSH1 0x0 DUP1 REVERT JUMPDEST POP PUSH2 0x8C1 PUSH2 0x2FB6 JUMP JUMPDEST STOP JUMPDEST CALLVALUE DUP1 ISZERO PUSH2 0x8CF JUMPI PUSH1 0x0 DUP1 REVERT JUMPDEST POP PUSH2 0x8EA PUSH1 0x4 DUP1 CALLDATASIZE SUB DUP2 ADD SWAP1 PUSH2 0x8E5 SWAP2 SWAP1 PUSH2 0x44FA JUMP JUMPDEST PUSH2 0x33F7 JUMP JUMPDEST STOP JUMPDEST CALLVALUE DUP1 ISZERO PUSH2 0x8F8 JUMPI PUSH1 0x0 DUP1 REVERT JUMPDEST POP PUSH2 0x901 PUSH2 0x359D JUMP JUMPDEST PUSH1 0x40 MLOAD PUSH2 0x90E SWAP2 SWAP1 PUSH2 0x542D JUMP JUMPDEST PUSH1 0x40 MLOAD DUP1 SWAP2 SUB SWAP1 RETURN JUMPDEST PUSH1 0x12 SLOAD DUP2 JUMP JUMPDEST PUSH1 0x14 PUSH1 0x0 SWAP1 SLOAD SWAP1 PUSH2 0x100 EXP SWAP1 DIV PUSH20 0xFFFFFFFFFFFFFFFFFFFFFFFFFFFFFFFFFFFFFFFF AND DUP2 JUMP JUMPDEST PUSH1 0x3 PUSH1 0x0 SWAP1 SLOAD SWAP1 PUSH2 0x100 EXP SWAP1 DIV PUSH20 0xFFFFFFFFFFFFFFFFFFFFFFFFFFFFFFFFFFFFFFFF AND PUSH20 0xFFFFFFFFFFFFFFFFFFFFFFFFFFFFFFFFFFFFFFFF AND CALLER PUSH20 0xFFFFFFFFFFFFFFFFFFFFFFFFFFFFFFFFFFFFFFFF AND EQ PUSH2 0x9D3 JUMPI PUSH1 0x40 MLOAD PUSH32 0x8C379A000000000000000000000000000000000000000000000000000000000 DUP2 MSTORE PUSH1 0x4 ADD PUSH2 0x9CA SWAP1 PUSH2 0x59D0 JUMP JUMPDEST PUSH1 0x40 MLOAD DUP1 SWAP2 SUB SWAP1 REVERT JUMPDEST PUSH1 0x0 PUSH1 0x4 DUP2 GT ISZERO PUSH2 0xA0D JUMPI PUSH32 0x4E487B7100000000000000000000000000000000000000000000000000000000 PUSH1 0x0 MSTORE PUSH1 0x21 PUSH1 0x4 MSTORE PUSH1 0x24 PUSH1 0x0 REVERT JUMPDEST PUSH1 0xF PUSH1 0x0 SWAP1 SLOAD SWAP1 PUSH2 0x100 EXP SWAP1 DIV PUSH1 0xFF AND PUSH1 0x4 DUP2 GT ISZERO PUSH2 0xA55 JUMPI PUSH32 0x4E487B7100000000000000000000000000000000000000000000000000000000 PUSH1 0x0 MSTORE PUSH1 0x21 PUSH1 0x4 MSTORE PUSH1 0x24 PUSH1 0x0 REVERT JUMPDEST EQ ISZERO PUSH2 0xA96 JUMPI PUSH1 0x40 MLOAD PUSH32 0x8C379A000000000000000000000000000000000000000000000000000000000 DUP2 MSTORE PUSH1 0x4 ADD PUSH2 0xA8D SWAP1 PUSH2 0x58D0 JUMP JUMPDEST PUSH1 0x40 MLOAD DUP1 SWAP2 SUB SWAP1 REVERT JUMPDEST PUSH1 0x4 DUP1 DUP2 GT ISZERO PUSH2 0xACF JUMPI PUSH32 0x4E487B7100000000000000000000000000000000000000000000000000000000 PUSH1 0x0 MSTORE PUSH1 0x21 PUSH1 0x4 MSTORE PUSH1 0x24 PUSH1 0x0 REVERT JUMPDEST PUSH1 0xF PUSH1 0x0 SWAP1 SLOAD SWAP1 PUSH2 0x100 EXP SWAP1 DIV PUSH1 0xFF AND PUSH1 0x4 DUP2 GT ISZERO PUSH2 0xB17 JUMPI PUSH32 0x4E487B7100000000000000000000000000000000000000000000000000000000 PUSH1 0x0 MSTORE PUSH1 0x21 PUSH1 0x4 MSTORE PUSH1 0x24 PUSH1 0x0 REVERT JUMPDEST EQ ISZERO PUSH2 0xB58 JUMPI PUSH1 0x40 MLOAD PUSH32 0x8C379A000000000000000000000000000000000000000000000000000000000 DUP2 MSTORE PUSH1 0x4 ADD PUSH2 0xB4F SWAP1 PUSH2 0x5890 JUMP JUMPDEST PUSH1 0x40 MLOAD DUP1 SWAP2 SUB SWAP1 REVERT JUMPDEST PUSH1 0x5 SLOAD CALLVALUE LT ISZERO PUSH2 0xB9D JUMPI PUSH1 0x40 MLOAD PUSH32 0x8C379A000000000000000000000000000000000000000000000000000000000 DUP2 MSTORE PUSH1 0x4 ADD PUSH2 0xB94 SWAP1 PUSH2 0x58F0 JUMP JUMPDEST PUSH1 0x40 MLOAD DUP1 SWAP2 SUB SWAP1 REVERT JUMPDEST CALLVALUE PUSH1 0x4 PUSH1 0x0 DUP3 DUP3 SLOAD PUSH2 0xBAF SWAP2 SWAP1 PUSH2 0x5C91 JUMP JUMPDEST SWAP3 POP POP DUP2 SWAP1 SSTORE POP PUSH2 0xBBE PUSH2 0x35C3 JUMP JUMPDEST PUSH2 0xBC6 PUSH2 0x3B55 JUMP JUMPDEST PUSH1 0xD SLOAD PUSH1 0x2 PUSH1 0x0 SWAP1 SLOAD SWAP1 PUSH2 0x100 EXP SWAP1 DIV PUSH20 0xFFFFFFFFFFFFFFFFFFFFFFFFFFFFFFFFFFFFFFFF AND PUSH20 0xFFFFFFFFFFFFFFFFFFFFFFFFFFFFFFFFFFFFFFFF AND TIMESTAMP PUSH32 0xD77DE82AEAB919DCC2DA0FA3CDAF0523C907BE45F78E71B2FBFBD6048BCB88D PUSH1 0x2 CALLER PUSH1 0x4 SLOAD PUSH1 0x3 PUSH1 0x0 SWAP1 SLOAD SWAP1 PUSH2 0x100 EXP SWAP1 DIV PUSH20 0xFFFFFFFFFFFFFFFFFFFFFFFFFFFFFFFFFFFFFFFF AND PUSH1 0x40 MLOAD PUSH2 0xC5D SWAP5 SWAP4 SWAP3 SWAP2 SWAP1 PUSH2 0x5609 JUMP JUMPDEST PUSH1 0x40 MLOAD DUP1 SWAP2 SUB SWAP1 LOG4 JUMP JUMPDEST PUSH1 0x10 DUP2 DUP2 SLOAD DUP2 LT PUSH2 0xC77 JUMPI PUSH1 0x0 DUP1 REVERT JUMPDEST SWAP1 PUSH1 0x0 MSTORE PUSH1 0x20 PUSH1 0x0 KECCAK256 SWAP1 PUSH1 0x3 MUL ADD PUSH1 0x0 SWAP2 POP SWAP1 POP DUP1 PUSH1 0x0 ADD PUSH1 0x0 SWAP1 SLOAD SWAP1 PUSH2 0x100 EXP SWAP1 DIV PUSH20 0xFFFFFFFFFFFFFFFFFFFFFFFFFFFFFFFFFFFFFFFF AND SWAP1 DUP1 PUSH1 0x1 ADD DUP1 SLOAD PUSH2 0xCC0 SWAP1 PUSH2 0x5F42 JUMP JUMPDEST DUP1 PUSH1 0x1F ADD PUSH1 0x20 DUP1 SWAP2 DIV MUL PUSH1 0x20 ADD PUSH1 0x40 MLOAD SWAP1 DUP2 ADD PUSH1 0x40 MSTORE DUP1 SWAP3 SWAP2 SWAP1 DUP2 DUP2 MSTORE PUSH1 0x20 ADD DUP3 DUP1 SLOAD PUSH2 0xCEC SWAP1 PUSH2 0x5F42 JUMP JUMPDEST DUP1 ISZERO PUSH2 0xD39 JUMPI DUP1 PUSH1 0x1F LT PUSH2 0xD0E JUMPI PUSH2 0x100 DUP1 DUP4 SLOAD DIV MUL DUP4 MSTORE SWAP2 PUSH1 0x20 ADD SWAP2 PUSH2 0xD39 JUMP JUMPDEST DUP3 ADD SWAP2 SWAP1 PUSH1 0x0 MSTORE PUSH1 0x20 PUSH1 0x0 KECCAK256 SWAP1 JUMPDEST DUP2 SLOAD DUP2 MSTORE SWAP1 PUSH1 0x1 ADD SWAP1 PUSH1 0x20 ADD DUP1 DUP4 GT PUSH2 0xD1C JUMPI DUP3 SWAP1 SUB PUSH1 0x1F AND DUP3 ADD SWAP2 JUMPDEST POP POP POP POP POP SWAP1 DUP1 PUSH1 0x2 ADD PUSH1 0x0 SWAP1 SLOAD SWAP1 PUSH2 0x100 EXP SWAP1 DIV PUSH1 0xFF AND SWAP1 POP DUP4 JUMP JUMPDEST PUSH1 0xE DUP1 SLOAD PUSH2 0xD63 SWAP1 PUSH2 0x5F42 JUMP JUMPDEST DUP1 PUSH1 0x1F ADD PUSH1 0x20 DUP1 SWAP2 DIV MUL PUSH1 0x20 ADD PUSH1 0x40 MLOAD SWAP1 DUP2 ADD PUSH1 0x40 MSTORE DUP1 SWAP3 SWAP2 SWAP1 DUP2 DUP2 MSTORE PUSH1 0x20 ADD DUP3 DUP1 SLOAD PUSH2 0xD8F SWAP1 PUSH2 0x5F42 JUMP JUMPDEST DUP1 ISZERO PUSH2 0xDDC JUMPI DUP1 PUSH1 0x1F LT PUSH2 0xDB1 JUMPI PUSH2 0x100 DUP1 DUP4 SLOAD DIV MUL DUP4 MSTORE SWAP2 PUSH1 0x20 ADD SWAP2 PUSH2 0xDDC JUMP JUMPDEST DUP3 ADD SWAP2 SWAP1 PUSH1 0x0 MSTORE PUSH1 0x20 PUSH1 0x0 KECCAK256 SWAP1 JUMPDEST DUP2 SLOAD DUP2 MSTORE SWAP1 PUSH1 0x1 ADD SWAP1 PUSH1 0x20 ADD DUP1 DUP4 GT PUSH2 0xDBF JUMPI DUP3 SWAP1 SUB PUSH1 0x1F AND DUP3 ADD SWAP2 JUMPDEST POP POP POP POP POP DUP2 JUMP JUMPDEST PUSH1 0x0 PUSH1 0x1 PUSH1 0x0 SWAP1 SLOAD SWAP1 PUSH2 0x100 EXP SWAP1 DIV PUSH20 0xFFFFFFFFFFFFFFFFFFFFFFFFFFFFFFFFFFFFFFFF AND PUSH20 0xFFFFFFFFFFFFFFFFFFFFFFFFFFFFFFFFFFFFFFFF AND CALLER PUSH20 0xFFFFFFFFFFFFFFFFFFFFFFFFFFFFFFFFFFFFFFFF AND EQ PUSH2 0xE76 JUMPI PUSH1 0x40 MLOAD PUSH32 0x8C379A000000000000000000000000000000000000000000000000000000000 DUP2 MSTORE PUSH1 0x4 ADD PUSH2 0xE6D SWAP1 PUSH2 0x5830 JUMP JUMPDEST PUSH1 0x40 MLOAD DUP1 SWAP2 SUB SWAP1 REVERT JUMPDEST PUSH1 0xC PUSH1 0x1 SWAP1 SLOAD SWAP1 PUSH2 0x100 EXP SWAP1 DIV PUSH1 0xFF AND ISZERO PUSH2 0xEC6 JUMPI PUSH1 0x40 MLOAD PUSH32 0x8C379A000000000000000000000000000000000000000000000000000000000 DUP2 MSTORE PUSH1 0x4 ADD PUSH2 0xEBD SWAP1 PUSH2 0x57F0 JUMP JUMPDEST PUSH1 0x40 MLOAD DUP1 SWAP2 SUB SWAP1 REVERT JUMPDEST PUSH1 0x0 PUSH1 0x4 DUP2 GT ISZERO PUSH2 0xF00 JUMPI PUSH32 0x4E487B7100000000000000000000000000000000000000000000000000000000 PUSH1 0x0 MSTORE PUSH1 0x21 PUSH1 0x4 MSTORE PUSH1 0x24 PUSH1 0x0 REVERT JUMPDEST PUSH1 0xF PUSH1 0x0 SWAP1 SLOAD SWAP1 PUSH2 0x100 EXP SWAP1 DIV PUSH1 0xFF AND PUSH1 0x4 DUP2 GT ISZERO PUSH2 0xF48 JUMPI PUSH32 0x4E487B7100000000000000000000000000000000000000000000000000000000 PUSH1 0x0 MSTORE PUSH1 0x21 PUSH1 0x4 MSTORE PUSH1 0x24 PUSH1 0x0 REVERT JUMPDEST EQ PUSH2 0xF88 JUMPI PUSH1 0x40 MLOAD PUSH32 0x8C379A000000000000000000000000000000000000000000000000000000000 DUP2 MSTORE PUSH1 0x4 ADD PUSH2 0xF7F SWAP1 PUSH2 0x5810 JUMP JUMPDEST PUSH1 0x40 MLOAD DUP1 SWAP2 SUB SWAP1 REVERT JUMPDEST DUP2 PUSH1 0x13 PUSH1 0x0 PUSH2 0x100 EXP DUP2 SLOAD DUP2 PUSH20 0xFFFFFFFFFFFFFFFFFFFFFFFFFFFFFFFFFFFFFFFF MUL NOT AND SWAP1 DUP4 PUSH20 0xFFFFFFFFFFFFFFFFFFFFFFFFFFFFFFFFFFFFFFFF AND MUL OR SWAP1 SSTORE POP PUSH32 0x0 PUSH20 0xFFFFFFFFFFFFFFFFFFFFFFFFFFFFFFFFFFFFFFFF AND PUSH4 0x6E6BE03F PUSH1 0x11 PUSH1 0x0 SWAP1 SLOAD SWAP1 PUSH2 0x100 EXP SWAP1 DIV PUSH20 0xFFFFFFFFFFFFFFFFFFFFFFFFFFFFFFFFFFFFFFFF AND PUSH1 0x12 SLOAD ADDRESS PUSH1 0x13 PUSH1 0x0 SWAP1 SLOAD SWAP1 PUSH2 0x100 EXP SWAP1 DIV PUSH20 0xFFFFFFFFFFFFFFFFFFFFFFFFFFFFFFFFFFFFFFFF AND ADDRESS PUSH4 0xE908CD92 PUSH1 0xE0 SHL PUSH1 0x40 MLOAD DUP8 PUSH4 0xFFFFFFFF AND PUSH1 0xE0 SHL DUP2 MSTORE PUSH1 0x4 ADD PUSH2 0x1079 SWAP7 SWAP6 SWAP5 SWAP4 SWAP3 SWAP2 SWAP1 PUSH2 0x5471 JUMP JUMPDEST PUSH1 0x20 PUSH1 0x40 MLOAD DUP1 DUP4 SUB DUP2 PUSH1 0x0 DUP8 DUP1 EXTCODESIZE ISZERO DUP1 ISZERO PUSH2 0x1093 JUMPI PUSH1 0x0 DUP1 REVERT JUMPDEST POP GAS CALL ISZERO DUP1 ISZERO PUSH2 0x10A7 JUMPI RETURNDATASIZE PUSH1 0x0 DUP1 RETURNDATACOPY RETURNDATASIZE PUSH1 0x0 REVERT JUMPDEST POP POP POP POP PUSH1 0x40 MLOAD RETURNDATASIZE PUSH1 0x1F NOT PUSH1 0x1F DUP3 ADD AND DUP3 ADD DUP1 PUSH1 0x40 MSTORE POP DUP2 ADD SWAP1 PUSH2 0x10CB SWAP2 SWAP1 PUSH2 0x44D1 JUMP JUMPDEST POP PUSH1 0x1 PUSH1 0xC PUSH1 0x1 PUSH2 0x100 EXP DUP2 SLOAD DUP2 PUSH1 0xFF MUL NOT AND SWAP1 DUP4 ISZERO ISZERO MUL OR SWAP1 SSTORE POP PUSH1 0x1 SWAP1 POP SWAP2 SWAP1 POP JUMP JUMPDEST PUSH1 0x9 PUSH1 0x1 SWAP1 SLOAD SWAP1 PUSH2 0x100 EXP SWAP1 DIV PUSH1 0xFF AND DUP2 JUMP JUMPDEST PUSH1 0xC PUSH1 0x3 SWAP1 SLOAD SWAP1 PUSH2 0x100 EXP SWAP1 DIV PUSH1 0xFF AND DUP2 JUMP JUMPDEST PUSH1 0x4 SLOAD DUP2 JUMP JUMPDEST PUSH1 0x1 PUSH1 0x0 SWAP1 SLOAD SWAP1 PUSH2 0x100 EXP SWAP1 DIV PUSH20 0xFFFFFFFFFFFFFFFFFFFFFFFFFFFFFFFFFFFFFFFF AND PUSH20 0xFFFFFFFFFFFFFFFFFFFFFFFFFFFFFFFFFFFFFFFF AND CALLER PUSH20 0xFFFFFFFFFFFFFFFFFFFFFFFFFFFFFFFFFFFFFFFF AND EQ PUSH2 0x11AC JUMPI PUSH1 0x40 MLOAD PUSH32 0x8C379A000000000000000000000000000000000000000000000000000000000 DUP2 MSTORE PUSH1 0x4 ADD PUSH2 0x11A3 SWAP1 PUSH2 0x5830 JUMP JUMPDEST PUSH1 0x40 MLOAD DUP1 SWAP2 SUB SWAP1 REVERT JUMPDEST PUSH32 0x0 PUSH20 0xFFFFFFFFFFFFFFFFFFFFFFFFFFFFFFFFFFFFFFFF AND PUSH4 0x1D414CBD PUSH1 0x11 PUSH1 0x0 SWAP1 SLOAD SWAP1 PUSH2 0x100 EXP SWAP1 DIV PUSH20 0xFFFFFFFFFFFFFFFFFFFFFFFFFFFFFFFFFFFFFFFF AND PUSH1 0x13 PUSH1 0x0 SWAP1 SLOAD SWAP1 PUSH2 0x100 EXP SWAP1 DIV PUSH20 0xFFFFFFFFFFFFFFFFFFFFFFFFFFFFFFFFFFFFFFFF AND PUSH1 0x40 MLOAD DUP4 PUSH4 0xFFFFFFFF AND PUSH1 0xE0 SHL DUP2 MSTORE PUSH1 0x4 ADD PUSH2 0x124B SWAP3 SWAP2 SWAP1 PUSH2 0x5448 JUMP JUMPDEST PUSH1 0x0 PUSH1 0x40 MLOAD DUP1 DUP4 SUB DUP2 PUSH1 0x0 DUP8 DUP1 EXTCODESIZE ISZERO DUP1 ISZERO PUSH2 0x1265 JUMPI PUSH1 0x0 DUP1 REVERT JUMPDEST POP GAS CALL ISZERO DUP1 ISZERO PUSH2 0x1279 JUMPI RETURNDATASIZE PUSH1 0x0 DUP1 RETURNDATACOPY RETURNDATASIZE PUSH1 0x0 REVERT JUMPDEST POP POP POP POP JUMP JUMPDEST PUSH1 0x0 SLOAD DUP2 JUMP JUMPDEST PUSH1 0xC PUSH1 0x1 SWAP1 SLOAD SWAP1 PUSH2 0x100 EXP SWAP1 DIV PUSH1 0xFF AND DUP2 JUMP JUMPDEST PUSH1 0xC PUSH1 0x4 SWAP1 SLOAD SWAP1 PUSH2 0x100 EXP SWAP1 DIV PUSH1 0xFF AND DUP2 JUMP JUMPDEST PUSH1 0xC PUSH1 0x0 SWAP1 SLOAD SWAP1 PUSH2 0x100 EXP SWAP1 DIV PUSH1 0xFF AND DUP2 JUMP JUMPDEST PUSH1 0x7 DUP2 DUP2 SLOAD DUP2 LT PUSH2 0x12CE JUMPI PUSH1 0x0 DUP1 REVERT JUMPDEST SWAP1 PUSH1 0x0 MSTORE PUSH1 0x20 PUSH1 0x0 KECCAK256 ADD PUSH1 0x0 SWAP2 POP SWAP1 POP DUP1 SLOAD PUSH2 0x12E9 SWAP1 PUSH2 0x5F42 JUMP JUMPDEST DUP1 PUSH1 0x1F ADD PUSH1 0x20 DUP1 SWAP2 DIV MUL PUSH1 0x20 ADD PUSH1 0x40 MLOAD SWAP1 DUP2 ADD PUSH1 0x40 MSTORE DUP1 SWAP3 SWAP2 SWAP1 DUP2 DUP2 MSTORE PUSH1 0x20 ADD DUP3 DUP1 SLOAD PUSH2 0x1315 SWAP1 PUSH2 0x5F42 JUMP JUMPDEST DUP1 ISZERO PUSH2 0x1362 JUMPI DUP1 PUSH1 0x1F LT PUSH2 0x1337 JUMPI PUSH2 0x100 DUP1 DUP4 SLOAD DIV MUL DUP4 MSTORE SWAP2 PUSH1 0x20 ADD SWAP2 PUSH2 0x1362 JUMP JUMPDEST DUP3 ADD SWAP2 SWAP1 PUSH1 0x0 MSTORE PUSH1 0x20 PUSH1 0x0 KECCAK256 SWAP1 JUMPDEST DUP2 SLOAD DUP2 MSTORE SWAP1 PUSH1 0x1 ADD SWAP1 PUSH1 0x20 ADD DUP1 DUP4 GT PUSH2 0x1345 JUMPI DUP3 SWAP1 SUB PUSH1 0x1F AND DUP3 ADD SWAP2 JUMPDEST POP POP POP POP POP DUP2 JUMP JUMPDEST PUSH32 0x0 DUP2 JUMP JUMPDEST PUSH1 0xF PUSH1 0x0 SWAP1 SLOAD SWAP1 PUSH2 0x100 EXP SWAP1 DIV PUSH1 0xFF AND DUP2 JUMP JUMPDEST PUSH1 0x60 PUSH1 0x1 PUSH1 0x0 SWAP1 SLOAD SWAP1 PUSH2 0x100 EXP SWAP1 DIV PUSH20 0xFFFFFFFFFFFFFFFFFFFFFFFFFFFFFFFFFFFFFFFF AND PUSH20 0xFFFFFFFFFFFFFFFFFFFFFFFFFFFFFFFFFFFFFFFF AND CALLER PUSH20 0xFFFFFFFFFFFFFFFFFFFFFFFFFFFFFFFFFFFFFFFF AND EQ PUSH2 0x1433 JUMPI PUSH1 0x40 MLOAD PUSH32 0x8C379A000000000000000000000000000000000000000000000000000000000 DUP2 MSTORE PUSH1 0x4 ADD PUSH2 0x142A SWAP1 PUSH2 0x5830 JUMP JUMPDEST PUSH1 0x40 MLOAD DUP1 SWAP2 SUB SWAP1 REVERT JUMPDEST PUSH1 0x0 JUMPDEST PUSH1 0x6 DUP2 LT ISZERO PUSH2 0x168E JUMPI DUP3 PUSH20 0xFFFFFFFFFFFFFFFFFFFFFFFFFFFFFFFFFFFFFFFF AND PUSH1 0x10 DUP3 DUP2 SLOAD DUP2 LT PUSH2 0x1490 JUMPI PUSH32 0x4E487B7100000000000000000000000000000000000000000000000000000000 PUSH1 0x0 MSTORE PUSH1 0x32 PUSH1 0x4 MSTORE PUSH1 0x24 PUSH1 0x0 REVERT JUMPDEST SWAP1 PUSH1 0x0 MSTORE PUSH1 0x20 PUSH1 0x0 KECCAK256 SWAP1 PUSH1 0x3 MUL ADD PUSH1 0x0 ADD PUSH1 0x0 SWAP1 SLOAD SWAP1 PUSH2 0x100 EXP SWAP1 DIV PUSH20 0xFFFFFFFFFFFFFFFFFFFFFFFFFFFFFFFFFFFFFFFF AND PUSH20 0xFFFFFFFFFFFFFFFFFFFFFFFFFFFFFFFFFFFFFFFF AND EQ ISZERO PUSH2 0x167B JUMPI PUSH1 0xD SLOAD PUSH1 0x2 PUSH1 0x0 SWAP1 SLOAD SWAP1 PUSH2 0x100 EXP SWAP1 DIV PUSH20 0xFFFFFFFFFFFFFFFFFFFFFFFFFFFFFFFFFFFFFFFF AND PUSH20 0xFFFFFFFFFFFFFFFFFFFFFFFFFFFFFFFFFFFFFFFF AND TIMESTAMP PUSH32 0x6EA5374B0088556F804D142E3CE73751AAFFDEA551CEC3533CBDE664877653DD PUSH1 0x1 DUP8 DUP10 PUSH1 0x40 MLOAD PUSH2 0x154F SWAP4 SWAP3 SWAP2 SWAP1 PUSH2 0x558F JUMP JUMPDEST PUSH1 0x40 MLOAD DUP1 SWAP2 SUB SWAP1 LOG4 PUSH1 0x9 PUSH1 0x0 DUP2 DUP2 SWAP1 SLOAD SWAP1 PUSH2 0x100 EXP SWAP1 DIV PUSH1 0xFF AND DUP1 SWAP3 SWAP2 SWAP1 PUSH2 0x1576 SWAP1 PUSH2 0x5F18 JUMP JUMPDEST SWAP2 SWAP1 PUSH2 0x100 EXP DUP2 SLOAD DUP2 PUSH1 0xFF MUL NOT AND SWAP1 DUP4 PUSH1 0xFF AND MUL OR SWAP1 SSTORE POP POP PUSH2 0x1597 PUSH2 0x35C3 JUMP JUMPDEST DUP3 PUSH20 0xFFFFFFFFFFFFFFFFFFFFFFFFFFFFFFFFFFFFFFFF AND PUSH1 0x3 PUSH1 0x0 SWAP1 SLOAD SWAP1 PUSH2 0x100 EXP SWAP1 DIV PUSH20 0xFFFFFFFFFFFFFFFFFFFFFFFFFFFFFFFFFFFFFFFF AND PUSH20 0xFFFFFFFFFFFFFFFFFFFFFFFFFFFFFFFFFFFFFFFF AND EQ ISZERO PUSH2 0x15F6 JUMPI PUSH2 0x15F5 PUSH2 0x3B55 JUMP JUMPDEST JUMPDEST PUSH1 0x1 PUSH1 0x10 DUP3 DUP2 SLOAD DUP2 LT PUSH2 0x1632 JUMPI PUSH32 0x4E487B7100000000000000000000000000000000000000000000000000000000 PUSH1 0x0 MSTORE PUSH1 0x32 PUSH1 0x4 MSTORE PUSH1 0x24 PUSH1 0x0 REVERT JUMPDEST SWAP1 PUSH1 0x0 MSTORE PUSH1 0x20 PUSH1 0x0 KECCAK256 SWAP1 PUSH1 0x3 MUL ADD PUSH1 0x2 ADD PUSH1 0x0 PUSH2 0x100 EXP DUP2 SLOAD DUP2 PUSH1 0xFF MUL NOT AND SWAP1 DUP4 ISZERO ISZERO MUL OR SWAP1 SSTORE POP PUSH1 0x40 MLOAD DUP1 PUSH1 0x60 ADD PUSH1 0x40 MSTORE DUP1 PUSH1 0x2B DUP2 MSTORE PUSH1 0x20 ADD PUSH2 0x61E4 PUSH1 0x2B SWAP2 CODECOPY SWAP2 POP POP PUSH2 0x16EC JUMP JUMPDEST DUP1 DUP1 PUSH2 0x1686 SWAP1 PUSH2 0x5F74 JUMP JUMPDEST SWAP2 POP POP PUSH2 0x1436 JUMP JUMPDEST POP PUSH1 0x0 PUSH2 0x16D0 JUMPI PUSH1 0x40 MLOAD PUSH32 0x8C379A000000000000000000000000000000000000000000000000000000000 DUP2 MSTORE PUSH1 0x4 ADD PUSH2 0x16C7 SWAP1 PUSH2 0x5910 JUMP JUMPDEST PUSH1 0x40 MLOAD DUP1 SWAP2 SUB SWAP1 REVERT JUMPDEST PUSH1 0x40 MLOAD DUP1 PUSH1 0x80 ADD PUSH1 0x40 MSTORE DUP1 PUSH1 0x48 DUP2 MSTORE PUSH1 0x20 ADD PUSH2 0x619C PUSH1 0x48 SWAP2 CODECOPY SWAP1 POP JUMPDEST SWAP3 SWAP2 POP POP JUMP JUMPDEST PUSH1 0x1 PUSH1 0x0 SWAP1 SLOAD SWAP1 PUSH2 0x100 EXP SWAP1 DIV PUSH20 0xFFFFFFFFFFFFFFFFFFFFFFFFFFFFFFFFFFFFFFFF AND PUSH20 0xFFFFFFFFFFFFFFFFFFFFFFFFFFFFFFFFFFFFFFFF AND CALLER PUSH20 0xFFFFFFFFFFFFFFFFFFFFFFFFFFFFFFFFFFFFFFFF AND EQ PUSH2 0x1782 JUMPI PUSH1 0x40 MLOAD PUSH32 0x8C379A000000000000000000000000000000000000000000000000000000000 DUP2 MSTORE PUSH1 0x4 ADD PUSH2 0x1779 SWAP1 PUSH2 0x5830 JUMP JUMPDEST PUSH1 0x40 MLOAD DUP1 SWAP2 SUB SWAP1 REVERT JUMPDEST PUSH1 0xC PUSH1 0x4 SWAP1 SLOAD SWAP1 PUSH2 0x100 EXP SWAP1 DIV PUSH1 0xFF AND PUSH2 0x17D1 JUMPI PUSH1 0x40 MLOAD PUSH32 0x8C379A000000000000000000000000000000000000000000000000000000000 DUP2 MSTORE PUSH1 0x4 ADD PUSH2 0x17C8 SWAP1 PUSH2 0x59F0 JUMP JUMPDEST PUSH1 0x40 MLOAD DUP1 SWAP2 SUB SWAP1 REVERT JUMPDEST PUSH1 0x4 DUP1 DUP2 GT ISZERO PUSH2 0x180A JUMPI PUSH32 0x4E487B7100000000000000000000000000000000000000000000000000000000 PUSH1 0x0 MSTORE PUSH1 0x21 PUSH1 0x4 MSTORE PUSH1 0x24 PUSH1 0x0 REVERT JUMPDEST PUSH1 0xF PUSH1 0x0 SWAP1 SLOAD SWAP1 PUSH2 0x100 EXP SWAP1 DIV PUSH1 0xFF AND PUSH1 0x4 DUP2 GT ISZERO PUSH2 0x1852 JUMPI PUSH32 0x4E487B7100000000000000000000000000000000000000000000000000000000 PUSH1 0x0 MSTORE PUSH1 0x21 PUSH1 0x4 MSTORE PUSH1 0x24 PUSH1 0x0 REVERT JUMPDEST EQ PUSH2 0x1892 JUMPI PUSH1 0x40 MLOAD PUSH32 0x8C379A000000000000000000000000000000000000000000000000000000000 DUP2 MSTORE PUSH1 0x4 ADD PUSH2 0x1889 SWAP1 PUSH2 0x5870 JUMP JUMPDEST PUSH1 0x40 MLOAD DUP1 SWAP2 SUB SWAP1 REVERT JUMPDEST PUSH1 0x10 PUSH1 0x0 PUSH2 0x18A0 SWAP2 SWAP1 PUSH2 0x3F1C JUMP JUMPDEST PUSH1 0x0 PUSH1 0x9 PUSH1 0x0 PUSH2 0x100 EXP DUP2 SLOAD DUP2 PUSH1 0xFF MUL NOT AND SWAP1 DUP4 PUSH1 0xFF AND MUL OR SWAP1 SSTORE POP PUSH1 0x0 PUSH1 0xB DUP2 SWAP1 SSTORE POP PUSH1 0x0 PUSH1 0xF PUSH1 0x0 PUSH2 0x100 EXP DUP2 SLOAD DUP2 PUSH1 0xFF MUL NOT AND SWAP1 DUP4 PUSH1 0x4 DUP2 GT ISZERO PUSH2 0x1910 JUMPI PUSH32 0x4E487B7100000000000000000000000000000000000000000000000000000000 PUSH1 0x0 MSTORE PUSH1 0x21 PUSH1 0x4 MSTORE PUSH1 0x24 PUSH1 0x0 REVERT JUMPDEST MUL OR SWAP1 SSTORE POP PUSH1 0x0 DUP2 PUSH20 0xFFFFFFFFFFFFFFFFFFFFFFFFFFFFFFFFFFFFFFFF AND PUSH1 0x4 SLOAD PUSH1 0x40 MLOAD PUSH2 0x193D SWAP1 PUSH2 0x5418 JUMP JUMPDEST PUSH1 0x0 PUSH1 0x40 MLOAD DUP1 DUP4 SUB DUP2 DUP6 DUP8 GAS CALL SWAP3 POP POP POP RETURNDATASIZE DUP1 PUSH1 0x0 DUP2 EQ PUSH2 0x197A JUMPI PUSH1 0x40 MLOAD SWAP2 POP PUSH1 0x1F NOT PUSH1 0x3F RETURNDATASIZE ADD AND DUP3 ADD PUSH1 0x40 MSTORE RETURNDATASIZE DUP3 MSTORE RETURNDATASIZE PUSH1 0x0 PUSH1 0x20 DUP5 ADD RETURNDATACOPY PUSH2 0x197F JUMP JUMPDEST PUSH1 0x60 SWAP2 POP JUMPDEST POP POP SWAP1 POP DUP1 PUSH2 0x19C3 JUMPI PUSH1 0x40 MLOAD PUSH32 0x8C379A000000000000000000000000000000000000000000000000000000000 DUP2 MSTORE PUSH1 0x4 ADD PUSH2 0x19BA SWAP1 PUSH2 0x57B0 JUMP JUMPDEST PUSH1 0x40 MLOAD DUP1 SWAP2 SUB SWAP1 REVERT JUMPDEST PUSH1 0x0 PUSH1 0x4 DUP2 SWAP1 SSTORE POP PUSH1 0x0 PUSH1 0x5 DUP2 SWAP1 SSTORE POP PUSH1 0xD PUSH1 0x0 DUP2 SLOAD DUP1 SWAP3 SWAP2 SWAP1 PUSH2 0x19E6 SWAP1 PUSH2 0x5F74 JUMP JUMPDEST SWAP2 SWAP1 POP SSTORE POP POP POP JUMP JUMPDEST PUSH1 0x3 PUSH1 0x0 SWAP1 SLOAD SWAP1 PUSH2 0x100 EXP SWAP1 DIV PUSH20 0xFFFFFFFFFFFFFFFFFFFFFFFFFFFFFFFFFFFFFFFF AND PUSH20 0xFFFFFFFFFFFFFFFFFFFFFFFFFFFFFFFFFFFFFFFF AND CALLER PUSH20 0xFFFFFFFFFFFFFFFFFFFFFFFFFFFFFFFFFFFFFFFF AND EQ PUSH2 0x1A7F JUMPI PUSH1 0x40 MLOAD PUSH32 0x8C379A000000000000000000000000000000000000000000000000000000000 DUP2 MSTORE PUSH1 0x4 ADD PUSH2 0x1A76 SWAP1 PUSH2 0x59D0 JUMP JUMPDEST PUSH1 0x40 MLOAD DUP1 SWAP2 SUB SWAP1 REVERT JUMPDEST PUSH1 0x0 PUSH1 0x4 DUP2 GT ISZERO PUSH2 0x1AB9 JUMPI PUSH32 0x4E487B7100000000000000000000000000000000000000000000000000000000 PUSH1 0x0 MSTORE PUSH1 0x21 PUSH1 0x4 MSTORE PUSH1 0x24 PUSH1 0x0 REVERT JUMPDEST PUSH1 0xF PUSH1 0x0 SWAP1 SLOAD SWAP1 PUSH2 0x100 EXP SWAP1 DIV PUSH1 0xFF AND PUSH1 0x4 DUP2 GT ISZERO PUSH2 0x1B01 JUMPI PUSH32 0x4E487B7100000000000000000000000000000000000000000000000000000000 PUSH1 0x0 MSTORE PUSH1 0x21 PUSH1 0x4 MSTORE PUSH1 0x24 PUSH1 0x0 REVERT JUMPDEST EQ ISZERO PUSH2 0x1B42 JUMPI PUSH1 0x40 MLOAD PUSH32 0x8C379A000000000000000000000000000000000000000000000000000000000 DUP2 MSTORE PUSH1 0x4 ADD PUSH2 0x1B39 SWAP1 PUSH2 0x58D0 JUMP JUMPDEST PUSH1 0x40 MLOAD DUP1 SWAP2 SUB SWAP1 REVERT JUMPDEST PUSH1 0x4 DUP1 DUP2 GT ISZERO PUSH2 0x1B7B JUMPI PUSH32 0x4E487B7100000000000000000000000000000000000000000000000000000000 PUSH1 0x0 MSTORE PUSH1 0x21 PUSH1 0x4 MSTORE PUSH1 0x24 PUSH1 0x0 REVERT JUMPDEST PUSH1 0xF PUSH1 0x0 SWAP1 SLOAD SWAP1 PUSH2 0x100 EXP SWAP1 DIV PUSH1 0xFF AND PUSH1 0x4 DUP2 GT ISZERO PUSH2 0x1BC3 JUMPI PUSH32 0x4E487B7100000000000000000000000000000000000000000000000000000000 PUSH1 0x0 MSTORE PUSH1 0x21 PUSH1 0x4 MSTORE PUSH1 0x24 PUSH1 0x0 REVERT JUMPDEST EQ ISZERO PUSH2 0x1C04 JUMPI PUSH1 0x40 MLOAD PUSH32 0x8C379A000000000000000000000000000000000000000000000000000000000 DUP2 MSTORE PUSH1 0x4 ADD PUSH2 0x1BFB SWAP1 PUSH2 0x5890 JUMP JUMPDEST PUSH1 0x40 MLOAD DUP1 SWAP2 SUB SWAP1 REVERT JUMPDEST PUSH1 0x5 SLOAD DUP2 GT PUSH2 0x1C48 JUMPI PUSH1 0x40 MLOAD PUSH32 0x8C379A000000000000000000000000000000000000000000000000000000000 DUP2 MSTORE PUSH1 0x4 ADD PUSH2 0x1C3F SWAP1 PUSH2 0x58B0 JUMP JUMPDEST PUSH1 0x40 MLOAD DUP1 SWAP2 SUB SWAP1 REVERT JUMPDEST PUSH1 0x5 SLOAD PUSH1 0x2 PUSH2 0x1C57 SWAP2 SWAP1 PUSH2 0x5D18 JUMP JUMPDEST DUP2 GT ISZERO PUSH2 0x1C99 JUMPI PUSH1 0x40 MLOAD PUSH32 0x8C379A000000000000000000000000000000000000000000000000000000000 DUP2 MSTORE PUSH1 0x4 ADD PUSH2 0x1C90 SWAP1 PUSH2 0x5950 JUMP JUMPDEST PUSH1 0x40 MLOAD DUP1 SWAP2 SUB SWAP1 REVERT JUMPDEST DUP1 CALLVALUE LT ISZERO PUSH2 0x1CDC JUMPI PUSH1 0x40 MLOAD PUSH32 0x8C379A000000000000000000000000000000000000000000000000000000000 DUP2 MSTORE PUSH1 0x4 ADD PUSH2 0x1CD3 SWAP1 PUSH2 0x58F0 JUMP JUMPDEST PUSH1 0x40 MLOAD DUP1 SWAP2 SUB SWAP1 REVERT JUMPDEST CALLVALUE PUSH1 0x4 PUSH1 0x0 DUP3 DUP3 SLOAD PUSH2 0x1CEE SWAP2 SWAP1 PUSH2 0x5C91 JUMP JUMPDEST SWAP3 POP POP DUP2 SWAP1 SSTORE POP DUP1 PUSH1 0x5 DUP2 SWAP1 SSTORE POP PUSH2 0x1D04 PUSH2 0x35C3 JUMP JUMPDEST PUSH2 0x1D0C PUSH2 0x3B55 JUMP JUMPDEST PUSH1 0xD SLOAD PUSH1 0x2 PUSH1 0x0 SWAP1 SLOAD SWAP1 PUSH2 0x100 EXP SWAP1 DIV PUSH20 0xFFFFFFFFFFFFFFFFFFFFFFFFFFFFFFFFFFFFFFFF AND PUSH20 0xFFFFFFFFFFFFFFFFFFFFFFFFFFFFFFFFFFFFFFFF AND TIMESTAMP PUSH32 0x578D068F1F6076045AA1D8CCEDDE9E9C5E3E8DFC3A394CF2544E8E629BCF821C PUSH1 0x2 CALLER DUP7 PUSH1 0x4 SLOAD PUSH1 0x3 PUSH1 0x0 SWAP1 SLOAD SWAP1 PUSH2 0x100 EXP SWAP1 DIV PUSH20 0xFFFFFFFFFFFFFFFFFFFFFFFFFFFFFFFFFFFFFFFF AND PUSH1 0x40 MLOAD PUSH2 0x1DA5 SWAP6 SWAP5 SWAP4 SWAP3 SWAP2 SWAP1 PUSH2 0x564E JUMP JUMPDEST PUSH1 0x40 MLOAD DUP1 SWAP2 SUB SWAP1 LOG4 POP JUMP JUMPDEST PUSH1 0xB SLOAD DUP2 JUMP JUMPDEST PUSH1 0x1 PUSH1 0x0 SWAP1 SLOAD SWAP1 PUSH2 0x100 EXP SWAP1 DIV PUSH20 0xFFFFFFFFFFFFFFFFFFFFFFFFFFFFFFFFFFFFFFFF AND PUSH20 0xFFFFFFFFFFFFFFFFFFFFFFFFFFFFFFFFFFFFFFFF AND CALLER PUSH20 0xFFFFFFFFFFFFFFFFFFFFFFFFFFFFFFFFFFFFFFFF AND EQ PUSH2 0x1E46 JUMPI PUSH1 0x40 MLOAD PUSH32 0x8C379A000000000000000000000000000000000000000000000000000000000 DUP2 MSTORE PUSH1 0x4 ADD PUSH2 0x1E3D SWAP1 PUSH2 0x5830 JUMP JUMPDEST PUSH1 0x40 MLOAD DUP1 SWAP2 SUB SWAP1 REVERT JUMPDEST PUSH1 0x0 DUP2 PUSH20 0xFFFFFFFFFFFFFFFFFFFFFFFFFFFFFFFFFFFFFFFF AND SELFBALANCE PUSH1 0x40 MLOAD PUSH2 0x1E6C SWAP1 PUSH2 0x5418 JUMP JUMPDEST PUSH1 0x0 PUSH1 0x40 MLOAD DUP1 DUP4 SUB DUP2 DUP6 DUP8 GAS CALL SWAP3 POP POP POP RETURNDATASIZE DUP1 PUSH1 0x0 DUP2 EQ PUSH2 0x1EA9 JUMPI PUSH1 0x40 MLOAD SWAP2 POP PUSH1 0x1F NOT PUSH1 0x3F RETURNDATASIZE ADD AND DUP3 ADD PUSH1 0x40 MSTORE RETURNDATASIZE DUP3 MSTORE RETURNDATASIZE PUSH1 0x0 PUSH1 0x20 DUP5 ADD RETURNDATACOPY PUSH2 0x1EAE JUMP JUMPDEST PUSH1 0x60 SWAP2 POP JUMPDEST POP POP SWAP1 POP DUP1 PUSH2 0x1EF2 JUMPI PUSH1 0x40 MLOAD PUSH32 0x8C379A000000000000000000000000000000000000000000000000000000000 DUP2 MSTORE PUSH1 0x4 ADD PUSH2 0x1EE9 SWAP1 PUSH2 0x59B0 JUMP JUMPDEST PUSH1 0x40 MLOAD DUP1 SWAP2 SUB SWAP1 REVERT JUMPDEST POP POP JUMP JUMPDEST PUSH1 0x11 PUSH1 0x0 SWAP1 SLOAD SWAP1 PUSH2 0x100 EXP SWAP1 DIV PUSH20 0xFFFFFFFFFFFFFFFFFFFFFFFFFFFFFFFFFFFFFFFF AND DUP2 JUMP JUMPDEST PUSH1 0x6 DUP2 DUP2 SLOAD DUP2 LT PUSH2 0x1F2C JUMPI PUSH1 0x0 DUP1 REVERT JUMPDEST SWAP1 PUSH1 0x0 MSTORE PUSH1 0x20 PUSH1 0x0 KECCAK256 ADD PUSH1 0x0 SWAP2 POP SWAP1 POP DUP1 SLOAD PUSH2 0x1F47 SWAP1 PUSH2 0x5F42 JUMP JUMPDEST DUP1 PUSH1 0x1F ADD PUSH1 0x20 DUP1 SWAP2 DIV MUL PUSH1 0x20 ADD PUSH1 0x40 MLOAD SWAP1 DUP2 ADD PUSH1 0x40 MSTORE DUP1 SWAP3 SWAP2 SWAP1 DUP2 DUP2 MSTORE PUSH1 0x20 ADD DUP3 DUP1 SLOAD PUSH2 0x1F73 SWAP1 PUSH2 0x5F42 JUMP JUMPDEST DUP1 ISZERO PUSH2 0x1FC0 JUMPI DUP1 PUSH1 0x1F LT PUSH2 0x1F95 JUMPI PUSH2 0x100 DUP1 DUP4 SLOAD DIV MUL DUP4 MSTORE SWAP2 PUSH1 0x20 ADD SWAP2 PUSH2 0x1FC0 JUMP JUMPDEST DUP3 ADD SWAP2 SWAP1 PUSH1 0x0 MSTORE PUSH1 0x20 PUSH1 0x0 KECCAK256 SWAP1 JUMPDEST DUP2 SLOAD DUP2 MSTORE SWAP1 PUSH1 0x1 ADD SWAP1 PUSH1 0x20 ADD DUP1 DUP4 GT PUSH2 0x1FA3 JUMPI DUP3 SWAP1 SUB PUSH1 0x1F AND DUP3 ADD SWAP2 JUMPDEST POP POP POP POP POP DUP2 JUMP JUMPDEST PUSH1 0x1 PUSH1 0x0 SWAP1 SLOAD SWAP1 PUSH2 0x100 EXP SWAP1 DIV PUSH20 0xFFFFFFFFFFFFFFFFFFFFFFFFFFFFFFFFFFFFFFFF AND PUSH20 0xFFFFFFFFFFFFFFFFFFFFFFFFFFFFFFFFFFFFFFFF AND CALLER PUSH20 0xFFFFFFFFFFFFFFFFFFFFFFFFFFFFFFFFFFFFFFFF AND EQ PUSH2 0x2058 JUMPI PUSH1 0x40 MLOAD PUSH32 0x8C379A000000000000000000000000000000000000000000000000000000000 DUP2 MSTORE PUSH1 0x4 ADD PUSH2 0x204F SWAP1 PUSH2 0x5830 JUMP JUMPDEST PUSH1 0x40 MLOAD DUP1 SWAP2 SUB SWAP1 REVERT JUMPDEST PUSH1 0x0 PUSH1 0x4 DUP2 GT ISZERO PUSH2 0x2092 JUMPI PUSH32 0x4E487B7100000000000000000000000000000000000000000000000000000000 PUSH1 0x0 MSTORE PUSH1 0x21 PUSH1 0x4 MSTORE PUSH1 0x24 PUSH1 0x0 REVERT JUMPDEST PUSH1 0xF PUSH1 0x0 SWAP1 SLOAD SWAP1 PUSH2 0x100 EXP SWAP1 DIV PUSH1 0xFF AND PUSH1 0x4 DUP2 GT ISZERO PUSH2 0x20DA JUMPI PUSH32 0x4E487B7100000000000000000000000000000000000000000000000000000000 PUSH1 0x0 MSTORE PUSH1 0x21 PUSH1 0x4 MSTORE PUSH1 0x24 PUSH1 0x0 REVERT JUMPDEST EQ PUSH2 0x211A JUMPI PUSH1 0x40 MLOAD PUSH32 0x8C379A000000000000000000000000000000000000000000000000000000000 DUP2 MSTORE PUSH1 0x4 ADD PUSH2 0x2111 SWAP1 PUSH2 0x5810 JUMP JUMPDEST PUSH1 0x40 MLOAD DUP1 SWAP2 SUB SWAP1 REVERT JUMPDEST PUSH1 0xC PUSH1 0x3 SWAP1 SLOAD SWAP1 PUSH2 0x100 EXP SWAP1 DIV PUSH1 0xFF AND PUSH2 0x2169 JUMPI PUSH1 0x40 MLOAD PUSH32 0x8C379A000000000000000000000000000000000000000000000000000000000 DUP2 MSTORE PUSH1 0x4 ADD PUSH2 0x2160 SWAP1 PUSH2 0x5970 JUMP JUMPDEST PUSH1 0x40 MLOAD DUP1 SWAP2 SUB SWAP1 REVERT JUMPDEST PUSH1 0xC PUSH1 0x0 SWAP1 SLOAD SWAP1 PUSH2 0x100 EXP SWAP1 DIV PUSH1 0xFF AND PUSH2 0x21B8 JUMPI PUSH1 0x40 MLOAD PUSH32 0x8C379A000000000000000000000000000000000000000000000000000000000 DUP2 MSTORE PUSH1 0x4 ADD PUSH2 0x21AF SWAP1 PUSH2 0x5A50 JUMP JUMPDEST PUSH1 0x40 MLOAD DUP1 SWAP2 SUB SWAP1 REVERT JUMPDEST PUSH1 0x0 PUSH1 0x16 PUSH1 0xB SLOAD PUSH2 0x21C9 SWAP2 SWAP1 PUSH2 0x5FE7 JUMP JUMPDEST SWAP1 POP PUSH1 0x0 PUSH1 0x8 DUP3 DUP2 SLOAD DUP2 LT PUSH2 0x2207 JUMPI PUSH32 0x4E487B7100000000000000000000000000000000000000000000000000000000 PUSH1 0x0 MSTORE PUSH1 0x32 PUSH1 0x4 MSTORE PUSH1 0x24 PUSH1 0x0 REVERT JUMPDEST SWAP1 PUSH1 0x0 MSTORE PUSH1 0x20 PUSH1 0x0 KECCAK256 ADD SLOAD SWAP1 POP PUSH1 0x0 PUSH1 0x1 PUSH1 0x33 PUSH2 0x3E8 PUSH1 0xB SLOAD PUSH2 0x222A SWAP2 SWAP1 PUSH2 0x5FE7 JUMP JUMPDEST PUSH4 0x5F5E100 PUSH1 0xB SLOAD PUSH2 0x223C SWAP2 SWAP1 PUSH2 0x5FE7 JUMP JUMPDEST PUSH2 0x2246 SWAP2 SWAP1 PUSH2 0x5CE7 JUMP JUMPDEST PUSH2 0x2250 SWAP2 SWAP1 PUSH2 0x5FE7 JUMP JUMPDEST PUSH2 0x225A SWAP2 SWAP1 PUSH2 0x5C91 JUMP JUMPDEST SWAP1 POP PUSH1 0x0 JUMPDEST PUSH1 0x11 DUP2 LT ISZERO PUSH2 0x2326 JUMPI PUSH1 0x0 PUSH1 0x34 DUP4 DUP4 DUP7 PUSH2 0x2279 SWAP2 SWAP1 PUSH2 0x5D18 JUMP JUMPDEST PUSH2 0x2283 SWAP2 SWAP1 PUSH2 0x5C91 JUMP JUMPDEST PUSH2 0x228D SWAP2 SWAP1 PUSH2 0x5FE7 JUMP JUMPDEST SWAP1 POP PUSH1 0x7 PUSH1 0x6 DUP3 DUP2 SLOAD DUP2 LT PUSH2 0x22CB JUMPI PUSH32 0x4E487B7100000000000000000000000000000000000000000000000000000000 PUSH1 0x0 MSTORE PUSH1 0x32 PUSH1 0x4 MSTORE PUSH1 0x24 PUSH1 0x0 REVERT JUMPDEST SWAP1 PUSH1 0x0 MSTORE PUSH1 0x20 PUSH1 0x0 KECCAK256 ADD SWAP1 DUP1 PUSH1 0x1 DUP2 SLOAD ADD DUP1 DUP3 SSTORE DUP1 SWAP2 POP POP PUSH1 0x1 SWAP1 SUB SWAP1 PUSH1 0x0 MSTORE PUSH1 0x20 PUSH1 0x0 KECCAK256 ADD PUSH1 0x0 SWAP1 SWAP2 SWAP1 SWAP2 SWAP1 SWAP2 POP SWAP1 DUP1 SLOAD PUSH2 0x2306 SWAP1 PUSH2 0x5F42 JUMP JUMPDEST PUSH2 0x2311 SWAP3 SWAP2 SWAP1 PUSH2 0x3F40 JUMP JUMPDEST POP POP DUP1 DUP1 PUSH2 0x231E SWAP1 PUSH2 0x5F74 JUMP JUMPDEST SWAP2 POP POP PUSH2 0x225F JUMP JUMPDEST POP PUSH1 0xD SLOAD PUSH1 0x2 PUSH1 0x0 SWAP1 SLOAD SWAP1 PUSH2 0x100 EXP SWAP1 DIV PUSH20 0xFFFFFFFFFFFFFFFFFFFFFFFFFFFFFFFFFFFFFFFF AND PUSH20 0xFFFFFFFFFFFFFFFFFFFFFFFFFFFFFFFFFFFFFFFF AND TIMESTAMP PUSH32 0x5728D5DBDF49F376445F6797D12CDB3A0CF81A5E9B0847D1846082CA38D1CF15 PUSH1 0x4 PUSH1 0x7 PUSH1 0x40 MLOAD PUSH2 0x2397 SWAP3 SWAP2 SWAP1 PUSH2 0x56A1 JUMP JUMPDEST PUSH1 0x40 MLOAD DUP1 SWAP2 SUB SWAP1 LOG4 PUSH1 0x1 PUSH1 0xC PUSH1 0x2 PUSH2 0x100 EXP DUP2 SLOAD DUP2 PUSH1 0xFF MUL NOT AND SWAP1 DUP4 ISZERO ISZERO MUL OR SWAP1 SSTORE POP POP POP POP JUMP JUMPDEST PUSH1 0xC PUSH1 0x2 SWAP1 SLOAD SWAP1 PUSH2 0x100 EXP SWAP1 DIV PUSH1 0xFF AND DUP2 JUMP JUMPDEST PUSH1 0x13 PUSH1 0x0 SWAP1 SLOAD SWAP1 PUSH2 0x100 EXP SWAP1 DIV PUSH20 0xFFFFFFFFFFFFFFFFFFFFFFFFFFFFFFFFFFFFFFFF AND DUP2 JUMP JUMPDEST PUSH1 0x3 PUSH1 0x0 SWAP1 SLOAD SWAP1 PUSH2 0x100 EXP SWAP1 DIV PUSH20 0xFFFFFFFFFFFFFFFFFFFFFFFFFFFFFFFFFFFFFFFF AND DUP2 JUMP JUMPDEST PUSH1 0x5 SLOAD DUP2 JUMP JUMPDEST PUSH1 0x1 PUSH1 0x0 SWAP1 SLOAD SWAP1 PUSH2 0x100 EXP SWAP1 DIV PUSH20 0xFFFFFFFFFFFFFFFFFFFFFFFFFFFFFFFFFFFFFFFF AND PUSH20 0xFFFFFFFFFFFFFFFFFFFFFFFFFFFFFFFFFFFFFFFF AND CALLER PUSH20 0xFFFFFFFFFFFFFFFFFFFFFFFFFFFFFFFFFFFFFFFF AND EQ PUSH2 0x24B4 JUMPI PUSH1 0x40 MLOAD PUSH32 0x8C379A000000000000000000000000000000000000000000000000000000000 DUP2 MSTORE PUSH1 0x4 ADD PUSH2 0x24AB SWAP1 PUSH2 0x5830 JUMP JUMPDEST PUSH1 0x40 MLOAD DUP1 SWAP2 SUB SWAP1 REVERT JUMPDEST PUSH1 0x4 DUP1 DUP2 GT ISZERO PUSH2 0x24ED JUMPI PUSH32 0x4E487B7100000000000000000000000000000000000000000000000000000000 PUSH1 0x0 MSTORE PUSH1 0x21 PUSH1 0x4 MSTORE PUSH1 0x24 PUSH1 0x0 REVERT JUMPDEST PUSH1 0xF PUSH1 0x0 SWAP1 SLOAD SWAP1 PUSH2 0x100 EXP SWAP1 DIV PUSH1 0xFF AND PUSH1 0x4 DUP2 GT ISZERO PUSH2 0x2535 JUMPI PUSH32 0x4E487B7100000000000000000000000000000000000000000000000000000000 PUSH1 0x0 MSTORE PUSH1 0x21 PUSH1 0x4 MSTORE PUSH1 0x24 PUSH1 0x0 REVERT JUMPDEST EQ PUSH2 0x2575 JUMPI PUSH1 0x40 MLOAD PUSH32 0x8C379A000000000000000000000000000000000000000000000000000000000 DUP2 MSTORE PUSH1 0x4 ADD PUSH2 0x256C SWAP1 PUSH2 0x5930 JUMP JUMPDEST PUSH1 0x40 MLOAD DUP1 SWAP2 SUB SWAP1 REVERT JUMPDEST DUP1 PUSH1 0xE SWAP1 DUP1 MLOAD SWAP1 PUSH1 0x20 ADD SWAP1 PUSH2 0x258B SWAP3 SWAP2 SWAP1 PUSH2 0x3FCD JUMP JUMPDEST POP PUSH1 0xD SLOAD PUSH1 0x2 PUSH1 0x0 SWAP1 SLOAD SWAP1 PUSH2 0x100 EXP SWAP1 DIV PUSH20 0xFFFFFFFFFFFFFFFFFFFFFFFFFFFFFFFFFFFFFFFF AND PUSH20 0xFFFFFFFFFFFFFFFFFFFFFFFFFFFFFFFFFFFFFFFF AND TIMESTAMP PUSH32 0x7C189D2121D58DB3EE1827852FB130B61C25FBD6396CA69DED0C18C561D1400B PUSH1 0x5 DUP6 PUSH1 0x40 MLOAD PUSH2 0x25FB SWAP3 SWAP2 SWAP1 PUSH2 0x56D1 JUMP JUMPDEST PUSH1 0x40 MLOAD DUP1 SWAP2 SUB SWAP1 LOG4 PUSH1 0x1 PUSH1 0xC PUSH1 0x4 PUSH2 0x100 EXP DUP2 SLOAD DUP2 PUSH1 0xFF MUL NOT AND SWAP1 DUP4 ISZERO ISZERO MUL OR SWAP1 SSTORE POP POP JUMP JUMPDEST PUSH2 0x2629 PUSH2 0x4053 JUMP JUMPDEST PUSH1 0x1 PUSH1 0x0 SWAP1 SLOAD SWAP1 PUSH2 0x100 EXP SWAP1 DIV PUSH20 0xFFFFFFFFFFFFFFFFFFFFFFFFFFFFFFFFFFFFFFFF AND PUSH20 0xFFFFFFFFFFFFFFFFFFFFFFFFFFFFFFFFFFFFFFFF AND CALLER PUSH20 0xFFFFFFFFFFFFFFFFFFFFFFFFFFFFFFFFFFFFFFFF AND EQ PUSH2 0x26B9 JUMPI PUSH1 0x40 MLOAD PUSH32 0x8C379A000000000000000000000000000000000000000000000000000000000 DUP2 MSTORE PUSH1 0x4 ADD PUSH2 0x26B0 SWAP1 PUSH2 0x5830 JUMP JUMPDEST PUSH1 0x40 MLOAD DUP1 SWAP2 SUB SWAP1 REVERT JUMPDEST PUSH1 0x0 PUSH1 0x4 DUP2 GT ISZERO PUSH2 0x26F3 JUMPI PUSH32 0x4E487B7100000000000000000000000000000000000000000000000000000000 PUSH1 0x0 MSTORE PUSH1 0x21 PUSH1 0x4 MSTORE PUSH1 0x24 PUSH1 0x0 REVERT JUMPDEST PUSH1 0xF PUSH1 0x0 SWAP1 SLOAD SWAP1 PUSH2 0x100 EXP SWAP1 DIV PUSH1 0xFF AND PUSH1 0x4 DUP2 GT ISZERO PUSH2 0x273B JUMPI PUSH32 0x4E487B7100000000000000000000000000000000000000000000000000000000 PUSH1 0x0 MSTORE PUSH1 0x21 PUSH1 0x4 MSTORE PUSH1 0x24 PUSH1 0x0 REVERT JUMPDEST EQ PUSH2 0x277B JUMPI PUSH1 0x40 MLOAD PUSH32 0x8C379A000000000000000000000000000000000000000000000000000000000 DUP2 MSTORE PUSH1 0x4 ADD PUSH2 0x2772 SWAP1 PUSH2 0x5810 JUMP JUMPDEST PUSH1 0x40 MLOAD DUP1 SWAP2 SUB SWAP1 REVERT JUMPDEST PUSH1 0xC PUSH1 0x2 SWAP1 SLOAD SWAP1 PUSH2 0x100 EXP SWAP1 DIV PUSH1 0xFF AND PUSH2 0x27CA JUMPI PUSH1 0x40 MLOAD PUSH32 0x8C379A000000000000000000000000000000000000000000000000000000000 DUP2 MSTORE PUSH1 0x4 ADD PUSH2 0x27C1 SWAP1 PUSH2 0x5850 JUMP JUMPDEST PUSH1 0x40 MLOAD DUP1 SWAP2 SUB SWAP1 REVERT JUMPDEST PUSH1 0x6 DUP4 DUP4 SWAP1 POP EQ PUSH2 0x2810 JUMPI PUSH1 0x40 MLOAD PUSH32 0x8C379A000000000000000000000000000000000000000000000000000000000 DUP2 MSTORE PUSH1 0x4 ADD PUSH2 0x2807 SWAP1 PUSH2 0x5A90 JUMP JUMPDEST PUSH1 0x40 MLOAD DUP1 SWAP2 SUB SWAP1 REVERT JUMPDEST PUSH1 0x0 DUP1 PUSH1 0x1 SWAP1 POP PUSH1 0x0 JUMPDEST PUSH1 0x6 DUP2 LT ISZERO PUSH2 0x2C61 JUMPI PUSH1 0x0 PUSH20 0xFFFFFFFFFFFFFFFFFFFFFFFFFFFFFFFFFFFFFFFF AND DUP7 DUP7 DUP4 DUP2 DUP2 LT PUSH2 0x2874 JUMPI PUSH32 0x4E487B7100000000000000000000000000000000000000000000000000000000 PUSH1 0x0 MSTORE PUSH1 0x32 PUSH1 0x4 MSTORE PUSH1 0x24 PUSH1 0x0 REVERT JUMPDEST SWAP1 POP PUSH1 0x20 MUL DUP2 ADD SWAP1 PUSH2 0x2886 SWAP2 SWAP1 PUSH2 0x5B44 JUMP JUMPDEST PUSH1 0x0 ADD PUSH1 0x20 DUP2 ADD SWAP1 PUSH2 0x2898 SWAP2 SWAP1 PUSH2 0x43D0 JUMP JUMPDEST PUSH20 0xFFFFFFFFFFFFFFFFFFFFFFFFFFFFFFFFFFFFFFFF AND EQ ISZERO PUSH2 0x28EF JUMPI PUSH1 0x40 MLOAD PUSH32 0x8C379A000000000000000000000000000000000000000000000000000000000 DUP2 MSTORE PUSH1 0x4 ADD PUSH2 0x28E6 SWAP1 PUSH2 0x5790 JUMP JUMPDEST PUSH1 0x40 MLOAD DUP1 SWAP2 SUB SWAP1 REVERT JUMPDEST PUSH1 0x10 PUSH1 0x40 MLOAD DUP1 PUSH1 0x60 ADD PUSH1 0x40 MSTORE DUP1 DUP9 DUP9 DUP6 DUP2 DUP2 LT PUSH2 0x2935 JUMPI PUSH32 0x4E487B7100000000000000000000000000000000000000000000000000000000 PUSH1 0x0 MSTORE PUSH1 0x32 PUSH1 0x4 MSTORE PUSH1 0x24 PUSH1 0x0 REVERT JUMPDEST SWAP1 POP PUSH1 0x20 MUL DUP2 ADD SWAP1 PUSH2 0x2947 SWAP2 SWAP1 PUSH2 0x5B44 JUMP JUMPDEST PUSH1 0x0 ADD PUSH1 0x20 DUP2 ADD SWAP1 PUSH2 0x2959 SWAP2 SWAP1 PUSH2 0x43D0 JUMP JUMPDEST PUSH20 0xFFFFFFFFFFFFFFFFFFFFFFFFFFFFFFFFFFFFFFFF AND DUP2 MSTORE PUSH1 0x20 ADD DUP9 DUP9 DUP6 DUP2 DUP2 LT PUSH2 0x29AD JUMPI PUSH32 0x4E487B7100000000000000000000000000000000000000000000000000000000 PUSH1 0x0 MSTORE PUSH1 0x32 PUSH1 0x4 MSTORE PUSH1 0x24 PUSH1 0x0 REVERT JUMPDEST SWAP1 POP PUSH1 0x20 MUL DUP2 ADD SWAP1 PUSH2 0x29BF SWAP2 SWAP1 PUSH2 0x5B44 JUMP JUMPDEST DUP1 PUSH1 0x20 ADD SWAP1 PUSH2 0x29CE SWAP2 SWAP1 PUSH2 0x5AED JUMP JUMPDEST DUP1 DUP1 PUSH1 0x1F ADD PUSH1 0x20 DUP1 SWAP2 DIV MUL PUSH1 0x20 ADD PUSH1 0x40 MLOAD SWAP1 DUP2 ADD PUSH1 0x40 MSTORE DUP1 SWAP4 SWAP3 SWAP2 SWAP1 DUP2 DUP2 MSTORE PUSH1 0x20 ADD DUP4 DUP4 DUP1 DUP3 DUP5 CALLDATACOPY PUSH1 0x0 DUP2 DUP5 ADD MSTORE PUSH1 0x1F NOT PUSH1 0x1F DUP3 ADD AND SWAP1 POP DUP1 DUP4 ADD SWAP3 POP POP POP POP POP POP POP DUP2 MSTORE PUSH1 0x20 ADD DUP9 DUP9 DUP6 DUP2 DUP2 LT PUSH2 0x2A4F JUMPI PUSH32 0x4E487B7100000000000000000000000000000000000000000000000000000000 PUSH1 0x0 MSTORE PUSH1 0x32 PUSH1 0x4 MSTORE PUSH1 0x24 PUSH1 0x0 REVERT JUMPDEST SWAP1 POP PUSH1 0x20 MUL DUP2 ADD SWAP1 PUSH2 0x2A61 SWAP2 SWAP1 PUSH2 0x5B44 JUMP JUMPDEST PUSH1 0x40 ADD PUSH1 0x20 DUP2 ADD SWAP1 PUSH2 0x2A73 SWAP2 SWAP1 PUSH2 0x44A8 JUMP JUMPDEST ISZERO ISZERO DUP2 MSTORE POP SWAP1 DUP1 PUSH1 0x1 DUP2 SLOAD ADD DUP1 DUP3 SSTORE DUP1 SWAP2 POP POP PUSH1 0x1 SWAP1 SUB SWAP1 PUSH1 0x0 MSTORE PUSH1 0x20 PUSH1 0x0 KECCAK256 SWAP1 PUSH1 0x3 MUL ADD PUSH1 0x0 SWAP1 SWAP2 SWAP1 SWAP2 SWAP1 SWAP2 POP PUSH1 0x0 DUP3 ADD MLOAD DUP2 PUSH1 0x0 ADD PUSH1 0x0 PUSH2 0x100 EXP DUP2 SLOAD DUP2 PUSH20 0xFFFFFFFFFFFFFFFFFFFFFFFFFFFFFFFFFFFFFFFF MUL NOT AND SWAP1 DUP4 PUSH20 0xFFFFFFFFFFFFFFFFFFFFFFFFFFFFFFFFFFFFFFFF AND MUL OR SWAP1 SSTORE POP PUSH1 0x20 DUP3 ADD MLOAD DUP2 PUSH1 0x1 ADD SWAP1 DUP1 MLOAD SWAP1 PUSH1 0x20 ADD SWAP1 PUSH2 0x2B04 SWAP3 SWAP2 SWAP1 PUSH2 0x3FCD JUMP JUMPDEST POP PUSH1 0x40 DUP3 ADD MLOAD DUP2 PUSH1 0x2 ADD PUSH1 0x0 PUSH2 0x100 EXP DUP2 SLOAD DUP2 PUSH1 0xFF MUL NOT AND SWAP1 DUP4 ISZERO ISZERO MUL OR SWAP1 SSTORE POP POP POP DUP6 DUP6 DUP3 DUP2 DUP2 LT PUSH2 0x2B60 JUMPI PUSH32 0x4E487B7100000000000000000000000000000000000000000000000000000000 PUSH1 0x0 MSTORE PUSH1 0x32 PUSH1 0x4 MSTORE PUSH1 0x24 PUSH1 0x0 REVERT JUMPDEST SWAP1 POP PUSH1 0x20 MUL DUP2 ADD SWAP1 PUSH2 0x2B72 SWAP2 SWAP1 PUSH2 0x5B44 JUMP JUMPDEST PUSH1 0x40 ADD PUSH1 0x20 DUP2 ADD SWAP1 PUSH2 0x2B84 SWAP2 SWAP1 PUSH2 0x44A8 JUMP JUMPDEST PUSH2 0x2C4E JUMPI DUP3 DUP1 PUSH2 0x2B93 SWAP1 PUSH2 0x5FBD JUMP JUMPDEST SWAP4 POP POP DUP2 ISZERO PUSH2 0x2C4D JUMPI PUSH1 0x10 DUP2 DUP2 SLOAD DUP2 LT PUSH2 0x2BD6 JUMPI PUSH32 0x4E487B7100000000000000000000000000000000000000000000000000000000 PUSH1 0x0 MSTORE PUSH1 0x32 PUSH1 0x4 MSTORE PUSH1 0x24 PUSH1 0x0 REVERT JUMPDEST SWAP1 PUSH1 0x0 MSTORE PUSH1 0x20 PUSH1 0x0 KECCAK256 SWAP1 PUSH1 0x3 MUL ADD PUSH1 0x0 ADD PUSH1 0x0 SWAP1 SLOAD SWAP1 PUSH2 0x100 EXP SWAP1 DIV PUSH20 0xFFFFFFFFFFFFFFFFFFFFFFFFFFFFFFFFFFFFFFFF AND PUSH1 0x3 PUSH1 0x0 PUSH2 0x100 EXP DUP2 SLOAD DUP2 PUSH20 0xFFFFFFFFFFFFFFFFFFFFFFFFFFFFFFFFFFFFFFFF MUL NOT AND SWAP1 DUP4 PUSH20 0xFFFFFFFFFFFFFFFFFFFFFFFFFFFFFFFFFFFFFFFF AND MUL OR SWAP1 SSTORE POP PUSH1 0x0 SWAP2 POP JUMPDEST JUMPDEST DUP1 DUP1 PUSH2 0x2C59 SWAP1 PUSH2 0x5F74 JUMP JUMPDEST SWAP2 POP POP PUSH2 0x281A JUMP JUMPDEST POP DUP2 PUSH1 0x9 PUSH1 0x0 PUSH2 0x100 EXP DUP2 SLOAD DUP2 PUSH1 0xFF MUL NOT AND SWAP1 DUP4 PUSH1 0xFF AND MUL OR SWAP1 SSTORE POP PUSH1 0x1 PUSH1 0xF PUSH1 0x0 PUSH2 0x100 EXP DUP2 SLOAD DUP2 PUSH1 0xFF MUL NOT AND SWAP1 DUP4 PUSH1 0x4 DUP2 GT ISZERO PUSH2 0x2CC9 JUMPI PUSH32 0x4E487B7100000000000000000000000000000000000000000000000000000000 PUSH1 0x0 MSTORE PUSH1 0x21 PUSH1 0x4 MSTORE PUSH1 0x24 PUSH1 0x0 REVERT JUMPDEST MUL OR SWAP1 SSTORE POP PUSH1 0x10 PUSH1 0x0 DUP2 SLOAD DUP2 LT PUSH2 0x2D09 JUMPI PUSH32 0x4E487B7100000000000000000000000000000000000000000000000000000000 PUSH1 0x0 MSTORE PUSH1 0x32 PUSH1 0x4 MSTORE PUSH1 0x24 PUSH1 0x0 REVERT JUMPDEST SWAP1 PUSH1 0x0 MSTORE PUSH1 0x20 PUSH1 0x0 KECCAK256 SWAP1 PUSH1 0x3 MUL ADD PUSH1 0x40 MLOAD DUP1 PUSH1 0x60 ADD PUSH1 0x40 MSTORE SWAP1 DUP2 PUSH1 0x0 DUP3 ADD PUSH1 0x0 SWAP1 SLOAD SWAP1 PUSH2 0x100 EXP SWAP1 DIV PUSH20 0xFFFFFFFFFFFFFFFFFFFFFFFFFFFFFFFFFFFFFFFF AND PUSH20 0xFFFFFFFFFFFFFFFFFFFFFFFFFFFFFFFFFFFFFFFF AND PUSH20 0xFFFFFFFFFFFFFFFFFFFFFFFFFFFFFFFFFFFFFFFF AND DUP2 MSTORE PUSH1 0x20 ADD PUSH1 0x1 DUP3 ADD DUP1 SLOAD PUSH2 0x2D88 SWAP1 PUSH2 0x5F42 JUMP JUMPDEST DUP1 PUSH1 0x1F ADD PUSH1 0x20 DUP1 SWAP2 DIV MUL PUSH1 0x20 ADD PUSH1 0x40 MLOAD SWAP1 DUP2 ADD PUSH1 0x40 MSTORE DUP1 SWAP3 SWAP2 SWAP1 DUP2 DUP2 MSTORE PUSH1 0x20 ADD DUP3 DUP1 SLOAD PUSH2 0x2DB4 SWAP1 PUSH2 0x5F42 JUMP JUMPDEST DUP1 ISZERO PUSH2 0x2E01 JUMPI DUP1 PUSH1 0x1F LT PUSH2 0x2DD6 JUMPI PUSH2 0x100 DUP1 DUP4 SLOAD DIV MUL DUP4 MSTORE SWAP2 PUSH1 0x20 ADD SWAP2 PUSH2 0x2E01 JUMP JUMPDEST DUP3 ADD SWAP2 SWAP1 PUSH1 0x0 MSTORE PUSH1 0x20 PUSH1 0x0 KECCAK256 SWAP1 JUMPDEST DUP2 SLOAD DUP2 MSTORE SWAP1 PUSH1 0x1 ADD SWAP1 PUSH1 0x20 ADD DUP1 DUP4 GT PUSH2 0x2DE4 JUMPI DUP3 SWAP1 SUB PUSH1 0x1F AND DUP3 ADD SWAP2 JUMPDEST POP POP POP POP POP DUP2 MSTORE PUSH1 0x20 ADD PUSH1 0x2 DUP3 ADD PUSH1 0x0 SWAP1 SLOAD SWAP1 PUSH2 0x100 EXP SWAP1 DIV PUSH1 0xFF AND ISZERO ISZERO ISZERO ISZERO DUP2 MSTORE POP POP SWAP3 POP POP POP SWAP3 SWAP2 POP POP JUMP JUMPDEST PUSH1 0x1 PUSH1 0x0 SWAP1 SLOAD SWAP1 PUSH2 0x100 EXP SWAP1 DIV PUSH20 0xFFFFFFFFFFFFFFFFFFFFFFFFFFFFFFFFFFFFFFFF AND PUSH20 0xFFFFFFFFFFFFFFFFFFFFFFFFFFFFFFFFFFFFFFFF AND CALLER PUSH20 0xFFFFFFFFFFFFFFFFFFFFFFFFFFFFFFFFFFFFFFFF AND EQ PUSH2 0x2EBF JUMPI PUSH1 0x40 MLOAD PUSH32 0x8C379A000000000000000000000000000000000000000000000000000000000 DUP2 MSTORE PUSH1 0x4 ADD PUSH2 0x2EB6 SWAP1 PUSH2 0x5830 JUMP JUMPDEST PUSH1 0x40 MLOAD DUP1 SWAP2 SUB SWAP1 REVERT JUMPDEST PUSH1 0x0 PUSH1 0x4 DUP2 GT ISZERO PUSH2 0x2EF9 JUMPI PUSH32 0x4E487B7100000000000000000000000000000000000000000000000000000000 PUSH1 0x0 MSTORE PUSH1 0x21 PUSH1 0x4 MSTORE PUSH1 0x24 PUSH1 0x0 REVERT JUMPDEST PUSH1 0xF PUSH1 0x0 SWAP1 SLOAD SWAP1 PUSH2 0x100 EXP SWAP1 DIV PUSH1 0xFF AND PUSH1 0x4 DUP2 GT ISZERO PUSH2 0x2F41 JUMPI PUSH32 0x4E487B7100000000000000000000000000000000000000000000000000000000 PUSH1 0x0 MSTORE PUSH1 0x21 PUSH1 0x4 MSTORE PUSH1 0x24 PUSH1 0x0 REVERT JUMPDEST EQ PUSH2 0x2F81 JUMPI PUSH1 0x40 MLOAD PUSH32 0x8C379A000000000000000000000000000000000000000000000000000000000 DUP2 MSTORE PUSH1 0x4 ADD PUSH2 0x2F78 SWAP1 PUSH2 0x5990 JUMP JUMPDEST PUSH1 0x40 MLOAD DUP1 SWAP2 SUB SWAP1 REVERT JUMPDEST DUP1 PUSH1 0x6 SWAP1 DUP1 MLOAD SWAP1 PUSH1 0x20 ADD SWAP1 PUSH2 0x2F97 SWAP3 SWAP2 SWAP1 PUSH2 0x408C JUMP JUMPDEST POP PUSH1 0x1 PUSH1 0xC PUSH1 0x3 PUSH2 0x100 EXP DUP2 SLOAD DUP2 PUSH1 0xFF MUL NOT AND SWAP1 DUP4 ISZERO ISZERO MUL OR SWAP1 SSTORE POP POP JUMP JUMPDEST PUSH1 0x3 PUSH1 0x0 SWAP1 SLOAD SWAP1 PUSH2 0x100 EXP SWAP1 DIV PUSH20 0xFFFFFFFFFFFFFFFFFFFFFFFFFFFFFFFFFFFFFFFF AND PUSH20 0xFFFFFFFFFFFFFFFFFFFFFFFFFFFFFFFFFFFFFFFF AND CALLER PUSH20 0xFFFFFFFFFFFFFFFFFFFFFFFFFFFFFFFFFFFFFFFF AND EQ PUSH2 0x3046 JUMPI PUSH1 0x40 MLOAD PUSH32 0x8C379A000000000000000000000000000000000000000000000000000000000 DUP2 MSTORE PUSH1 0x4 ADD PUSH2 0x303D SWAP1 PUSH2 0x59D0 JUMP JUMPDEST PUSH1 0x40 MLOAD DUP1 SWAP2 SUB SWAP1 REVERT JUMPDEST PUSH1 0x0 PUSH1 0x4 DUP2 GT ISZERO PUSH2 0x3080 JUMPI PUSH32 0x4E487B7100000000000000000000000000000000000000000000000000000000 PUSH1 0x0 MSTORE PUSH1 0x21 PUSH1 0x4 MSTORE PUSH1 0x24 PUSH1 0x0 REVERT JUMPDEST PUSH1 0xF PUSH1 0x0 SWAP1 SLOAD SWAP1 PUSH2 0x100 EXP SWAP1 DIV PUSH1 0xFF AND PUSH1 0x4 DUP2 GT ISZERO PUSH2 0x30C8 JUMPI PUSH32 0x4E487B7100000000000000000000000000000000000000000000000000000000 PUSH1 0x0 MSTORE PUSH1 0x21 PUSH1 0x4 MSTORE PUSH1 0x24 PUSH1 0x0 REVERT JUMPDEST EQ ISZERO PUSH2 0x3109 JUMPI PUSH1 0x40 MLOAD PUSH32 0x8C379A000000000000000000000000000000000000000000000000000000000 DUP2 MSTORE PUSH1 0x4 ADD PUSH2 0x3100 SWAP1 PUSH2 0x58D0 JUMP JUMPDEST PUSH1 0x40 MLOAD DUP1 SWAP2 SUB SWAP1 REVERT JUMPDEST PUSH1 0x4 DUP1 DUP2 GT ISZERO PUSH2 0x3142 JUMPI PUSH32 0x4E487B7100000000000000000000000000000000000000000000000000000000 PUSH1 0x0 MSTORE PUSH1 0x21 PUSH1 0x4 MSTORE PUSH1 0x24 PUSH1 0x0 REVERT JUMPDEST PUSH1 0xF PUSH1 0x0 SWAP1 SLOAD SWAP1 PUSH2 0x100 EXP SWAP1 DIV PUSH1 0xFF AND PUSH1 0x4 DUP2 GT ISZERO PUSH2 0x318A JUMPI PUSH32 0x4E487B7100000000000000000000000000000000000000000000000000000000 PUSH1 0x0 MSTORE PUSH1 0x21 PUSH1 0x4 MSTORE PUSH1 0x24 PUSH1 0x0 REVERT JUMPDEST EQ ISZERO PUSH2 0x31CB JUMPI PUSH1 0x40 MLOAD PUSH32 0x8C379A000000000000000000000000000000000000000000000000000000000 DUP2 MSTORE PUSH1 0x4 ADD PUSH2 0x31C2 SWAP1 PUSH2 0x5890 JUMP JUMPDEST PUSH1 0x40 MLOAD DUP1 SWAP2 SUB SWAP1 REVERT JUMPDEST PUSH1 0x0 JUMPDEST PUSH1 0x6 DUP2 LT ISZERO PUSH2 0x33B2 JUMPI CALLER PUSH20 0xFFFFFFFFFFFFFFFFFFFFFFFFFFFFFFFFFFFFFFFF AND PUSH1 0x10 DUP3 DUP2 SLOAD DUP2 LT PUSH2 0x3228 JUMPI PUSH32 0x4E487B7100000000000000000000000000000000000000000000000000000000 PUSH1 0x0 MSTORE PUSH1 0x32 PUSH1 0x4 MSTORE PUSH1 0x24 PUSH1 0x0 REVERT JUMPDEST SWAP1 PUSH1 0x0 MSTORE PUSH1 0x20 PUSH1 0x0 KECCAK256 SWAP1 PUSH1 0x3 MUL ADD PUSH1 0x0 ADD PUSH1 0x0 SWAP1 SLOAD SWAP1 PUSH2 0x100 EXP SWAP1 DIV PUSH20 0xFFFFFFFFFFFFFFFFFFFFFFFFFFFFFFFFFFFFFFFF AND PUSH20 0xFFFFFFFFFFFFFFFFFFFFFFFFFFFFFFFFFFFFFFFF AND EQ ISZERO PUSH2 0x339F JUMPI PUSH1 0xD SLOAD PUSH1 0x2 PUSH1 0x0 SWAP1 SLOAD SWAP1 PUSH2 0x100 EXP SWAP1 DIV PUSH20 0xFFFFFFFFFFFFFFFFFFFFFFFFFFFFFFFFFFFFFFFF AND PUSH20 0xFFFFFFFFFFFFFFFFFFFFFFFFFFFFFFFFFFFFFFFF AND TIMESTAMP PUSH32 0x6EA5374B0088556F804D142E3CE73751AAFFDEA551CEC3533CBDE664877653DD PUSH1 0x1 CALLER PUSH1 0x40 MLOAD PUSH2 0x32E5 SWAP3 SWAP2 SWAP1 PUSH2 0x55CD JUMP JUMPDEST PUSH1 0x40 MLOAD DUP1 SWAP2 SUB SWAP1 LOG4 PUSH1 0x9 PUSH1 0x0 DUP2 DUP2 SWAP1 SLOAD SWAP1 PUSH2 0x100 EXP SWAP1 DIV PUSH1 0xFF AND DUP1 SWAP3 SWAP2 SWAP1 PUSH2 0x330C SWAP1 PUSH2 0x5F18 JUMP JUMPDEST SWAP2 SWAP1 PUSH2 0x100 EXP DUP2 SLOAD DUP2 PUSH1 0xFF MUL NOT AND SWAP1 DUP4 PUSH1 0xFF AND MUL OR SWAP1 SSTORE POP POP PUSH2 0x332D PUSH2 0x35C3 JUMP JUMPDEST PUSH2 0x3335 PUSH2 0x3B55 JUMP JUMPDEST PUSH1 0x1 PUSH1 0x10 DUP3 DUP2 SLOAD DUP2 LT PUSH2 0x3371 JUMPI PUSH32 0x4E487B7100000000000000000000000000000000000000000000000000000000 PUSH1 0x0 MSTORE PUSH1 0x32 PUSH1 0x4 MSTORE PUSH1 0x24 PUSH1 0x0 REVERT JUMPDEST SWAP1 PUSH1 0x0 MSTORE PUSH1 0x20 PUSH1 0x0 KECCAK256 SWAP1 PUSH1 0x3 MUL ADD PUSH1 0x2 ADD PUSH1 0x0 PUSH2 0x100 EXP DUP2 SLOAD DUP2 PUSH1 0xFF MUL NOT AND SWAP1 DUP4 ISZERO ISZERO MUL OR SWAP1 SSTORE POP POP PUSH2 0x33F5 JUMP JUMPDEST DUP1 DUP1 PUSH2 0x33AA SWAP1 PUSH2 0x5F74 JUMP JUMPDEST SWAP2 POP POP PUSH2 0x31CE JUMP JUMPDEST POP PUSH1 0x0 PUSH2 0x33F4 JUMPI PUSH1 0x40 MLOAD PUSH32 0x8C379A000000000000000000000000000000000000000000000000000000000 DUP2 MSTORE PUSH1 0x4 ADD PUSH2 0x33EB SWAP1 PUSH2 0x5A10 JUMP JUMPDEST PUSH1 0x40 MLOAD DUP1 SWAP2 SUB SWAP1 REVERT JUMPDEST JUMPDEST JUMP JUMPDEST PUSH32 0x0 PUSH20 0xFFFFFFFFFFFFFFFFFFFFFFFFFFFFFFFFFFFFFFFF AND CALLER PUSH20 0xFFFFFFFFFFFFFFFFFFFFFFFFFFFFFFFFFFFFFFFF AND EQ PUSH2 0x3485 JUMPI PUSH1 0x40 MLOAD PUSH32 0x8C379A000000000000000000000000000000000000000000000000000000000 DUP2 MSTORE PUSH1 0x4 ADD PUSH2 0x347C SWAP1 PUSH2 0x57D0 JUMP JUMPDEST PUSH1 0x40 MLOAD DUP1 SWAP2 SUB SWAP1 REVERT JUMPDEST PUSH1 0xC PUSH1 0x1 SWAP1 SLOAD SWAP1 PUSH2 0x100 EXP SWAP1 DIV PUSH1 0xFF AND PUSH2 0x34D4 JUMPI PUSH1 0x40 MLOAD PUSH32 0x8C379A000000000000000000000000000000000000000000000000000000000 DUP2 MSTORE PUSH1 0x4 ADD PUSH2 0x34CB SWAP1 PUSH2 0x5A30 JUMP JUMPDEST PUSH1 0x40 MLOAD DUP1 SWAP2 SUB SWAP1 REVERT JUMPDEST DUP2 DUP2 DUP2 ADD SWAP1 PUSH2 0x34E3 SWAP2 SWAP1 PUSH2 0x45E7 JUMP JUMPDEST PUSH1 0xB DUP2 SWAP1 SSTORE POP PUSH1 0x1 PUSH1 0xC PUSH1 0x0 PUSH2 0x100 EXP DUP2 SLOAD DUP2 PUSH1 0xFF MUL NOT AND SWAP1 DUP4 ISZERO ISZERO MUL OR SWAP1 SSTORE POP PUSH1 0x0 PUSH1 0xC PUSH1 0x1 PUSH2 0x100 EXP DUP2 SLOAD DUP2 PUSH1 0xFF MUL NOT AND SWAP1 DUP4 ISZERO ISZERO MUL OR SWAP1 SSTORE POP PUSH1 0xD SLOAD PUSH1 0x2 PUSH1 0x0 SWAP1 SLOAD SWAP1 PUSH2 0x100 EXP SWAP1 DIV PUSH20 0xFFFFFFFFFFFFFFFFFFFFFFFFFFFFFFFFFFFFFFFF AND PUSH20 0xFFFFFFFFFFFFFFFFFFFFFFFFFFFFFFFFFFFFFFFF AND TIMESTAMP PUSH32 0xF5A7022E11FC12AC82D152E06534B7588A4985F701470D0D63808586D45197BA PUSH1 0x7 PUSH1 0xB SLOAD PUSH1 0x40 MLOAD PUSH2 0x3590 SWAP3 SWAP2 SWAP1 PUSH2 0x572A JUMP JUMPDEST PUSH1 0x40 MLOAD DUP1 SWAP2 SUB SWAP1 LOG4 POP POP POP JUMP JUMPDEST PUSH1 0x1 PUSH1 0x0 SWAP1 SLOAD SWAP1 PUSH2 0x100 EXP SWAP1 DIV PUSH20 0xFFFFFFFFFFFFFFFFFFFFFFFFFFFFFFFFFFFFFFFF AND DUP2 JUMP JUMPDEST PUSH1 0x1 PUSH1 0x9 PUSH1 0x0 SWAP1 SLOAD SWAP1 PUSH2 0x100 EXP SWAP1 DIV PUSH1 0xFF AND PUSH1 0xFF AND EQ ISZERO PUSH2 0x3681 JUMPI PUSH1 0x4 PUSH1 0xF PUSH1 0x0 PUSH2 0x100 EXP DUP2 SLOAD DUP2 PUSH1 0xFF MUL NOT AND SWAP1 DUP4 PUSH1 0x4 DUP2 GT ISZERO PUSH2 0x362A JUMPI PUSH32 0x4E487B7100000000000000000000000000000000000000000000000000000000 PUSH1 0x0 MSTORE PUSH1 0x21 PUSH1 0x4 MSTORE PUSH1 0x24 PUSH1 0x0 REVERT JUMPDEST MUL OR SWAP1 SSTORE POP PUSH1 0xD SLOAD TIMESTAMP PUSH32 0x3061055938DF57C2E32BEB77438BBAC9595A4CD967C3F0889B7DE7BCAE0983EB PUSH1 0x6 PUSH1 0xF PUSH1 0x0 SWAP1 SLOAD SWAP1 PUSH2 0x100 EXP SWAP1 DIV PUSH1 0xFF AND PUSH1 0x40 MLOAD PUSH2 0x3674 SWAP3 SWAP2 SWAP1 PUSH2 0x5701 JUMP JUMPDEST PUSH1 0x40 MLOAD DUP1 SWAP2 SUB SWAP1 LOG3 PUSH2 0x3B53 JUMP JUMPDEST PUSH1 0x0 PUSH1 0x5 SWAP1 POP JUMPDEST PUSH1 0x0 DUP2 PUSH1 0xFF AND LT PUSH2 0x37D0 JUMPI PUSH1 0x10 DUP2 PUSH1 0xFF AND DUP2 SLOAD DUP2 LT PUSH2 0x36D0 JUMPI PUSH32 0x4E487B7100000000000000000000000000000000000000000000000000000000 PUSH1 0x0 MSTORE PUSH1 0x32 PUSH1 0x4 MSTORE PUSH1 0x24 PUSH1 0x0 REVERT JUMPDEST SWAP1 PUSH1 0x0 MSTORE PUSH1 0x20 PUSH1 0x0 KECCAK256 SWAP1 PUSH1 0x3 MUL ADD PUSH1 0x2 ADD PUSH1 0x0 SWAP1 SLOAD SWAP1 PUSH2 0x100 EXP SWAP1 DIV PUSH1 0xFF AND PUSH2 0x37BD JUMPI PUSH1 0x3 PUSH1 0x0 SWAP1 SLOAD SWAP1 PUSH2 0x100 EXP SWAP1 DIV PUSH20 0xFFFFFFFFFFFFFFFFFFFFFFFFFFFFFFFFFFFFFFFF AND PUSH20 0xFFFFFFFFFFFFFFFFFFFFFFFFFFFFFFFFFFFFFFFF AND PUSH1 0x10 DUP3 PUSH1 0xFF AND DUP2 SLOAD DUP2 LT PUSH2 0x3769 JUMPI PUSH32 0x4E487B7100000000000000000000000000000000000000000000000000000000 PUSH1 0x0 MSTORE PUSH1 0x32 PUSH1 0x4 MSTORE PUSH1 0x24 PUSH1 0x0 REVERT JUMPDEST SWAP1 PUSH1 0x0 MSTORE PUSH1 0x20 PUSH1 0x0 KECCAK256 SWAP1 PUSH1 0x3 MUL ADD PUSH1 0x0 ADD PUSH1 0x0 SWAP1 SLOAD SWAP1 PUSH2 0x100 EXP SWAP1 DIV PUSH20 0xFFFFFFFFFFFFFFFFFFFFFFFFFFFFFFFFFFFFFFFF AND PUSH20 0xFFFFFFFFFFFFFFFFFFFFFFFFFFFFFFFFFFFFFFFF AND EQ PUSH2 0x37BC JUMPI POP PUSH2 0x3B53 JUMP JUMPDEST JUMPDEST DUP1 DUP1 PUSH2 0x37C8 SWAP1 PUSH2 0x5F18 JUMP JUMPDEST SWAP2 POP POP PUSH2 0x3688 JUMP JUMPDEST POP PUSH1 0x1 PUSH1 0x4 DUP2 GT ISZERO PUSH2 0x380B JUMPI PUSH32 0x4E487B7100000000000000000000000000000000000000000000000000000000 PUSH1 0x0 MSTORE PUSH1 0x21 PUSH1 0x4 MSTORE PUSH1 0x24 PUSH1 0x0 REVERT JUMPDEST PUSH1 0xF PUSH1 0x0 SWAP1 SLOAD SWAP1 PUSH2 0x100 EXP SWAP1 DIV PUSH1 0xFF AND PUSH1 0x4 DUP2 GT ISZERO PUSH2 0x3853 JUMPI PUSH32 0x4E487B7100000000000000000000000000000000000000000000000000000000 PUSH1 0x0 MSTORE PUSH1 0x21 PUSH1 0x4 MSTORE PUSH1 0x24 PUSH1 0x0 REVERT JUMPDEST EQ ISZERO PUSH2 0x38FC JUMPI PUSH1 0x2 PUSH1 0xF PUSH1 0x0 PUSH2 0x100 EXP DUP2 SLOAD DUP2 PUSH1 0xFF MUL NOT AND SWAP1 DUP4 PUSH1 0x4 DUP2 GT ISZERO PUSH2 0x38A5 JUMPI PUSH32 0x4E487B7100000000000000000000000000000000000000000000000000000000 PUSH1 0x0 MSTORE PUSH1 0x21 PUSH1 0x4 MSTORE PUSH1 0x24 PUSH1 0x0 REVERT JUMPDEST MUL OR SWAP1 SSTORE POP PUSH1 0xD SLOAD TIMESTAMP PUSH32 0x3061055938DF57C2E32BEB77438BBAC9595A4CD967C3F0889B7DE7BCAE0983EB PUSH1 0x6 PUSH1 0xF PUSH1 0x0 SWAP1 SLOAD SWAP1 PUSH2 0x100 EXP SWAP1 DIV PUSH1 0xFF AND PUSH1 0x40 MLOAD PUSH2 0x38EF SWAP3 SWAP2 SWAP1 PUSH2 0x5701 JUMP JUMPDEST PUSH1 0x40 MLOAD DUP1 SWAP2 SUB SWAP1 LOG3 PUSH2 0x3B53 JUMP JUMPDEST PUSH1 0x2 PUSH1 0x4 DUP2 GT ISZERO PUSH2 0x3936 JUMPI PUSH32 0x4E487B7100000000000000000000000000000000000000000000000000000000 PUSH1 0x0 MSTORE PUSH1 0x21 PUSH1 0x4 MSTORE PUSH1 0x24 PUSH1 0x0 REVERT JUMPDEST PUSH1 0xF PUSH1 0x0 SWAP1 SLOAD SWAP1 PUSH2 0x100 EXP SWAP1 DIV PUSH1 0xFF AND PUSH1 0x4 DUP2 GT ISZERO PUSH2 0x397E JUMPI PUSH32 0x4E487B7100000000000000000000000000000000000000000000000000000000 PUSH1 0x0 MSTORE PUSH1 0x21 PUSH1 0x4 MSTORE PUSH1 0x24 PUSH1 0x0 REVERT JUMPDEST EQ ISZERO PUSH2 0x3A27 JUMPI PUSH1 0x3 PUSH1 0xF PUSH1 0x0 PUSH2 0x100 EXP DUP2 SLOAD DUP2 PUSH1 0xFF MUL NOT AND SWAP1 DUP4 PUSH1 0x4 DUP2 GT ISZERO PUSH2 0x39D0 JUMPI PUSH32 0x4E487B7100000000000000000000000000000000000000000000000000000000 PUSH1 0x0 MSTORE PUSH1 0x21 PUSH1 0x4 MSTORE PUSH1 0x24 PUSH1 0x0 REVERT JUMPDEST MUL OR SWAP1 SSTORE POP PUSH1 0xD SLOAD TIMESTAMP PUSH32 0x3061055938DF57C2E32BEB77438BBAC9595A4CD967C3F0889B7DE7BCAE0983EB PUSH1 0x6 PUSH1 0xF PUSH1 0x0 SWAP1 SLOAD SWAP1 PUSH2 0x100 EXP SWAP1 DIV PUSH1 0xFF AND PUSH1 0x40 MLOAD PUSH2 0x3A1A SWAP3 SWAP2 SWAP1 PUSH2 0x5701 JUMP JUMPDEST PUSH1 0x40 MLOAD DUP1 SWAP2 SUB SWAP1 LOG3 PUSH2 0x3B53 JUMP JUMPDEST PUSH1 0x3 PUSH1 0x4 DUP2 GT ISZERO PUSH2 0x3A61 JUMPI PUSH32 0x4E487B7100000000000000000000000000000000000000000000000000000000 PUSH1 0x0 MSTORE PUSH1 0x21 PUSH1 0x4 MSTORE PUSH1 0x24 PUSH1 0x0 REVERT JUMPDEST PUSH1 0xF PUSH1 0x0 SWAP1 SLOAD SWAP1 PUSH2 0x100 EXP SWAP1 DIV PUSH1 0xFF AND PUSH1 0x4 DUP2 GT ISZERO PUSH2 0x3AA9 JUMPI PUSH32 0x4E487B7100000000000000000000000000000000000000000000000000000000 PUSH1 0x0 MSTORE PUSH1 0x21 PUSH1 0x4 MSTORE PUSH1 0x24 PUSH1 0x0 REVERT JUMPDEST EQ ISZERO PUSH2 0x3B52 JUMPI PUSH1 0x4 PUSH1 0xF PUSH1 0x0 PUSH2 0x100 EXP DUP2 SLOAD DUP2 PUSH1 0xFF MUL NOT AND SWAP1 DUP4 PUSH1 0x4 DUP2 GT ISZERO PUSH2 0x3AFB JUMPI PUSH32 0x4E487B7100000000000000000000000000000000000000000000000000000000 PUSH1 0x0 MSTORE PUSH1 0x21 PUSH1 0x4 MSTORE PUSH1 0x24 PUSH1 0x0 REVERT JUMPDEST MUL OR SWAP1 SSTORE POP PUSH1 0xD SLOAD TIMESTAMP PUSH32 0x3061055938DF57C2E32BEB77438BBAC9595A4CD967C3F0889B7DE7BCAE0983EB PUSH1 0x6 PUSH1 0xF PUSH1 0x0 SWAP1 SLOAD SWAP1 PUSH2 0x100 EXP SWAP1 DIV PUSH1 0xFF AND PUSH1 0x40 MLOAD PUSH2 0x3B45 SWAP3 SWAP2 SWAP1 PUSH2 0x5701 JUMP JUMPDEST PUSH1 0x40 MLOAD DUP1 SWAP2 SUB SWAP1 LOG3 PUSH2 0x3B53 JUMP JUMPDEST JUMPDEST JUMP JUMPDEST PUSH1 0x0 PUSH20 0xFFFFFFFFFFFFFFFFFFFFFFFFFFFFFFFFFFFFFFFF AND PUSH1 0x3 PUSH1 0x0 SWAP1 SLOAD SWAP1 PUSH2 0x100 EXP SWAP1 DIV PUSH20 0xFFFFFFFFFFFFFFFFFFFFFFFFFFFFFFFFFFFFFFFF AND PUSH20 0xFFFFFFFFFFFFFFFFFFFFFFFFFFFFFFFFFFFFFFFF AND EQ ISZERO PUSH2 0x3BE7 JUMPI PUSH1 0x40 MLOAD PUSH32 0x8C379A000000000000000000000000000000000000000000000000000000000 DUP2 MSTORE PUSH1 0x4 ADD PUSH2 0x3BDE SWAP1 PUSH2 0x5A70 JUMP JUMPDEST PUSH1 0x40 MLOAD DUP1 SWAP2 SUB SWAP1 REVERT JUMPDEST PUSH1 0x0 PUSH1 0x3 PUSH1 0x0 SWAP1 SLOAD SWAP1 PUSH2 0x100 EXP SWAP1 DIV PUSH20 0xFFFFFFFFFFFFFFFFFFFFFFFFFFFFFFFFFFFFFFFF AND SWAP1 POP PUSH1 0x0 DUP1 PUSH1 0x0 SWAP1 POP PUSH1 0x0 JUMPDEST PUSH1 0x6 DUP2 LT ISZERO PUSH2 0x3D43 JUMPI PUSH1 0x10 DUP2 DUP2 SLOAD DUP2 LT PUSH2 0x3C5B JUMPI PUSH32 0x4E487B7100000000000000000000000000000000000000000000000000000000 PUSH1 0x0 MSTORE PUSH1 0x32 PUSH1 0x4 MSTORE PUSH1 0x24 PUSH1 0x0 REVERT JUMPDEST SWAP1 PUSH1 0x0 MSTORE PUSH1 0x20 PUSH1 0x0 KECCAK256 SWAP1 PUSH1 0x3 MUL ADD PUSH1 0x2 ADD PUSH1 0x0 SWAP1 SLOAD SWAP1 PUSH2 0x100 EXP SWAP1 DIV PUSH1 0xFF AND PUSH2 0x3C8D JUMPI DUP2 DUP1 PUSH2 0x3C89 SWAP1 PUSH2 0x5F74 JUMP JUMPDEST SWAP3 POP POP JUMPDEST DUP4 PUSH20 0xFFFFFFFFFFFFFFFFFFFFFFFFFFFFFFFFFFFFFFFF AND PUSH1 0x10 DUP3 DUP2 SLOAD DUP2 LT PUSH2 0x3CDE JUMPI PUSH32 0x4E487B7100000000000000000000000000000000000000000000000000000000 PUSH1 0x0 MSTORE PUSH1 0x32 PUSH1 0x4 MSTORE PUSH1 0x24 PUSH1 0x0 REVERT JUMPDEST SWAP1 PUSH1 0x0 MSTORE PUSH1 0x20 PUSH1 0x0 KECCAK256 SWAP1 PUSH1 0x3 MUL ADD PUSH1 0x0 ADD PUSH1 0x0 SWAP1 SLOAD SWAP1 PUSH2 0x100 EXP SWAP1 DIV PUSH20 0xFFFFFFFFFFFFFFFFFFFFFFFFFFFFFFFFFFFFFFFF AND PUSH20 0xFFFFFFFFFFFFFFFFFFFFFFFFFFFFFFFFFFFFFFFF AND EQ ISZERO PUSH2 0x3D30 JUMPI DUP1 SWAP3 POP JUMPDEST DUP1 DUP1 PUSH2 0x3D3B SWAP1 PUSH2 0x5F74 JUMP JUMPDEST SWAP2 POP POP PUSH2 0x3C18 JUMP JUMPDEST POP PUSH1 0x0 PUSH1 0x3 PUSH1 0x0 SWAP1 SLOAD SWAP1 PUSH2 0x100 EXP SWAP1 DIV PUSH20 0xFFFFFFFFFFFFFFFFFFFFFFFFFFFFFFFFFFFFFFFF AND SWAP1 POP JUMPDEST PUSH1 0x3 PUSH1 0x0 SWAP1 SLOAD SWAP1 PUSH2 0x100 EXP SWAP1 DIV PUSH20 0xFFFFFFFFFFFFFFFFFFFFFFFFFFFFFFFFFFFFFFFF AND PUSH20 0xFFFFFFFFFFFFFFFFFFFFFFFFFFFFFFFFFFFFFFFF AND DUP2 PUSH20 0xFFFFFFFFFFFFFFFFFFFFFFFFFFFFFFFFFFFFFFFF AND EQ ISZERO PUSH2 0x3ED5 JUMPI PUSH1 0x10 PUSH1 0x6 PUSH1 0x1 DUP6 PUSH2 0x3DD3 SWAP2 SWAP1 PUSH2 0x5C91 JUMP JUMPDEST PUSH2 0x3DDD SWAP2 SWAP1 PUSH2 0x5FE7 JUMP JUMPDEST DUP2 SLOAD DUP2 LT PUSH2 0x3E14 JUMPI PUSH32 0x4E487B7100000000000000000000000000000000000000000000000000000000 PUSH1 0x0 MSTORE PUSH1 0x32 PUSH1 0x4 MSTORE PUSH1 0x24 PUSH1 0x0 REVERT JUMPDEST SWAP1 PUSH1 0x0 MSTORE PUSH1 0x20 PUSH1 0x0 KECCAK256 SWAP1 PUSH1 0x3 MUL ADD PUSH1 0x2 ADD PUSH1 0x0 SWAP1 SLOAD SWAP1 PUSH2 0x100 EXP SWAP1 DIV PUSH1 0xFF AND PUSH2 0x3EC2 JUMPI PUSH1 0x10 PUSH1 0x6 PUSH1 0x1 DUP6 PUSH2 0x3E48 SWAP2 SWAP1 PUSH2 0x5C91 JUMP JUMPDEST PUSH2 0x3E52 SWAP2 SWAP1 PUSH2 0x5FE7 JUMP JUMPDEST DUP2 SLOAD DUP2 LT PUSH2 0x3E89 JUMPI PUSH32 0x4E487B7100000000000000000000000000000000000000000000000000000000 PUSH1 0x0 MSTORE PUSH1 0x32 PUSH1 0x4 MSTORE PUSH1 0x24 PUSH1 0x0 REVERT JUMPDEST SWAP1 PUSH1 0x0 MSTORE PUSH1 0x20 PUSH1 0x0 KECCAK256 SWAP1 PUSH1 0x3 MUL ADD PUSH1 0x0 ADD PUSH1 0x0 SWAP1 SLOAD SWAP1 PUSH2 0x100 EXP SWAP1 DIV PUSH20 0xFFFFFFFFFFFFFFFFFFFFFFFFFFFFFFFFFFFFFFFF AND SWAP1 POP PUSH2 0x3ED5 JUMP JUMPDEST DUP3 DUP1 PUSH2 0x3ECD SWAP1 PUSH2 0x5F74 JUMP JUMPDEST SWAP4 POP POP PUSH2 0x3D6C JUMP JUMPDEST DUP1 PUSH1 0x3 PUSH1 0x0 PUSH2 0x100 EXP DUP2 SLOAD DUP2 PUSH20 0xFFFFFFFFFFFFFFFFFFFFFFFFFFFFFFFFFFFFFFFF MUL NOT AND SWAP1 DUP4 PUSH20 0xFFFFFFFFFFFFFFFFFFFFFFFFFFFFFFFFFFFFFFFF AND MUL OR SWAP1 SSTORE POP POP POP POP POP JUMP JUMPDEST POP DUP1 SLOAD PUSH1 0x0 DUP3 SSTORE PUSH1 0x3 MUL SWAP1 PUSH1 0x0 MSTORE PUSH1 0x20 PUSH1 0x0 KECCAK256 SWAP1 DUP2 ADD SWAP1 PUSH2 0x3F3D SWAP2 SWAP1 PUSH2 0x40EC JUMP JUMPDEST POP JUMP JUMPDEST DUP3 DUP1 SLOAD PUSH2 0x3F4C SWAP1 PUSH2 0x5F42 JUMP JUMPDEST SWAP1 PUSH1 0x0 MSTORE PUSH1 0x20 PUSH1 0x0 KECCAK256 SWAP1 PUSH1 0x1F ADD PUSH1 0x20 SWAP1 DIV DUP2 ADD SWAP3 DUP3 PUSH2 0x3F6E JUMPI PUSH1 0x0 DUP6 SSTORE PUSH2 0x3FBC JUMP JUMPDEST DUP3 PUSH1 0x1F LT PUSH2 0x3F7F JUMPI DUP1 SLOAD DUP6 SSTORE PUSH2 0x3FBC JUMP JUMPDEST DUP3 DUP1 ADD PUSH1 0x1 ADD DUP6 SSTORE DUP3 ISZERO PUSH2 0x3FBC JUMPI PUSH1 0x0 MSTORE PUSH1 0x20 PUSH1 0x0 KECCAK256 SWAP2 PUSH1 0x1F ADD PUSH1 0x20 SWAP1 DIV DUP3 ADD JUMPDEST DUP3 DUP2 GT ISZERO PUSH2 0x3FBB JUMPI DUP3 SLOAD DUP3 SSTORE SWAP2 PUSH1 0x1 ADD SWAP2 SWAP1 PUSH1 0x1 ADD SWAP1 PUSH2 0x3FA0 JUMP JUMPDEST JUMPDEST POP SWAP1 POP PUSH2 0x3FC9 SWAP2 SWAP1 PUSH2 0x414E JUMP JUMPDEST POP SWAP1 JUMP JUMPDEST DUP3 DUP1 SLOAD PUSH2 0x3FD9 SWAP1 PUSH2 0x5F42 JUMP JUMPDEST SWAP1 PUSH1 0x0 MSTORE PUSH1 0x20 PUSH1 0x0 KECCAK256 SWAP1 PUSH1 0x1F ADD PUSH1 0x20 SWAP1 DIV DUP2 ADD SWAP3 DUP3 PUSH2 0x3FFB JUMPI PUSH1 0x0 DUP6 SSTORE PUSH2 0x4042 JUMP JUMPDEST DUP3 PUSH1 0x1F LT PUSH2 0x4014 JUMPI DUP1 MLOAD PUSH1 0xFF NOT AND DUP4 DUP1 ADD OR DUP6 SSTORE PUSH2 0x4042 JUMP JUMPDEST DUP3 DUP1 ADD PUSH1 0x1 ADD DUP6 SSTORE DUP3 ISZERO PUSH2 0x4042 JUMPI SWAP2 DUP3 ADD JUMPDEST DUP3 DUP2 GT ISZERO PUSH2 0x4041 JUMPI DUP3 MLOAD DUP3 SSTORE SWAP2 PUSH1 0x20 ADD SWAP2 SWAP1 PUSH1 0x1 ADD SWAP1 PUSH2 0x4026 JUMP JUMPDEST JUMPDEST POP SWAP1 POP PUSH2 0x404F SWAP2 SWAP1 PUSH2 0x414E JUMP JUMPDEST POP SWAP1 JUMP JUMPDEST PUSH1 0x40 MLOAD DUP1 PUSH1 0x60 ADD PUSH1 0x40 MSTORE DUP1 PUSH1 0x0 PUSH20 0xFFFFFFFFFFFFFFFFFFFFFFFFFFFFFFFFFFFFFFFF AND DUP2 MSTORE PUSH1 0x20 ADD PUSH1 0x60 DUP2 MSTORE PUSH1 0x20 ADD PUSH1 0x0 ISZERO ISZERO DUP2 MSTORE POP SWAP1 JUMP JUMPDEST DUP3 DUP1 SLOAD DUP3 DUP3 SSTORE SWAP1 PUSH1 0x0 MSTORE PUSH1 0x20 PUSH1 0x0 KECCAK256 SWAP1 DUP2 ADD SWAP3 DUP3 ISZERO PUSH2 0x40DB JUMPI SWAP2 PUSH1 0x20 MUL DUP3 ADD JUMPDEST DUP3 DUP2 GT ISZERO PUSH2 0x40DA JUMPI DUP3 MLOAD DUP3 SWAP1 DUP1 MLOAD SWAP1 PUSH1 0x20 ADD SWAP1 PUSH2 0x40CA SWAP3 SWAP2 SWAP1 PUSH2 0x3FCD JUMP JUMPDEST POP SWAP2 PUSH1 0x20 ADD SWAP2 SWAP1 PUSH1 0x1 ADD SWAP1 PUSH2 0x40AC JUMP JUMPDEST JUMPDEST POP SWAP1 POP PUSH2 0x40E8 SWAP2 SWAP1 PUSH2 0x416B JUMP JUMPDEST POP SWAP1 JUMP JUMPDEST JUMPDEST DUP1 DUP3 GT ISZERO PUSH2 0x414A JUMPI PUSH1 0x0 DUP1 DUP3 ADD PUSH1 0x0 PUSH2 0x100 EXP DUP2 SLOAD SWAP1 PUSH20 0xFFFFFFFFFFFFFFFFFFFFFFFFFFFFFFFFFFFFFFFF MUL NOT AND SWAP1 SSTORE PUSH1 0x1 DUP3 ADD PUSH1 0x0 PUSH2 0x412D SWAP2 SWAP1 PUSH2 0x418F JUMP JUMPDEST PUSH1 0x2 DUP3 ADD PUSH1 0x0 PUSH2 0x100 EXP DUP2 SLOAD SWAP1 PUSH1 0xFF MUL NOT AND SWAP1 SSTORE POP PUSH1 0x3 ADD PUSH2 0x40ED JUMP JUMPDEST POP SWAP1 JUMP JUMPDEST JUMPDEST DUP1 DUP3 GT ISZERO PUSH2 0x4167 JUMPI PUSH1 0x0 DUP2 PUSH1 0x0 SWAP1 SSTORE POP PUSH1 0x1 ADD PUSH2 0x414F JUMP JUMPDEST POP SWAP1 JUMP JUMPDEST JUMPDEST DUP1 DUP3 GT ISZERO PUSH2 0x418B JUMPI PUSH1 0x0 DUP2 DUP2 PUSH2 0x4182 SWAP2 SWAP1 PUSH2 0x418F JUMP JUMPDEST POP PUSH1 0x1 ADD PUSH2 0x416C JUMP JUMPDEST POP SWAP1 JUMP JUMPDEST POP DUP1 SLOAD PUSH2 0x419B SWAP1 PUSH2 0x5F42 JUMP JUMPDEST PUSH1 0x0 DUP3 SSTORE DUP1 PUSH1 0x1F LT PUSH2 0x41AD JUMPI POP PUSH2 0x41CC JUMP JUMPDEST PUSH1 0x1F ADD PUSH1 0x20 SWAP1 DIV SWAP1 PUSH1 0x0 MSTORE PUSH1 0x20 PUSH1 0x0 KECCAK256 SWAP1 DUP2 ADD SWAP1 PUSH2 0x41CB SWAP2 SWAP1 PUSH2 0x414E JUMP JUMPDEST JUMPDEST POP JUMP JUMPDEST PUSH1 0x0 PUSH2 0x41E2 PUSH2 0x41DD DUP5 PUSH2 0x5B99 JUMP JUMPDEST PUSH2 0x5B68 JUMP JUMPDEST SWAP1 POP DUP1 DUP4 DUP3 MSTORE PUSH1 0x20 DUP3 ADD SWAP1 POP DUP3 PUSH1 0x0 JUMPDEST DUP6 DUP2 LT ISZERO PUSH2 0x4222 JUMPI DUP2 CALLDATALOAD DUP6 ADD PUSH2 0x4208 DUP9 DUP3 PUSH2 0x4391 JUMP JUMPDEST DUP5 MSTORE PUSH1 0x20 DUP5 ADD SWAP4 POP PUSH1 0x20 DUP4 ADD SWAP3 POP POP PUSH1 0x1 DUP2 ADD SWAP1 POP PUSH2 0x41F2 JUMP JUMPDEST POP POP POP SWAP4 SWAP3 POP POP POP JUMP JUMPDEST PUSH1 0x0 PUSH2 0x423F PUSH2 0x423A DUP5 PUSH2 0x5BC5 JUMP JUMPDEST PUSH2 0x5B68 JUMP JUMPDEST SWAP1 POP DUP3 DUP2 MSTORE PUSH1 0x20 DUP2 ADD DUP5 DUP5 DUP5 ADD GT ISZERO PUSH2 0x4257 JUMPI PUSH1 0x0 DUP1 REVERT JUMPDEST PUSH2 0x4262 DUP5 DUP3 DUP6 PUSH2 0x5ED6 JUMP JUMPDEST POP SWAP4 SWAP3 POP POP POP JUMP JUMPDEST PUSH1 0x0 DUP2 CALLDATALOAD SWAP1 POP PUSH2 0x4279 DUP2 PUSH2 0x6128 JUMP JUMPDEST SWAP3 SWAP2 POP POP JUMP JUMPDEST PUSH1 0x0 DUP2 CALLDATALOAD SWAP1 POP PUSH2 0x428E DUP2 PUSH2 0x613F JUMP JUMPDEST SWAP3 SWAP2 POP POP JUMP JUMPDEST PUSH1 0x0 DUP3 PUSH1 0x1F DUP4 ADD SLT PUSH2 0x42A5 JUMPI PUSH1 0x0 DUP1 REVERT JUMPDEST DUP2 CALLDATALOAD PUSH2 0x42B5 DUP5 DUP3 PUSH1 0x20 DUP7 ADD PUSH2 0x41CF JUMP JUMPDEST SWAP2 POP POP SWAP3 SWAP2 POP POP JUMP JUMPDEST PUSH1 0x0 DUP1 DUP4 PUSH1 0x1F DUP5 ADD SLT PUSH2 0x42D0 JUMPI PUSH1 0x0 DUP1 REVERT JUMPDEST DUP3 CALLDATALOAD SWAP1 POP PUSH8 0xFFFFFFFFFFFFFFFF DUP2 GT ISZERO PUSH2 0x42E9 JUMPI PUSH1 0x0 DUP1 REVERT JUMPDEST PUSH1 0x20 DUP4 ADD SWAP2 POP DUP4 PUSH1 0x20 DUP3 MUL DUP4 ADD GT ISZERO PUSH2 0x4301 JUMPI PUSH1 0x0 DUP1 REVERT JUMPDEST SWAP3 POP SWAP3 SWAP1 POP JUMP JUMPDEST PUSH1 0x0 DUP2 CALLDATALOAD SWAP1 POP PUSH2 0x4317 DUP2 PUSH2 0x6156 JUMP JUMPDEST SWAP3 SWAP2 POP POP JUMP JUMPDEST PUSH1 0x0 DUP2 CALLDATALOAD SWAP1 POP PUSH2 0x432C DUP2 PUSH2 0x616D JUMP JUMPDEST SWAP3 SWAP2 POP POP JUMP JUMPDEST PUSH1 0x0 DUP2 MLOAD SWAP1 POP PUSH2 0x4341 DUP2 PUSH2 0x616D JUMP JUMPDEST SWAP3 SWAP2 POP POP JUMP JUMPDEST PUSH1 0x0 DUP1 DUP4 PUSH1 0x1F DUP5 ADD SLT PUSH2 0x4359 JUMPI PUSH1 0x0 DUP1 REVERT JUMPDEST DUP3 CALLDATALOAD SWAP1 POP PUSH8 0xFFFFFFFFFFFFFFFF DUP2 GT ISZERO PUSH2 0x4372 JUMPI PUSH1 0x0 DUP1 REVERT JUMPDEST PUSH1 0x20 DUP4 ADD SWAP2 POP DUP4 PUSH1 0x1 DUP3 MUL DUP4 ADD GT ISZERO PUSH2 0x438A JUMPI PUSH1 0x0 DUP1 REVERT JUMPDEST SWAP3 POP SWAP3 SWAP1 POP JUMP JUMPDEST PUSH1 0x0 DUP3 PUSH1 0x1F DUP4 ADD SLT PUSH2 0x43A2 JUMPI PUSH1 0x0 DUP1 REVERT JUMPDEST DUP2 CALLDATALOAD PUSH2 0x43B2 DUP5 DUP3 PUSH1 0x20 DUP7 ADD PUSH2 0x422C JUMP JUMPDEST SWAP2 POP POP SWAP3 SWAP2 POP POP JUMP JUMPDEST PUSH1 0x0 DUP2 CALLDATALOAD SWAP1 POP PUSH2 0x43CA DUP2 PUSH2 0x6184 JUMP JUMPDEST SWAP3 SWAP2 POP POP JUMP JUMPDEST PUSH1 0x0 PUSH1 0x20 DUP3 DUP5 SUB SLT ISZERO PUSH2 0x43E2 JUMPI PUSH1 0x0 DUP1 REVERT JUMPDEST PUSH1 0x0 PUSH2 0x43F0 DUP5 DUP3 DUP6 ADD PUSH2 0x426A JUMP JUMPDEST SWAP2 POP POP SWAP3 SWAP2 POP POP JUMP JUMPDEST PUSH1 0x0 PUSH1 0x20 DUP3 DUP5 SUB SLT ISZERO PUSH2 0x440B JUMPI PUSH1 0x0 DUP1 REVERT JUMPDEST PUSH1 0x0 PUSH2 0x4419 DUP5 DUP3 DUP6 ADD PUSH2 0x427F JUMP JUMPDEST SWAP2 POP POP SWAP3 SWAP2 POP POP JUMP JUMPDEST PUSH1 0x0 PUSH1 0x20 DUP3 DUP5 SUB SLT ISZERO PUSH2 0x4434 JUMPI PUSH1 0x0 DUP1 REVERT JUMPDEST PUSH1 0x0 DUP3 ADD CALLDATALOAD PUSH8 0xFFFFFFFFFFFFFFFF DUP2 GT ISZERO PUSH2 0x444E JUMPI PUSH1 0x0 DUP1 REVERT JUMPDEST PUSH2 0x445A DUP5 DUP3 DUP6 ADD PUSH2 0x4294 JUMP JUMPDEST SWAP2 POP POP SWAP3 SWAP2 POP POP JUMP JUMPDEST PUSH1 0x0 DUP1 PUSH1 0x20 DUP4 DUP6 SUB SLT ISZERO PUSH2 0x4476 JUMPI PUSH1 0x0 DUP1 REVERT JUMPDEST PUSH1 0x0 DUP4 ADD CALLDATALOAD PUSH8 0xFFFFFFFFFFFFFFFF DUP2 GT ISZERO PUSH2 0x4490 JUMPI PUSH1 0x0 DUP1 REVERT JUMPDEST PUSH2 0x449C DUP6 DUP3 DUP7 ADD PUSH2 0x42BE JUMP JUMPDEST SWAP3 POP SWAP3 POP POP SWAP3 POP SWAP3 SWAP1 POP JUMP JUMPDEST PUSH1 0x0 PUSH1 0x20 DUP3 DUP5 SUB SLT ISZERO PUSH2 0x44BA JUMPI PUSH1 0x0 DUP1 REVERT JUMPDEST PUSH1 0x0 PUSH2 0x44C8 DUP5 DUP3 DUP6 ADD PUSH2 0x4308 JUMP JUMPDEST SWAP2 POP POP SWAP3 SWAP2 POP POP JUMP JUMPDEST PUSH1 0x0 PUSH1 0x20 DUP3 DUP5 SUB SLT ISZERO PUSH2 0x44E3 JUMPI PUSH1 0x0 DUP1 REVERT JUMPDEST PUSH1 0x0 PUSH2 0x44F1 DUP5 DUP3 DUP6 ADD PUSH2 0x4332 JUMP JUMPDEST SWAP2 POP POP SWAP3 SWAP2 POP POP JUMP JUMPDEST PUSH1 0x0 DUP1 PUSH1 0x0 PUSH1 0x40 DUP5 DUP7 SUB SLT ISZERO PUSH2 0x450F JUMPI PUSH1 0x0 DUP1 REVERT JUMPDEST PUSH1 0x0 PUSH2 0x451D DUP7 DUP3 DUP8 ADD PUSH2 0x431D JUMP JUMPDEST SWAP4 POP POP PUSH1 0x20 DUP5 ADD CALLDATALOAD PUSH8 0xFFFFFFFFFFFFFFFF DUP2 GT ISZERO PUSH2 0x453A JUMPI PUSH1 0x0 DUP1 REVERT JUMPDEST PUSH2 0x4546 DUP7 DUP3 DUP8 ADD PUSH2 0x4347 JUMP JUMPDEST SWAP3 POP SWAP3 POP POP SWAP3 POP SWAP3 POP SWAP3 JUMP JUMPDEST PUSH1 0x0 PUSH1 0x20 DUP3 DUP5 SUB SLT ISZERO PUSH2 0x4564 JUMPI PUSH1 0x0 DUP1 REVERT JUMPDEST PUSH1 0x0 DUP3 ADD CALLDATALOAD PUSH8 0xFFFFFFFFFFFFFFFF DUP2 GT ISZERO PUSH2 0x457E JUMPI PUSH1 0x0 DUP1 REVERT JUMPDEST PUSH2 0x458A DUP5 DUP3 DUP6 ADD PUSH2 0x4391 JUMP JUMPDEST SWAP2 POP POP SWAP3 SWAP2 POP POP JUMP JUMPDEST PUSH1 0x0 DUP1 PUSH1 0x40 DUP4 DUP6 SUB SLT ISZERO PUSH2 0x45A6 JUMPI PUSH1 0x0 DUP1 REVERT JUMPDEST PUSH1 0x0 DUP4 ADD CALLDATALOAD PUSH8 0xFFFFFFFFFFFFFFFF DUP2 GT ISZERO PUSH2 0x45C0 JUMPI PUSH1 0x0 DUP1 REVERT JUMPDEST PUSH2 0x45CC DUP6 DUP3 DUP7 ADD PUSH2 0x4391 JUMP JUMPDEST SWAP3 POP POP PUSH1 0x20 PUSH2 0x45DD DUP6 DUP3 DUP7 ADD PUSH2 0x426A JUMP JUMPDEST SWAP2 POP POP SWAP3 POP SWAP3 SWAP1 POP JUMP JUMPDEST PUSH1 0x0 PUSH1 0x20 DUP3 DUP5 SUB SLT ISZERO PUSH2 0x45F9 JUMPI PUSH1 0x0 DUP1 REVERT JUMPDEST PUSH1 0x0 PUSH2 0x4607 DUP5 DUP3 DUP6 ADD PUSH2 0x43BB JUMP JUMPDEST SWAP2 POP POP SWAP3 SWAP2 POP POP JUMP JUMPDEST PUSH1 0x0 PUSH2 0x461C DUP4 DUP4 PUSH2 0x47EB JUMP JUMPDEST SWAP1 POP SWAP3 SWAP2 POP POP JUMP JUMPDEST PUSH2 0x462D DUP2 PUSH2 0x5D72 JUMP JUMPDEST DUP3 MSTORE POP POP JUMP JUMPDEST PUSH2 0x463C DUP2 PUSH2 0x5D72 JUMP JUMPDEST DUP3 MSTORE POP POP JUMP JUMPDEST PUSH1 0x0 PUSH2 0x464D DUP3 PUSH2 0x5C1F JUMP JUMPDEST PUSH2 0x4657 DUP2 DUP6 PUSH2 0x5C42 JUMP JUMPDEST SWAP4 POP DUP4 PUSH1 0x20 DUP3 MUL DUP6 ADD PUSH2 0x4669 DUP6 PUSH2 0x5BF5 JUMP JUMPDEST DUP1 PUSH1 0x0 JUMPDEST DUP6 DUP2 LT ISZERO PUSH2 0x46A4 JUMPI DUP5 DUP5 SUB DUP10 MSTORE DUP2 PUSH2 0x4685 DUP6 DUP3 PUSH2 0x4610 JUMP JUMPDEST SWAP5 POP PUSH2 0x4690 DUP4 PUSH2 0x5C35 JUMP JUMPDEST SWAP3 POP PUSH1 0x20 DUP11 ADD SWAP10 POP POP PUSH1 0x1 DUP2 ADD SWAP1 POP PUSH2 0x466D JUMP JUMPDEST POP DUP3 SWAP8 POP DUP8 SWAP6 POP POP POP POP POP POP SWAP3 SWAP2 POP POP JUMP JUMPDEST PUSH2 0x46BF DUP2 PUSH2 0x5D96 JUMP JUMPDEST DUP3 MSTORE POP POP JUMP JUMPDEST PUSH2 0x46CE DUP2 PUSH2 0x5D96 JUMP JUMPDEST DUP3 MSTORE POP POP JUMP JUMPDEST PUSH2 0x46DD DUP2 PUSH2 0x5DA2 JUMP JUMPDEST DUP3 MSTORE POP POP JUMP JUMPDEST PUSH2 0x46EC DUP2 PUSH2 0x5DAC JUMP JUMPDEST DUP3 MSTORE POP POP JUMP JUMPDEST PUSH2 0x46FB DUP2 PUSH2 0x5E22 JUMP JUMPDEST DUP3 MSTORE POP POP JUMP JUMPDEST PUSH2 0x470A DUP2 PUSH2 0x5E46 JUMP JUMPDEST DUP3 MSTORE POP POP JUMP JUMPDEST PUSH2 0x4719 DUP2 PUSH2 0x5E58 JUMP JUMPDEST DUP3 MSTORE POP POP JUMP JUMPDEST PUSH2 0x4728 DUP2 PUSH2 0x5E6A JUMP JUMPDEST DUP3 MSTORE POP POP JUMP JUMPDEST PUSH2 0x4737 DUP2 PUSH2 0x5E7C JUMP JUMPDEST DUP3 MSTORE POP POP JUMP JUMPDEST PUSH2 0x4746 DUP2 PUSH2 0x5E8E JUMP JUMPDEST DUP3 MSTORE POP POP JUMP JUMPDEST PUSH2 0x4755 DUP2 PUSH2 0x5EA0 JUMP JUMPDEST DUP3 MSTORE POP POP JUMP JUMPDEST PUSH2 0x4764 DUP2 PUSH2 0x5EB2 JUMP JUMPDEST DUP3 MSTORE POP POP JUMP JUMPDEST PUSH2 0x4773 DUP2 PUSH2 0x5EC4 JUMP JUMPDEST DUP3 MSTORE POP POP JUMP JUMPDEST PUSH1 0x0 PUSH2 0x4784 DUP3 PUSH2 0x5C2A JUMP JUMPDEST PUSH2 0x478E DUP2 DUP6 PUSH2 0x5C6F JUMP JUMPDEST SWAP4 POP PUSH2 0x479E DUP2 DUP6 PUSH1 0x20 DUP7 ADD PUSH2 0x5EE5 JUMP JUMPDEST PUSH2 0x47A7 DUP2 PUSH2 0x6103 JUMP JUMPDEST DUP5 ADD SWAP2 POP POP SWAP3 SWAP2 POP POP JUMP JUMPDEST PUSH1 0x0 PUSH2 0x47BD DUP3 PUSH2 0x5C2A JUMP JUMPDEST PUSH2 0x47C7 DUP2 DUP6 PUSH2 0x5C80 JUMP JUMPDEST SWAP4 POP PUSH2 0x47D7 DUP2 DUP6 PUSH1 0x20 DUP7 ADD PUSH2 0x5EE5 JUMP JUMPDEST PUSH2 0x47E0 DUP2 PUSH2 0x6103 JUMP JUMPDEST DUP5 ADD SWAP2 POP POP SWAP3 SWAP2 POP POP JUMP JUMPDEST PUSH1 0x0 DUP2 SLOAD PUSH2 0x47F8 DUP2 PUSH2 0x5F42 JUMP JUMPDEST PUSH2 0x4802 DUP2 DUP7 PUSH2 0x5C6F JUMP JUMPDEST SWAP5 POP PUSH1 0x1 DUP3 AND PUSH1 0x0 DUP2 EQ PUSH2 0x481D JUMPI PUSH1 0x1 DUP2 EQ PUSH2 0x482F JUMPI PUSH2 0x4862 JUMP JUMPDEST PUSH1 0xFF NOT DUP4 AND DUP7 MSTORE PUSH1 0x20 DUP7 ADD SWAP4 POP PUSH2 0x4862 JUMP JUMPDEST PUSH2 0x4838 DUP6 PUSH2 0x5C0A JUMP JUMPDEST PUSH1 0x0 JUMPDEST DUP4 DUP2 LT ISZERO PUSH2 0x485A JUMPI DUP2 SLOAD DUP2 DUP10 ADD MSTORE PUSH1 0x1 DUP3 ADD SWAP2 POP PUSH1 0x20 DUP2 ADD SWAP1 POP PUSH2 0x483B JUMP JUMPDEST DUP1 DUP9 ADD SWAP6 POP POP POP JUMPDEST POP POP POP SWAP3 SWAP2 POP POP JUMP JUMPDEST PUSH1 0x0 PUSH2 0x4878 PUSH1 0xF DUP4 PUSH2 0x5C80 JUMP JUMPDEST SWAP2 POP PUSH32 0x496E76616C696420616464726573730000000000000000000000000000000000 PUSH1 0x0 DUP4 ADD MSTORE PUSH1 0x20 DUP3 ADD SWAP1 POP SWAP2 SWAP1 POP JUMP JUMPDEST PUSH1 0x0 PUSH2 0x48B8 PUSH1 0x48 DUP4 PUSH2 0x5C80 JUMP JUMPDEST SWAP2 POP PUSH32 0x7B2273746174757322203A203530302C20226D65737361676522203A2022536F PUSH1 0x0 DUP4 ADD MSTORE PUSH32 0x6D657468696E672077656E7420766572792077726F6E67203A2073656E64696E PUSH1 0x20 DUP4 ADD MSTORE PUSH32 0x6746756E6473227D000000000000000000000000000000000000000000000000 PUSH1 0x40 DUP4 ADD MSTORE PUSH1 0x60 DUP3 ADD SWAP1 POP SWAP2 SWAP1 POP JUMP JUMPDEST PUSH1 0x0 PUSH2 0x4944 PUSH1 0x16 DUP4 PUSH2 0x5C80 JUMP JUMPDEST SWAP2 POP PUSH32 0x43616C6C6572206E6F74204169726E6F64652052525000000000000000000000 PUSH1 0x0 DUP4 ADD MSTORE PUSH1 0x20 DUP3 ADD SWAP1 POP SWAP2 SWAP1 POP JUMP JUMPDEST PUSH1 0x0 PUSH2 0x4984 PUSH1 0x13 DUP4 PUSH2 0x5C80 JUMP JUMPDEST SWAP2 POP PUSH32 0x5573657220666F6C64732068696D73656C662E00000000000000000000000000 PUSH1 0x0 DUP4 ADD MSTORE PUSH1 0x20 DUP3 ADD SWAP1 POP SWAP2 SWAP1 POP JUMP JUMPDEST PUSH1 0x0 PUSH2 0x49C4 PUSH1 0x3E DUP4 PUSH2 0x5C80 JUMP JUMPDEST SWAP2 POP PUSH32 0x7B22737461747573436F6465223A203430322C20226D657373616765223A2022 PUSH1 0x0 DUP4 ADD MSTORE PUSH32 0x546865207265717565737420697320616C6C7265616479206D6164652E220000 PUSH1 0x20 DUP4 ADD MSTORE PUSH1 0x40 DUP3 ADD SWAP1 POP SWAP2 SWAP1 POP JUMP JUMPDEST PUSH1 0x0 PUSH2 0x4A2A PUSH1 0x3B DUP4 PUSH2 0x5C80 JUMP JUMPDEST SWAP2 POP PUSH32 0x7B22737461747573436F6465223A203430312C20226D657373616765223A2022 PUSH1 0x0 DUP4 ADD MSTORE PUSH32 0x67616D65206E6F7420696E2072657374696E672073746174652E220000000000 PUSH1 0x20 DUP4 ADD MSTORE PUSH1 0x40 DUP3 ADD SWAP1 POP SWAP2 SWAP1 POP JUMP JUMPDEST PUSH1 0x0 PUSH2 0x4A90 PUSH1 0x2D DUP4 PUSH2 0x5C80 JUMP JUMPDEST SWAP2 POP PUSH32 0x7B22737461747573436F6465223A203430312C20226D657373616765223A2022 PUSH1 0x0 DUP4 ADD MSTORE PUSH32 0x756E617574686F72697365642200000000000000000000000000000000000000 PUSH1 0x20 DUP4 ADD MSTORE PUSH1 0x40 DUP3 ADD SWAP1 POP SWAP2 SWAP1 POP JUMP JUMPDEST PUSH1 0x0 PUSH2 0x4AF6 PUSH1 0x37 DUP4 PUSH2 0x5C80 JUMP JUMPDEST SWAP2 POP PUSH32 0x7B22737461747573436F6465223A203430312C20226D657373616765223A2022 PUSH1 0x0 DUP4 ADD MSTORE PUSH32 0x4465636B206E6F742063726561746564207965742E227D000000000000000000 PUSH1 0x20 DUP4 ADD MSTORE PUSH1 0x40 DUP3 ADD SWAP1 POP SWAP2 SWAP1 POP JUMP JUMPDEST PUSH1 0x0 PUSH2 0x4B5C PUSH1 0x37 DUP4 PUSH2 0x5C80 JUMP JUMPDEST SWAP2 POP PUSH32 0x7B22737461747573436F6465223A203430302C20226D657373616765223A2022 PUSH1 0x0 DUP4 ADD MSTORE PUSH32 0x47616D6520686173656E7420656E646564207965742E22000000000000000000 PUSH1 0x20 DUP4 ADD MSTORE PUSH1 0x40 DUP3 ADD SWAP1 POP SWAP2 SWAP1 POP JUMP JUMPDEST PUSH1 0x0 PUSH2 0x4BC2 PUSH1 0x35 DUP4 PUSH2 0x5C80 JUMP JUMPDEST SWAP2 POP PUSH32 0x7B22737461747573436F6465223A203130302C20226D657373616765223A2022 PUSH1 0x0 DUP4 ADD MSTORE PUSH32 0x67616D6520616C6C726561647920656E646564227D0000000000000000000000 PUSH1 0x20 DUP4 ADD MSTORE PUSH1 0x40 DUP3 ADD SWAP1 POP SWAP2 SWAP1 POP JUMP JUMPDEST PUSH1 0x0 PUSH2 0x4C28 PUSH1 0x4F DUP4 PUSH2 0x5C80 JUMP JUMPDEST SWAP2 POP PUSH32 0x7B22737461747573436F6465223A203430332C20226D657373616765223A2022 PUSH1 0x0 DUP4 ADD MSTORE PUSH32 0x75706461746564206265742063616E74206265206C657373207468616E207468 PUSH1 0x20 DUP4 ADD MSTORE PUSH32 0x652070726576696F7573206F6E65220000000000000000000000000000000000 PUSH1 0x40 DUP4 ADD MSTORE PUSH1 0x60 DUP3 ADD SWAP1 POP SWAP2 SWAP1 POP JUMP JUMPDEST PUSH1 0x0 PUSH2 0x4CB4 PUSH1 0x4A DUP4 PUSH2 0x5C80 JUMP JUMPDEST SWAP2 POP PUSH32 0x7B22737461747573436F6465223A203930302C20226D657373616765223A2022 PUSH1 0x0 DUP4 ADD MSTORE PUSH32 0x67616D6D65206E6F742073746172746564207965743A20696E2052455354494E PUSH1 0x20 DUP4 ADD MSTORE PUSH32 0x472070686173652E227D00000000000000000000000000000000000000000000 PUSH1 0x40 DUP4 ADD MSTORE PUSH1 0x60 DUP3 ADD SWAP1 POP SWAP2 SWAP1 POP JUMP JUMPDEST PUSH1 0x0 PUSH2 0x4D40 PUSH1 0x3B DUP4 PUSH2 0x5C80 JUMP JUMPDEST SWAP2 POP PUSH32 0x7B22737461747573436F6465223A203432322C20226D657373616765223A2022 PUSH1 0x0 DUP4 ADD MSTORE PUSH32 0x6D6573736167652056616C756520696E73756666696369656E74220000000000 PUSH1 0x20 DUP4 ADD MSTORE PUSH1 0x40 DUP3 ADD SWAP1 POP SWAP2 SWAP1 POP JUMP JUMPDEST PUSH1 0x0 PUSH2 0x4DA6 PUSH1 0x37 DUP4 PUSH2 0x5C80 JUMP JUMPDEST SWAP2 POP PUSH32 0x7B226572726F72436F646522203A203430342C20226D65737361676522203A20 PUSH1 0x0 DUP4 ADD MSTORE PUSH32 0x226E6F207375636820757365722065786973747322207D000000000000000000 PUSH1 0x20 DUP4 ADD MSTORE PUSH1 0x40 DUP3 ADD SWAP1 POP SWAP2 SWAP1 POP JUMP JUMPDEST PUSH1 0x0 PUSH2 0x4E0C PUSH1 0x36 DUP4 PUSH2 0x5C80 JUMP JUMPDEST SWAP2 POP PUSH32 0x7B22737461747573436F6465223A203130302C20226D657373616765223A2022 PUSH1 0x0 DUP4 ADD MSTORE PUSH32 0x67616D6520686173207420656E64656420796574227D00000000000000000000 PUSH1 0x20 DUP4 ADD MSTORE PUSH1 0x40 DUP3 ADD SWAP1 POP SWAP2 SWAP1 POP JUMP JUMPDEST PUSH1 0x0 PUSH2 0x4E72 PUSH1 0x6F DUP4 PUSH2 0x5C80 JUMP JUMPDEST SWAP2 POP PUSH32 0x7B22737461747573436F6465223A203430332C20226D657373616765223A2022 PUSH1 0x0 DUP4 ADD MSTORE PUSH32 0x74686973206973206120636F6E74726F6C6C656420726573652067616D652063 PUSH1 0x20 DUP4 ADD MSTORE PUSH32 0x616E74207261697365206D6F7265207468616E2074686120646F75626C65206F PUSH1 0x40 DUP4 ADD MSTORE PUSH32 0x662063757272656E74206265742E220000000000000000000000000000000000 PUSH1 0x60 DUP4 ADD MSTORE PUSH1 0x80 DUP3 ADD SWAP1 POP SWAP2 SWAP1 POP JUMP JUMPDEST PUSH1 0x0 PUSH2 0x4F24 PUSH1 0x3F DUP4 PUSH2 0x5C80 JUMP JUMPDEST SWAP2 POP PUSH32 0x7B22737461747573436F6465223A20393030312C20226D657373616765223A20 PUSH1 0x0 DUP4 ADD MSTORE PUSH32 0x22726F6F74206465636B206E6F74207075626C6973686564207965742E227D00 PUSH1 0x20 DUP4 ADD MSTORE PUSH1 0x40 DUP3 ADD SWAP1 POP SWAP2 SWAP1 POP JUMP JUMPDEST PUSH1 0x0 PUSH2 0x4F8A PUSH1 0x0 DUP4 PUSH2 0x5C53 JUMP JUMPDEST SWAP2 POP PUSH1 0x0 DUP3 ADD SWAP1 POP SWAP2 SWAP1 POP JUMP JUMPDEST PUSH1 0x0 PUSH2 0x4FA4 PUSH1 0x0 DUP4 PUSH2 0x5C64 JUMP JUMPDEST SWAP2 POP PUSH1 0x0 DUP3 ADD SWAP1 POP SWAP2 SWAP1 POP JUMP JUMPDEST PUSH1 0x0 PUSH2 0x4FBE PUSH1 0x66 DUP4 PUSH2 0x5C80 JUMP JUMPDEST SWAP2 POP PUSH32 0x7B22737461747573436F6465223A203930302C20226D657373616765223A2022 PUSH1 0x0 DUP4 ADD MSTORE PUSH32 0x67616D65206E6F7420696E2052455354494E472070686173652C207265717569 PUSH1 0x20 DUP4 ADD MSTORE PUSH32 0x72656420746F20626520696E2072657374696E6720666F72206465636B207570 PUSH1 0x40 DUP4 ADD MSTORE PUSH32 0x6C6F6164227D0000000000000000000000000000000000000000000000000000 PUSH1 0x60 DUP4 ADD MSTORE PUSH1 0x80 DUP3 ADD SWAP1 POP SWAP2 SWAP1 POP JUMP JUMPDEST PUSH1 0x0 PUSH2 0x5070 PUSH1 0x3A DUP4 PUSH2 0x5C80 JUMP JUMPDEST SWAP2 POP PUSH32 0x7B2273746174757322203A203530302C20226D65737361676522203A20224661 PUSH1 0x0 DUP4 ADD MSTORE PUSH32 0x74656C4572726F723A206261636B446F6F722066696C6564227D000000000000 PUSH1 0x20 DUP4 ADD MSTORE PUSH1 0x40 DUP3 ADD SWAP1 POP SWAP2 SWAP1 POP JUMP JUMPDEST PUSH1 0x0 PUSH2 0x50D6 PUSH1 0x2F DUP4 PUSH2 0x5C80 JUMP JUMPDEST SWAP2 POP PUSH32 0x7B22737461747573436F6465223A203430312C20226D657373616765223A2022 PUSH1 0x0 DUP4 ADD MSTORE PUSH32 0x4E6F7420796F7572207475726E227D0000000000000000000000000000000000 PUSH1 0x20 DUP4 ADD MSTORE PUSH1 0x40 DUP3 ADD SWAP1 POP SWAP2 SWAP1 POP JUMP JUMPDEST PUSH1 0x0 PUSH2 0x513C PUSH1 0x43 DUP4 PUSH2 0x5C80 JUMP JUMPDEST SWAP2 POP PUSH32 0x7B22737461747573436F6465223A203930302C20226D657373616765223A2022 PUSH1 0x0 DUP4 ADD MSTORE PUSH32 0x50726976617465206B657920686173656E74206265656E20646973636F6C7365 PUSH1 0x20 DUP4 ADD MSTORE PUSH32 0x642E220000000000000000000000000000000000000000000000000000000000 PUSH1 0x40 DUP4 ADD MSTORE PUSH1 0x60 DUP3 ADD SWAP1 POP SWAP2 SWAP1 POP JUMP JUMPDEST PUSH1 0x0 PUSH2 0x51C8 PUSH1 0x4D DUP4 PUSH2 0x5C80 JUMP JUMPDEST SWAP2 POP PUSH32 0x7B22737461747573436F6465223A203530302C20226D657373616765223A2022 PUSH1 0x0 DUP4 ADD MSTORE PUSH32 0x536F6D657468696E672057656E7420566572792057726F6E67203A20666F6C64 PUSH1 0x20 DUP4 ADD MSTORE PUSH32 0x696E6720627920757365722E2200000000000000000000000000000000000000 PUSH1 0x40 DUP4 ADD MSTORE PUSH1 0x60 DUP3 ADD SWAP1 POP SWAP2 SWAP1 POP JUMP JUMPDEST PUSH1 0x0 PUSH2 0x5254 PUSH1 0x12 DUP4 PUSH2 0x5C80 JUMP JUMPDEST SWAP2 POP PUSH32 0x72657175657374206E6F7420666F756E642E0000000000000000000000000000 PUSH1 0x0 DUP4 ADD MSTORE PUSH1 0x20 DUP3 ADD SWAP1 POP SWAP2 SWAP1 POP JUMP JUMPDEST PUSH1 0x0 PUSH2 0x5294 PUSH1 0x3D DUP4 PUSH2 0x5C80 JUMP JUMPDEST SWAP2 POP PUSH32 0x7B22737461747573436F6465223A203430312C20226D657373616765223A2022 PUSH1 0x0 DUP4 ADD MSTORE PUSH32 0x72616E646F6D6E756D626572206E6F742067656E6572617465642E227D000000 PUSH1 0x20 DUP4 ADD MSTORE PUSH1 0x40 DUP3 ADD SWAP1 POP SWAP2 SWAP1 POP JUMP JUMPDEST PUSH1 0x0 PUSH2 0x52FA PUSH1 0x36 DUP4 PUSH2 0x5C80 JUMP JUMPDEST SWAP2 POP PUSH32 0x7B22737461747573436F6465223A203430302C20226D657373616765223A2022 PUSH1 0x0 DUP4 ADD MSTORE PUSH32 0x6465616C6572206973206E6F7420736574207965742200000000000000000000 PUSH1 0x20 DUP4 ADD MSTORE PUSH1 0x40 DUP3 ADD SWAP1 POP SWAP2 SWAP1 POP JUMP JUMPDEST PUSH1 0x0 PUSH2 0x5360 PUSH1 0x37 DUP4 PUSH2 0x5C80 JUMP JUMPDEST SWAP2 POP PUSH32 0x7B22737461747573436F6465223A203432322C20226D657373616765223A2022 PUSH1 0x0 DUP4 ADD MSTORE PUSH32 0x696E76616C6964207573657220616464726573732E227D000000000000000000 PUSH1 0x20 DUP4 ADD MSTORE PUSH1 0x40 DUP3 ADD SWAP1 POP SWAP2 SWAP1 POP JUMP JUMPDEST PUSH1 0x0 PUSH1 0x60 DUP4 ADD PUSH1 0x0 DUP4 ADD MLOAD PUSH2 0x53D1 PUSH1 0x0 DUP7 ADD DUP3 PUSH2 0x4624 JUMP JUMPDEST POP PUSH1 0x20 DUP4 ADD MLOAD DUP5 DUP3 SUB PUSH1 0x20 DUP7 ADD MSTORE PUSH2 0x53E9 DUP3 DUP3 PUSH2 0x4779 JUMP JUMPDEST SWAP2 POP POP PUSH1 0x40 DUP4 ADD MLOAD PUSH2 0x53FE PUSH1 0x40 DUP7 ADD DUP3 PUSH2 0x46B6 JUMP JUMPDEST POP DUP1 SWAP2 POP POP SWAP3 SWAP2 POP POP JUMP JUMPDEST PUSH2 0x5412 DUP2 PUSH2 0x5E0B JUMP JUMPDEST DUP3 MSTORE POP POP JUMP JUMPDEST PUSH1 0x0 PUSH2 0x5423 DUP3 PUSH2 0x4F97 JUMP JUMPDEST SWAP2 POP DUP2 SWAP1 POP SWAP2 SWAP1 POP JUMP JUMPDEST PUSH1 0x0 PUSH1 0x20 DUP3 ADD SWAP1 POP PUSH2 0x5442 PUSH1 0x0 DUP4 ADD DUP5 PUSH2 0x4633 JUMP JUMPDEST SWAP3 SWAP2 POP POP JUMP JUMPDEST PUSH1 0x0 PUSH1 0x40 DUP3 ADD SWAP1 POP PUSH2 0x545D PUSH1 0x0 DUP4 ADD DUP6 PUSH2 0x4633 JUMP JUMPDEST PUSH2 0x546A PUSH1 0x20 DUP4 ADD DUP5 PUSH2 0x4633 JUMP JUMPDEST SWAP4 SWAP3 POP POP POP JUMP JUMPDEST PUSH1 0x0 PUSH1 0xE0 DUP3 ADD SWAP1 POP PUSH2 0x5486 PUSH1 0x0 DUP4 ADD DUP10 PUSH2 0x4633 JUMP JUMPDEST PUSH2 0x5493 PUSH1 0x20 DUP4 ADD DUP9 PUSH2 0x46D4 JUMP JUMPDEST PUSH2 0x54A0 PUSH1 0x40 DUP4 ADD DUP8 PUSH2 0x4633 JUMP JUMPDEST PUSH2 0x54AD PUSH1 0x60 DUP4 ADD DUP7 PUSH2 0x4633 JUMP JUMPDEST PUSH2 0x54BA PUSH1 0x80 DUP4 ADD DUP6 PUSH2 0x4633 JUMP JUMPDEST PUSH2 0x54C7 PUSH1 0xA0 DUP4 ADD DUP5 PUSH2 0x46E3 JUMP JUMPDEST DUP2 DUP2 SUB PUSH1 0xC0 DUP4 ADD MSTORE PUSH2 0x54D8 DUP2 PUSH2 0x4F7D JUMP JUMPDEST SWAP1 POP SWAP8 SWAP7 POP POP POP POP POP POP POP JUMP JUMPDEST PUSH1 0x0 PUSH1 0x60 DUP3 ADD SWAP1 POP PUSH2 0x54FA PUSH1 0x0 DUP4 ADD DUP7 PUSH2 0x4633 JUMP JUMPDEST DUP2 DUP2 SUB PUSH1 0x20 DUP4 ADD MSTORE PUSH2 0x550C DUP2 DUP6 PUSH2 0x47B2 JUMP JUMPDEST SWAP1 POP PUSH2 0x551B PUSH1 0x40 DUP4 ADD DUP5 PUSH2 0x46C5 JUMP JUMPDEST SWAP5 SWAP4 POP POP POP POP JUMP JUMPDEST PUSH1 0x0 PUSH1 0x20 DUP3 ADD SWAP1 POP PUSH2 0x5538 PUSH1 0x0 DUP4 ADD DUP5 PUSH2 0x46C5 JUMP JUMPDEST SWAP3 SWAP2 POP POP JUMP JUMPDEST PUSH1 0x0 PUSH1 0x20 DUP3 ADD SWAP1 POP PUSH2 0x5553 PUSH1 0x0 DUP4 ADD DUP5 PUSH2 0x46D4 JUMP JUMPDEST SWAP3 SWAP2 POP POP JUMP JUMPDEST PUSH1 0x0 PUSH1 0x20 DUP3 ADD SWAP1 POP PUSH2 0x556E PUSH1 0x0 DUP4 ADD DUP5 PUSH2 0x46F2 JUMP JUMPDEST SWAP3 SWAP2 POP POP JUMP JUMPDEST PUSH1 0x0 PUSH1 0x20 DUP3 ADD SWAP1 POP PUSH2 0x5589 PUSH1 0x0 DUP4 ADD DUP5 PUSH2 0x4701 JUMP JUMPDEST SWAP3 SWAP2 POP POP JUMP JUMPDEST PUSH1 0x0 PUSH1 0x60 DUP3 ADD SWAP1 POP PUSH2 0x55A4 PUSH1 0x0 DUP4 ADD DUP7 PUSH2 0x4710 JUMP JUMPDEST PUSH2 0x55B1 PUSH1 0x20 DUP4 ADD DUP6 PUSH2 0x4633 JUMP JUMPDEST DUP2 DUP2 SUB PUSH1 0x40 DUP4 ADD MSTORE PUSH2 0x55C3 DUP2 DUP5 PUSH2 0x47B2 JUMP JUMPDEST SWAP1 POP SWAP5 SWAP4 POP POP POP POP JUMP JUMPDEST PUSH1 0x0 PUSH1 0x60 DUP3 ADD SWAP1 POP PUSH2 0x55E2 PUSH1 0x0 DUP4 ADD DUP6 PUSH2 0x4710 JUMP JUMPDEST PUSH2 0x55EF PUSH1 0x20 DUP4 ADD DUP5 PUSH2 0x4633 JUMP JUMPDEST DUP2 DUP2 SUB PUSH1 0x40 DUP4 ADD MSTORE PUSH2 0x5600 DUP2 PUSH2 0x4977 JUMP JUMPDEST SWAP1 POP SWAP4 SWAP3 POP POP POP JUMP JUMPDEST PUSH1 0x0 PUSH1 0x80 DUP3 ADD SWAP1 POP PUSH2 0x561E PUSH1 0x0 DUP4 ADD DUP8 PUSH2 0x471F JUMP JUMPDEST PUSH2 0x562B PUSH1 0x20 DUP4 ADD DUP7 PUSH2 0x4633 JUMP JUMPDEST PUSH2 0x5638 PUSH1 0x40 DUP4 ADD DUP6 PUSH2 0x5409 JUMP JUMPDEST PUSH2 0x5645 PUSH1 0x60 DUP4 ADD DUP5 PUSH2 0x4633 JUMP JUMPDEST SWAP6 SWAP5 POP POP POP POP POP JUMP JUMPDEST PUSH1 0x0 PUSH1 0xA0 DUP3 ADD SWAP1 POP PUSH2 0x5663 PUSH1 0x0 DUP4 ADD DUP9 PUSH2 0x471F JUMP JUMPDEST PUSH2 0x5670 PUSH1 0x20 DUP4 ADD DUP8 PUSH2 0x4633 JUMP JUMPDEST PUSH2 0x567D PUSH1 0x40 DUP4 ADD DUP7 PUSH2 0x5409 JUMP JUMPDEST PUSH2 0x568A PUSH1 0x60 DUP4 ADD DUP6 PUSH2 0x5409 JUMP JUMPDEST PUSH2 0x5697 PUSH1 0x80 DUP4 ADD DUP5 PUSH2 0x4633 JUMP JUMPDEST SWAP7 SWAP6 POP POP POP POP POP POP JUMP JUMPDEST PUSH1 0x0 PUSH1 0x40 DUP3 ADD SWAP1 POP PUSH2 0x56B6 PUSH1 0x0 DUP4 ADD DUP6 PUSH2 0x472E JUMP JUMPDEST DUP2 DUP2 SUB PUSH1 0x20 DUP4 ADD MSTORE PUSH2 0x56C8 DUP2 DUP5 PUSH2 0x4642 JUMP JUMPDEST SWAP1 POP SWAP4 SWAP3 POP POP POP JUMP JUMPDEST PUSH1 0x0 PUSH1 0x40 DUP3 ADD SWAP1 POP PUSH2 0x56E6 PUSH1 0x0 DUP4 ADD DUP6 PUSH2 0x473D JUMP JUMPDEST DUP2 DUP2 SUB PUSH1 0x20 DUP4 ADD MSTORE PUSH2 0x56F8 DUP2 DUP5 PUSH2 0x47B2 JUMP JUMPDEST SWAP1 POP SWAP4 SWAP3 POP POP POP JUMP JUMPDEST PUSH1 0x0 PUSH1 0x40 DUP3 ADD SWAP1 POP PUSH2 0x5716 PUSH1 0x0 DUP4 ADD DUP6 PUSH2 0x474C JUMP JUMPDEST PUSH2 0x5723 PUSH1 0x20 DUP4 ADD DUP5 PUSH2 0x4701 JUMP JUMPDEST SWAP4 SWAP3 POP POP POP JUMP JUMPDEST PUSH1 0x0 PUSH1 0x40 DUP3 ADD SWAP1 POP PUSH2 0x573F PUSH1 0x0 DUP4 ADD DUP6 PUSH2 0x475B JUMP JUMPDEST PUSH2 0x574C PUSH1 0x20 DUP4 ADD DUP5 PUSH2 0x5409 JUMP JUMPDEST SWAP4 SWAP3 POP POP POP JUMP JUMPDEST PUSH1 0x0 PUSH1 0x20 DUP3 ADD SWAP1 POP PUSH2 0x5768 PUSH1 0x0 DUP4 ADD DUP5 PUSH2 0x476A JUMP JUMPDEST SWAP3 SWAP2 POP POP JUMP JUMPDEST PUSH1 0x0 PUSH1 0x20 DUP3 ADD SWAP1 POP DUP2 DUP2 SUB PUSH1 0x0 DUP4 ADD MSTORE PUSH2 0x5788 DUP2 DUP5 PUSH2 0x47B2 JUMP JUMPDEST SWAP1 POP SWAP3 SWAP2 POP POP JUMP JUMPDEST PUSH1 0x0 PUSH1 0x20 DUP3 ADD SWAP1 POP DUP2 DUP2 SUB PUSH1 0x0 DUP4 ADD MSTORE PUSH2 0x57A9 DUP2 PUSH2 0x486B JUMP JUMPDEST SWAP1 POP SWAP2 SWAP1 POP JUMP JUMPDEST PUSH1 0x0 PUSH1 0x20 DUP3 ADD SWAP1 POP DUP2 DUP2 SUB PUSH1 0x0 DUP4 ADD MSTORE PUSH2 0x57C9 DUP2 PUSH2 0x48AB JUMP JUMPDEST SWAP1 POP SWAP2 SWAP1 POP JUMP JUMPDEST PUSH1 0x0 PUSH1 0x20 DUP3 ADD SWAP1 POP DUP2 DUP2 SUB PUSH1 0x0 DUP4 ADD MSTORE PUSH2 0x57E9 DUP2 PUSH2 0x4937 JUMP JUMPDEST SWAP1 POP SWAP2 SWAP1 POP JUMP JUMPDEST PUSH1 0x0 PUSH1 0x20 DUP3 ADD SWAP1 POP DUP2 DUP2 SUB PUSH1 0x0 DUP4 ADD MSTORE PUSH2 0x5809 DUP2 PUSH2 0x49B7 JUMP JUMPDEST SWAP1 POP SWAP2 SWAP1 POP JUMP JUMPDEST PUSH1 0x0 PUSH1 0x20 DUP3 ADD SWAP1 POP DUP2 DUP2 SUB PUSH1 0x0 DUP4 ADD MSTORE PUSH2 0x5829 DUP2 PUSH2 0x4A1D JUMP JUMPDEST SWAP1 POP SWAP2 SWAP1 POP JUMP JUMPDEST PUSH1 0x0 PUSH1 0x20 DUP3 ADD SWAP1 POP DUP2 DUP2 SUB PUSH1 0x0 DUP4 ADD MSTORE PUSH2 0x5849 DUP2 PUSH2 0x4A83 JUMP JUMPDEST SWAP1 POP SWAP2 SWAP1 POP JUMP JUMPDEST PUSH1 0x0 PUSH1 0x20 DUP3 ADD SWAP1 POP DUP2 DUP2 SUB PUSH1 0x0 DUP4 ADD MSTORE PUSH2 0x5869 DUP2 PUSH2 0x4AE9 JUMP JUMPDEST SWAP1 POP SWAP2 SWAP1 POP JUMP JUMPDEST PUSH1 0x0 PUSH1 0x20 DUP3 ADD SWAP1 POP DUP2 DUP2 SUB PUSH1 0x0 DUP4 ADD MSTORE PUSH2 0x5889 DUP2 PUSH2 0x4B4F JUMP JUMPDEST SWAP1 POP SWAP2 SWAP1 POP JUMP JUMPDEST PUSH1 0x0 PUSH1 0x20 DUP3 ADD SWAP1 POP DUP2 DUP2 SUB PUSH1 0x0 DUP4 ADD MSTORE PUSH2 0x58A9 DUP2 PUSH2 0x4BB5 JUMP JUMPDEST SWAP1 POP SWAP2 SWAP1 POP JUMP JUMPDEST PUSH1 0x0 PUSH1 0x20 DUP3 ADD SWAP1 POP DUP2 DUP2 SUB PUSH1 0x0 DUP4 ADD MSTORE PUSH2 0x58C9 DUP2 PUSH2 0x4C1B JUMP JUMPDEST SWAP1 POP SWAP2 SWAP1 POP JUMP JUMPDEST PUSH1 0x0 PUSH1 0x20 DUP3 ADD SWAP1 POP DUP2 DUP2 SUB PUSH1 0x0 DUP4 ADD MSTORE PUSH2 0x58E9 DUP2 PUSH2 0x4CA7 JUMP JUMPDEST SWAP1 POP SWAP2 SWAP1 POP JUMP JUMPDEST PUSH1 0x0 PUSH1 0x20 DUP3 ADD SWAP1 POP DUP2 DUP2 SUB PUSH1 0x0 DUP4 ADD MSTORE PUSH2 0x5909 DUP2 PUSH2 0x4D33 JUMP JUMPDEST SWAP1 POP SWAP2 SWAP1 POP JUMP JUMPDEST PUSH1 0x0 PUSH1 0x20 DUP3 ADD SWAP1 POP DUP2 DUP2 SUB PUSH1 0x0 DUP4 ADD MSTORE PUSH2 0x5929 DUP2 PUSH2 0x4D99 JUMP JUMPDEST SWAP1 POP SWAP2 SWAP1 POP JUMP JUMPDEST PUSH1 0x0 PUSH1 0x20 DUP3 ADD SWAP1 POP DUP2 DUP2 SUB PUSH1 0x0 DUP4 ADD MSTORE PUSH2 0x5949 DUP2 PUSH2 0x4DFF JUMP JUMPDEST SWAP1 POP SWAP2 SWAP1 POP JUMP JUMPDEST PUSH1 0x0 PUSH1 0x20 DUP3 ADD SWAP1 POP DUP2 DUP2 SUB PUSH1 0x0 DUP4 ADD MSTORE PUSH2 0x5969 DUP2 PUSH2 0x4E65 JUMP JUMPDEST SWAP1 POP SWAP2 SWAP1 POP JUMP JUMPDEST PUSH1 0x0 PUSH1 0x20 DUP3 ADD SWAP1 POP DUP2 DUP2 SUB PUSH1 0x0 DUP4 ADD MSTORE PUSH2 0x5989 DUP2 PUSH2 0x4F17 JUMP JUMPDEST SWAP1 POP SWAP2 SWAP1 POP JUMP JUMPDEST PUSH1 0x0 PUSH1 0x20 DUP3 ADD SWAP1 POP DUP2 DUP2 SUB PUSH1 0x0 DUP4 ADD MSTORE PUSH2 0x59A9 DUP2 PUSH2 0x4FB1 JUMP JUMPDEST SWAP1 POP SWAP2 SWAP1 POP JUMP JUMPDEST PUSH1 0x0 PUSH1 0x20 DUP3 ADD SWAP1 POP DUP2 DUP2 SUB PUSH1 0x0 DUP4 ADD MSTORE PUSH2 0x59C9 DUP2 PUSH2 0x5063 JUMP JUMPDEST SWAP1 POP SWAP2 SWAP1 POP JUMP JUMPDEST PUSH1 0x0 PUSH1 0x20 DUP3 ADD SWAP1 POP DUP2 DUP2 SUB PUSH1 0x0 DUP4 ADD MSTORE PUSH2 0x59E9 DUP2 PUSH2 0x50C9 JUMP JUMPDEST SWAP1 POP SWAP2 SWAP1 POP JUMP JUMPDEST PUSH1 0x0 PUSH1 0x20 DUP3 ADD SWAP1 POP DUP2 DUP2 SUB PUSH1 0x0 DUP4 ADD MSTORE PUSH2 0x5A09 DUP2 PUSH2 0x512F JUMP JUMPDEST SWAP1 POP SWAP2 SWAP1 POP JUMP JUMPDEST PUSH1 0x0 PUSH1 0x20 DUP3 ADD SWAP1 POP DUP2 DUP2 SUB PUSH1 0x0 DUP4 ADD MSTORE PUSH2 0x5A29 DUP2 PUSH2 0x51BB JUMP JUMPDEST SWAP1 POP SWAP2 SWAP1 POP JUMP JUMPDEST PUSH1 0x0 PUSH1 0x20 DUP3 ADD SWAP1 POP DUP2 DUP2 SUB PUSH1 0x0 DUP4 ADD MSTORE PUSH2 0x5A49 DUP2 PUSH2 0x5247 JUMP JUMPDEST SWAP1 POP SWAP2 SWAP1 POP JUMP JUMPDEST PUSH1 0x0 PUSH1 0x20 DUP3 ADD SWAP1 POP DUP2 DUP2 SUB PUSH1 0x0 DUP4 ADD MSTORE PUSH2 0x5A69 DUP2 PUSH2 0x5287 JUMP JUMPDEST SWAP1 POP SWAP2 SWAP1 POP JUMP JUMPDEST PUSH1 0x0 PUSH1 0x20 DUP3 ADD SWAP1 POP DUP2 DUP2 SUB PUSH1 0x0 DUP4 ADD MSTORE PUSH2 0x5A89 DUP2 PUSH2 0x52ED JUMP JUMPDEST SWAP1 POP SWAP2 SWAP1 POP JUMP JUMPDEST PUSH1 0x0 PUSH1 0x20 DUP3 ADD SWAP1 POP DUP2 DUP2 SUB PUSH1 0x0 DUP4 ADD MSTORE PUSH2 0x5AA9 DUP2 PUSH2 0x5353 JUMP JUMPDEST SWAP1 POP SWAP2 SWAP1 POP JUMP JUMPDEST PUSH1 0x0 PUSH1 0x20 DUP3 ADD SWAP1 POP DUP2 DUP2 SUB PUSH1 0x0 DUP4 ADD MSTORE PUSH2 0x5ACA DUP2 DUP5 PUSH2 0x53B9 JUMP JUMPDEST SWAP1 POP SWAP3 SWAP2 POP POP JUMP JUMPDEST PUSH1 0x0 PUSH1 0x20 DUP3 ADD SWAP1 POP PUSH2 0x5AE7 PUSH1 0x0 DUP4 ADD DUP5 PUSH2 0x5409 JUMP JUMPDEST SWAP3 SWAP2 POP POP JUMP JUMPDEST PUSH1 0x0 DUP1 DUP4 CALLDATALOAD PUSH1 0x1 PUSH1 0x20 SUB DUP5 CALLDATASIZE SUB SUB DUP2 SLT PUSH2 0x5B06 JUMPI PUSH1 0x0 DUP1 REVERT JUMPDEST DUP1 DUP5 ADD SWAP3 POP DUP3 CALLDATALOAD SWAP2 POP PUSH8 0xFFFFFFFFFFFFFFFF DUP3 GT ISZERO PUSH2 0x5B24 JUMPI PUSH1 0x0 DUP1 REVERT JUMPDEST PUSH1 0x20 DUP4 ADD SWAP3 POP PUSH1 0x1 DUP3 MUL CALLDATASIZE SUB DUP4 SGT ISZERO PUSH2 0x5B3C JUMPI PUSH1 0x0 DUP1 REVERT JUMPDEST POP SWAP3 POP SWAP3 SWAP1 POP JUMP JUMPDEST PUSH1 0x0 DUP3 CALLDATALOAD PUSH1 0x1 PUSH1 0x60 SUB DUP4 CALLDATASIZE SUB SUB DUP2 SLT PUSH2 0x5B5C JUMPI PUSH1 0x0 DUP1 REVERT JUMPDEST DUP1 DUP4 ADD SWAP2 POP POP SWAP3 SWAP2 POP POP JUMP JUMPDEST PUSH1 0x0 PUSH1 0x40 MLOAD SWAP1 POP DUP2 DUP2 ADD DUP2 DUP2 LT PUSH8 0xFFFFFFFFFFFFFFFF DUP3 GT OR ISZERO PUSH2 0x5B8F JUMPI PUSH2 0x5B8E PUSH2 0x60D4 JUMP JUMPDEST JUMPDEST DUP1 PUSH1 0x40 MSTORE POP SWAP2 SWAP1 POP JUMP JUMPDEST PUSH1 0x0 PUSH8 0xFFFFFFFFFFFFFFFF DUP3 GT ISZERO PUSH2 0x5BB4 JUMPI PUSH2 0x5BB3 PUSH2 0x60D4 JUMP JUMPDEST JUMPDEST PUSH1 0x20 DUP3 MUL SWAP1 POP PUSH1 0x20 DUP2 ADD SWAP1 POP SWAP2 SWAP1 POP JUMP JUMPDEST PUSH1 0x0 PUSH8 0xFFFFFFFFFFFFFFFF DUP3 GT ISZERO PUSH2 0x5BE0 JUMPI PUSH2 0x5BDF PUSH2 0x60D4 JUMP JUMPDEST JUMPDEST PUSH1 0x1F NOT PUSH1 0x1F DUP4 ADD AND SWAP1 POP PUSH1 0x20 DUP2 ADD SWAP1 POP SWAP2 SWAP1 POP JUMP JUMPDEST PUSH1 0x0 DUP2 SWAP1 POP DUP2 PUSH1 0x0 MSTORE PUSH1 0x20 PUSH1 0x0 KECCAK256 SWAP1 POP SWAP2 SWAP1 POP JUMP JUMPDEST PUSH1 0x0 DUP2 SWAP1 POP DUP2 PUSH1 0x0 MSTORE PUSH1 0x20 PUSH1 0x0 KECCAK256 SWAP1 POP SWAP2 SWAP1 POP JUMP JUMPDEST PUSH1 0x0 DUP2 SLOAD SWAP1 POP SWAP2 SWAP1 POP JUMP JUMPDEST PUSH1 0x0 DUP2 MLOAD SWAP1 POP SWAP2 SWAP1 POP JUMP JUMPDEST PUSH1 0x0 PUSH1 0x1 DUP3 ADD SWAP1 POP SWAP2 SWAP1 POP JUMP JUMPDEST PUSH1 0x0 DUP3 DUP3 MSTORE PUSH1 0x20 DUP3 ADD SWAP1 POP SWAP3 SWAP2 POP POP JUMP JUMPDEST PUSH1 0x0 DUP3 DUP3 MSTORE PUSH1 0x20 DUP3 ADD SWAP1 POP SWAP3 SWAP2 POP POP JUMP JUMPDEST PUSH1 0x0 DUP2 SWAP1 POP SWAP3 SWAP2 POP POP JUMP JUMPDEST PUSH1 0x0 DUP3 DUP3 MSTORE PUSH1 0x20 DUP3 ADD SWAP1 POP SWAP3 SWAP2 POP POP JUMP JUMPDEST PUSH1 0x0 DUP3 DUP3 MSTORE PUSH1 0x20 DUP3 ADD SWAP1 POP SWAP3 SWAP2 POP POP JUMP JUMPDEST PUSH1 0x0 PUSH2 0x5C9C DUP3 PUSH2 0x5E0B JUMP JUMPDEST SWAP2 POP PUSH2 0x5CA7 DUP4 PUSH2 0x5E0B JUMP JUMPDEST SWAP3 POP DUP3 PUSH32 0xFFFFFFFFFFFFFFFFFFFFFFFFFFFFFFFFFFFFFFFFFFFFFFFFFFFFFFFFFFFFFFFF SUB DUP3 GT ISZERO PUSH2 0x5CDC JUMPI PUSH2 0x5CDB PUSH2 0x6018 JUMP JUMPDEST JUMPDEST DUP3 DUP3 ADD SWAP1 POP SWAP3 SWAP2 POP POP JUMP JUMPDEST PUSH1 0x0 PUSH2 0x5CF2 DUP3 PUSH2 0x5E0B JUMP JUMPDEST SWAP2 POP PUSH2 0x5CFD DUP4 PUSH2 0x5E0B JUMP JUMPDEST SWAP3 POP DUP3 PUSH2 0x5D0D JUMPI PUSH2 0x5D0C PUSH2 0x6047 JUMP JUMPDEST JUMPDEST DUP3 DUP3 DIV SWAP1 POP SWAP3 SWAP2 POP POP JUMP JUMPDEST PUSH1 0x0 PUSH2 0x5D23 DUP3 PUSH2 0x5E0B JUMP JUMPDEST SWAP2 POP PUSH2 0x5D2E DUP4 PUSH2 0x5E0B JUMP JUMPDEST SWAP3 POP DUP2 PUSH32 0xFFFFFFFFFFFFFFFFFFFFFFFFFFFFFFFFFFFFFFFFFFFFFFFFFFFFFFFFFFFFFFFF DIV DUP4 GT DUP3 ISZERO ISZERO AND ISZERO PUSH2 0x5D67 JUMPI PUSH2 0x5D66 PUSH2 0x6018 JUMP JUMPDEST JUMPDEST DUP3 DUP3 MUL SWAP1 POP SWAP3 SWAP2 POP POP JUMP JUMPDEST PUSH1 0x0 PUSH2 0x5D7D DUP3 PUSH2 0x5DEB JUMP JUMPDEST SWAP1 POP SWAP2 SWAP1 POP JUMP JUMPDEST PUSH1 0x0 PUSH2 0x5D8F DUP3 PUSH2 0x5DEB JUMP JUMPDEST SWAP1 POP SWAP2 SWAP1 POP JUMP JUMPDEST PUSH1 0x0 DUP2 ISZERO ISZERO SWAP1 POP SWAP2 SWAP1 POP JUMP JUMPDEST PUSH1 0x0 DUP2 SWAP1 POP SWAP2 SWAP1 POP JUMP JUMPDEST PUSH1 0x0 PUSH32 0xFFFFFFFF00000000000000000000000000000000000000000000000000000000 DUP3 AND SWAP1 POP SWAP2 SWAP1 POP JUMP JUMPDEST PUSH1 0x0 DUP2 SWAP1 POP PUSH2 0x5DE6 DUP3 PUSH2 0x6114 JUMP JUMPDEST SWAP2 SWAP1 POP JUMP JUMPDEST PUSH1 0x0 PUSH20 0xFFFFFFFFFFFFFFFFFFFFFFFFFFFFFFFFFFFFFFFF DUP3 AND SWAP1 POP SWAP2 SWAP1 POP JUMP JUMPDEST PUSH1 0x0 DUP2 SWAP1 POP SWAP2 SWAP1 POP JUMP JUMPDEST PUSH1 0x0 PUSH1 0xFF DUP3 AND SWAP1 POP SWAP2 SWAP1 POP JUMP JUMPDEST PUSH1 0x0 PUSH2 0x5E2D DUP3 PUSH2 0x5E34 JUMP JUMPDEST SWAP1 POP SWAP2 SWAP1 POP JUMP JUMPDEST PUSH1 0x0 PUSH2 0x5E3F DUP3 PUSH2 0x5DEB JUMP JUMPDEST SWAP1 POP SWAP2 SWAP1 POP JUMP JUMPDEST PUSH1 0x0 PUSH2 0x5E51 DUP3 PUSH2 0x5DD8 JUMP JUMPDEST SWAP1 POP SWAP2 SWAP1 POP JUMP JUMPDEST PUSH1 0x0 PUSH2 0x5E63 DUP3 PUSH2 0x5E15 JUMP JUMPDEST SWAP1 POP SWAP2 SWAP1 POP JUMP JUMPDEST PUSH1 0x0 PUSH2 0x5E75 DUP3 PUSH2 0x5E15 JUMP JUMPDEST SWAP1 POP SWAP2 SWAP1 POP JUMP JUMPDEST PUSH1 0x0 PUSH2 0x5E87 DUP3 PUSH2 0x5E15 JUMP JUMPDEST SWAP1 POP SWAP2 SWAP1 POP JUMP JUMPDEST PUSH1 0x0 PUSH2 0x5E99 DUP3 PUSH2 0x5E15 JUMP JUMPDEST SWAP1 POP SWAP2 SWAP1 POP JUMP JUMPDEST PUSH1 0x0 PUSH2 0x5EAB DUP3 PUSH2 0x5E15 JUMP JUMPDEST SWAP1 POP SWAP2 SWAP1 POP JUMP JUMPDEST PUSH1 0x0 PUSH2 0x5EBD DUP3 PUSH2 0x5E15 JUMP JUMPDEST SWAP1 POP SWAP2 SWAP1 POP JUMP JUMPDEST PUSH1 0x0 PUSH2 0x5ECF DUP3 PUSH2 0x5E15 JUMP JUMPDEST SWAP1 POP SWAP2 SWAP1 POP JUMP JUMPDEST DUP3 DUP2 DUP4 CALLDATACOPY PUSH1 0x0 DUP4 DUP4 ADD MSTORE POP POP POP JUMP JUMPDEST PUSH1 0x0 JUMPDEST DUP4 DUP2 LT ISZERO PUSH2 0x5F03 JUMPI DUP1 DUP3 ADD MLOAD DUP2 DUP5 ADD MSTORE PUSH1 0x20 DUP2 ADD SWAP1 POP PUSH2 0x5EE8 JUMP JUMPDEST DUP4 DUP2 GT ISZERO PUSH2 0x5F12 JUMPI PUSH1 0x0 DUP5 DUP5 ADD MSTORE JUMPDEST POP POP POP POP JUMP JUMPDEST PUSH1 0x0 PUSH2 0x5F23 DUP3 PUSH2 0x5E15 JUMP JUMPDEST SWAP2 POP PUSH1 0x0 DUP3 EQ ISZERO PUSH2 0x5F37 JUMPI PUSH2 0x5F36 PUSH2 0x6018 JUMP JUMPDEST JUMPDEST PUSH1 0x1 DUP3 SUB SWAP1 POP SWAP2 SWAP1 POP JUMP JUMPDEST PUSH1 0x0 PUSH1 0x2 DUP3 DIV SWAP1 POP PUSH1 0x1 DUP3 AND DUP1 PUSH2 0x5F5A JUMPI PUSH1 0x7F DUP3 AND SWAP2 POP JUMPDEST PUSH1 0x20 DUP3 LT DUP2 EQ ISZERO PUSH2 0x5F6E JUMPI PUSH2 0x5F6D PUSH2 0x60A5 JUMP JUMPDEST JUMPDEST POP SWAP2 SWAP1 POP JUMP JUMPDEST PUSH1 0x0 PUSH2 0x5F7F DUP3 PUSH2 0x5E0B JUMP JUMPDEST SWAP2 POP PUSH32 0xFFFFFFFFFFFFFFFFFFFFFFFFFFFFFFFFFFFFFFFFFFFFFFFFFFFFFFFFFFFFFFFF DUP3 EQ ISZERO PUSH2 0x5FB2 JUMPI PUSH2 0x5FB1 PUSH2 0x6018 JUMP JUMPDEST JUMPDEST PUSH1 0x1 DUP3 ADD SWAP1 POP SWAP2 SWAP1 POP JUMP JUMPDEST PUSH1 0x0 PUSH2 0x5FC8 DUP3 PUSH2 0x5E15 JUMP JUMPDEST SWAP2 POP PUSH1 0xFF DUP3 EQ ISZERO PUSH2 0x5FDC JUMPI PUSH2 0x5FDB PUSH2 0x6018 JUMP JUMPDEST JUMPDEST PUSH1 0x1 DUP3 ADD SWAP1 POP SWAP2 SWAP1 POP JUMP JUMPDEST PUSH1 0x0 PUSH2 0x5FF2 DUP3 PUSH2 0x5E0B JUMP JUMPDEST SWAP2 POP PUSH2 0x5FFD DUP4 PUSH2 0x5E0B JUMP JUMPDEST SWAP3 POP DUP3 PUSH2 0x600D JUMPI PUSH2 0x600C PUSH2 0x6047 JUMP JUMPDEST JUMPDEST DUP3 DUP3 MOD SWAP1 POP SWAP3 SWAP2 POP POP JUMP JUMPDEST PUSH32 0x4E487B7100000000000000000000000000000000000000000000000000000000 PUSH1 0x0 MSTORE PUSH1 0x11 PUSH1 0x4 MSTORE PUSH1 0x24 PUSH1 0x0 REVERT JUMPDEST PUSH32 0x4E487B7100000000000000000000000000000000000000000000000000000000 PUSH1 0x0 MSTORE PUSH1 0x12 PUSH1 0x4 MSTORE PUSH1 0x24 PUSH1 0x0 REVERT JUMPDEST PUSH32 0x4E487B7100000000000000000000000000000000000000000000000000000000 PUSH1 0x0 MSTORE PUSH1 0x21 PUSH1 0x4 MSTORE PUSH1 0x24 PUSH1 0x0 REVERT JUMPDEST PUSH32 0x4E487B7100000000000000000000000000000000000000000000000000000000 PUSH1 0x0 MSTORE PUSH1 0x22 PUSH1 0x4 MSTORE PUSH1 0x24 PUSH1 0x0 REVERT JUMPDEST PUSH32 0x4E487B7100000000000000000000000000000000000000000000000000000000 PUSH1 0x0 MSTORE PUSH1 0x41 PUSH1 0x4 MSTORE PUSH1 0x24 PUSH1 0x0 REVERT JUMPDEST PUSH1 0x0 PUSH1 0x1F NOT PUSH1 0x1F DUP4 ADD AND SWAP1 POP SWAP2 SWAP1 POP JUMP JUMPDEST PUSH1 0x5 DUP2 LT PUSH2 0x6125 JUMPI PUSH2 0x6124 PUSH2 0x6076 JUMP JUMPDEST JUMPDEST POP JUMP JUMPDEST PUSH2 0x6131 DUP2 PUSH2 0x5D72 JUMP JUMPDEST DUP2 EQ PUSH2 0x613C JUMPI PUSH1 0x0 DUP1 REVERT JUMPDEST POP JUMP JUMPDEST PUSH2 0x6148 DUP2 PUSH2 0x5D84 JUMP JUMPDEST DUP2 EQ PUSH2 0x6153 JUMPI PUSH1 0x0 DUP1 REVERT JUMPDEST POP JUMP JUMPDEST PUSH2 0x615F DUP2 PUSH2 0x5D96 JUMP JUMPDEST DUP2 EQ PUSH2 0x616A JUMPI PUSH1 0x0 DUP1 REVERT JUMPDEST POP JUMP JUMPDEST PUSH2 0x6176 DUP2 PUSH2 0x5DA2 JUMP JUMPDEST DUP2 EQ PUSH2 0x6181 JUMPI PUSH1 0x0 DUP1 REVERT JUMPDEST POP JUMP JUMPDEST PUSH2 0x618D DUP2 PUSH2 0x5E0B JUMP JUMPDEST DUP2 EQ PUSH2 0x6198 JUMPI PUSH1 0x0 DUP1 REVERT JUMPDEST POP JUMP INVALID PUSH28 0x2273746174757322203A203530302C20226D65737361676522203A20 0x22 MSTORE8 PUSH16 0x6D657468696E672077656E7420766572 PUSH26 0x2077726F6E67203A20666F6C64696E674155736572227D7B2273 PUSH21 0x6174757322203A203230302C20226D657373616765 0x22 KECCAK256 GASPRICE KECCAK256 0x22 PUSH22 0x73657220666F6C646564227DA2646970667358221220 0xEC 0xE6 CALLDATACOPY 0xEE 0xA7 PUSH25 0x65729708DC6EE7FCF5B246C34F983A478B8F7D34FF1800A059 0xDE PUSH5 0x736F6C6343 STOP ADDMOD STOP STOP CALLER "},"methodIdentifiers":{"APPLIEDFORRANDOMNUMBERGENERATION()":"40118610","GENERATEDRANDOMNUMBER()":"95019d0a","GenerateRandomNumber(address)":"28d34dc2","ISDECKCREATED()":"b746c9a7","ISNUMBERGENERATED()":"48c2aed2","ISPRIVATEKEYEXPOSED()":"4154b8e2","ISROOTDECKPUBLISHED()":"339cf701","PRIVATEKEYTODECODECARDS()":"23fb1092","Users(uint256)":"1e98fd1c","_airnodeRrp()":"09dc0c7d","airnode()":"a36ff4d8","airnodeRrp()":"71bab666","backDoor(address)":"972ab703","callBet()":"12a2e07b","currentBet()":"d504cb65","endpointIdUint256()":"07b9fc57","expectedUserAddress()":"bfa169f1","fold()":"e684f46a","foldUser(string,address)":"80374dc8","gameDeck(uint256)":"6f120c10","gameInit((address,string,bool)[])":"e3c71a19","hardResetWithCleanup(address)":"846667a5","initialDeck(uint256)":"ae8b03c1","logRandomNumberGeneration(bytes32,bytes)":"e908cd92","pooledAmount()":"3706dd4e","raiseBet(uint256)":"85864a70","server()":"fd922a42","shuffleDeck()":"b0a3beaf","sponsorWallet()":"bf90fb4e","stateDefiner()":"7c529711","theDeckCreated()":"2ebfc403","uploadEncriptedDeck(string[])":"e445dd33","uploadPrivateKey(string)":"d7c9eee3","value()":"3fa4f245","withdraw()":"3ccfd60b"}}}}}