{
  "_format": "hh-sol-artifact-1",
  "contractName": "RrpRequesterV0",
  "sourceName": "@api3/airnode-protocol/contracts/rrp/requesters/RrpRequesterV0.sol",
  "abi": [
    {
      "inputs": [
        {
          "internalType": "address",
          "name": "_airnodeRrp",
          "type": "address"
        }
      ],
      "stateMutability": "nonpayable",
      "type": "constructor"
    },
    {
      "inputs": [],
      "name": "airnodeRrp",
      "outputs": [
        {
          "internalType": "contract IAirnodeRrpV0",
          "name": "",
          "type": "address"
        }
      ],
      "stateMutability": "view",
      "type": "function"
    }
  ],
  "bytecode": "0x60a060405234801561001057600080fd5b506040516102db3803806102db833981810160405281019061003291906100f2565b8073ffffffffffffffffffffffffffffffffffffffff1660808173ffffffffffffffffffffffffffffffffffffffff1660601b815250508073ffffffffffffffffffffffffffffffffffffffff1663addf027c3060016040518363ffffffff1660e01b81526004016100a5929190610139565b600060405180830381600087803b1580156100bf57600080fd5b505af11580156100d3573d6000803e3d6000fd5b50505050506101b7565b6000815190506100ec816101a0565b92915050565b60006020828403121561010457600080fd5b6000610112848285016100dd565b91505092915050565b61012481610162565b82525050565b61013381610174565b82525050565b600060408201905061014e600083018561011b565b61015b602083018461012a565b9392505050565b600061016d82610180565b9050919050565b60008115159050919050565b600073ffffffffffffffffffffffffffffffffffffffff82169050919050565b6101a981610162565b81146101b457600080fd5b50565b60805160601c6101076101d46000396000604901526101076000f3fe6080604052348015600f57600080fd5b506004361060285760003560e01c806371bab66614602d575b600080fd5b60336047565b604051603e91906078565b60405180910390f35b7f000000000000000000000000000000000000000000000000000000000000000081565b60728160b1565b82525050565b6000602082019050608b6000830184606b565b92915050565b600073ffffffffffffffffffffffffffffffffffffffff82169050919050565b600060ba8260c1565b9050919050565b600060ca826091565b905091905056fea2646970667358221220ddbe4f8cdb8d1414771a98dd1058c786833918bd01b869b6fa6aeb93dc34c6d364736f6c63430008000033",
  "linkReferences": {},
  "deployedLinkReferences": {}
}